{"abi":[{"inputs":[{"internalType":"address","name":"_settings","type":"address"}],"stateMutability":"nonpayable","type":"constructor","name":"constructor"},{"anonymous":false,"inputs":[{"indexed":true,"internalType":"address","name":"token","type":"address"},{"indexed":false,"internalType":"uint256","name":"id","type":"uint256"},{"indexed":false,"internalType":"uint256","name":"price","type":"uint256"},{"indexed":false,"internalType":"address","name":"vault","type":"address"},{"indexed":false,"internalType":"uint256","name":"vaultId","type":"uint256"}],"name":"Mint","type":"event"},{"anonymous":false,"inputs":[{"indexed":true,"internalType":"address","name":"previousOwner","type":"address"},{"indexed":true,"internalType":"address","name":"newOwner","type":"address"}],"name":"OwnershipTransferred","type":"event"},{"anonymous":false,"inputs":[{"indexed":false,"internalType":"address","name":"account","type":"address"}],"name":"Paused","type":"event"},{"anonymous":false,"inputs":[{"indexed":false,"internalType":"address","name":"account","type":"address"}],"name":"Unpaused","type":"event"},{"inputs":[],"name":"logic","outputs":[{"internalType":"address","name":"","type":"address"}],"stateMutability":"view","type":"function"},{"inputs":[{"internalType":"string","name":"_name","type":"string"},{"internalType":"string","name":"_symbol","type":"string"},{"internalType":"address","name":"_token","type":"address"},{"internalType":"uint256","name":"_id","type":"uint256"},{"internalType":"uint256","name":"_supply","type":"uint256"},{"internalType":"uint256","name":"_listPrice","type":"uint256"},{"internalType":"uint256","name":"_fee","type":"uint256"}],"name":"mint","outputs":[{"internalType":"uint256","name":"","type":"uint256"}],"stateMutability":"nonpayable","type":"function"},{"inputs":[],"name":"owner","outputs":[{"internalType":"address","name":"","type":"address"}],"stateMutability":"view","type":"function"},{"inputs":[],"name":"pause","outputs":[],"stateMutability":"nonpayable","type":"function"},{"inputs":[],"name":"paused","outputs":[{"internalType":"bool","name":"","type":"bool"}],"stateMutability":"view","type":"function"},{"inputs":[],"name":"renounceOwnership","outputs":[],"stateMutability":"nonpayable","type":"function"},{"inputs":[],"name":"settings","outputs":[{"internalType":"address","name":"","type":"address"}],"stateMutability":"view","type":"function"},{"inputs":[{"internalType":"address","name":"newOwner","type":"address"}],"name":"transferOwnership","outputs":[],"stateMutability":"nonpayable","type":"function"},{"inputs":[],"name":"unpause","outputs":[],"stateMutability":"nonpayable","type":"function"},{"inputs":[],"name":"vaultCount","outputs":[{"internalType":"uint256","name":"","type":"uint256"}],"stateMutability":"view","type":"function"},{"inputs":[{"internalType":"uint256","name":"","type":"uint256"}],"name":"vaults","outputs":[{"internalType":"address","name":"","type":"address"}],"stateMutability":"view","type":"function"}],"bytecode":"60c060405234801561001057600080fd5b5060405161422638038061422683398101604081905261002f916100e4565b600080546001600160a01b031916339081178255604051909182917f8be0079c531659141344cd1fd0a4f28419497f9722a3daafe3b4186f6b6457e0908290a3506000805460ff60a01b191690556001600160a01b0381166080526040518190610098906100d7565b6001600160a01b039091168152602001604051809103906000f0801580156100c4573d6000803e3d6000fd5b506001600160a01b031660a05250610114565b61333080610ef683390190565b6000602082840312156100f657600080fd5b81516001600160a01b038116811461010d57600080fd5b9392505050565b60805160a051610db66101406000396000818161018b0152610382015260006101b30152610db66000f3fe60806040523480156200001157600080fd5b5060043610620000b75760003560e01c80638da5cb5b116200007a5780638da5cb5b1462000143578063a7c6a1001462000155578063bdc01110146200016e578063d7dfa0dd1462000185578063e06174e414620001ad578063f2fde38b14620001d557600080fd5b80633f4ba83a14620000bc5780635c975abb14620000c8578063715018a614620000ea5780638456cb5914620000f45780638c64ea4a14620000fe575b600080fd5b620000c6620001ec565b005b600054600160a01b900460ff1660405190151581526020015b60405180910390f35b620000c66200022e565b620000c6620002a5565b6200012a6200010f36600462000734565b6002602052600090815260409020546001600160a01b031681565b6040516001600160a01b039091168152602001620000e1565b6000546001600160a01b03166200012a565b6200015f60015481565b604051908152602001620000e1565b6200015f6200017f36600462000816565b620002dc565b6200012a7f000000000000000000000000000000000000000000000000000000000000000081565b6200012a7f000000000000000000000000000000000000000000000000000000000000000081565b620000c6620001e6366004620008b8565b6200050d565b6000546001600160a01b03163314620002225760405162461bcd60e51b81526004016200021990620008dd565b60405180910390fd5b6200022c620005fc565b565b6000546001600160a01b031633146200025b5760405162461bcd60e51b81526004016200021990620008dd565b600080546040516001600160a01b03909116907f8be0079c531659141344cd1fd0a4f28419497f9722a3daafe3b4186f6b6457e0908390a3600080546001600160a01b0319169055565b6000546001600160a01b03163314620002d25760405162461bcd60e51b81526004016200021990620008dd565b6200022c6200069b565b60008054600160a01b900460ff16156200032c5760405162461bcd60e51b815260206004820152601060248201526f14185d5cd8589b194e881c185d5cd95960821b604482015260640162000219565b60003387878787878e8e6040516024016200034f98979695949392919062000962565b60408051601f198184030181529181526020820180516001600160e01b0316630626fb2f60e41b179052519091506000907f0000000000000000000000000000000000000000000000000000000000000000908390620003af9062000726565b620003bc929190620009cd565b604051809103906000f080158015620003d9573d6000803e3d6000fd5b509050876001600160a01b03167ff9c32fbc56ff04f32a233ebc26e388564223745e28abd8d0781dd906537f563e8887846001546040516200043d949392919093845260208401929092526001600160a01b03166040830152606082015260800190565b60405180910390a2604051632142170760e11b81523360048201526001600160a01b038281166024830152604482018990528916906342842e0e90606401600060405180830381600087803b1580156200049657600080fd5b505af1158015620004ab573d6000803e3d6000fd5b505060018054600090815260026020526040812080546001600160a01b0319166001600160a01b03871617905581549350909150620004ea8362000a11565b919050555060018054620004ff919062000a2d565b9a9950505050505050505050565b6000546001600160a01b031633146200053a5760405162461bcd60e51b81526004016200021990620008dd565b6001600160a01b038116620005a15760405162461bcd60e51b815260206004820152602660248201527f4f776e61626c653a206e6577206f776e657220697320746865207a65726f206160448201526564647265737360d01b606482015260840162000219565b600080546040516001600160a01b03808516939216917f8be0079c531659141344cd1fd0a4f28419497f9722a3daafe3b4186f6b6457e091a3600080546001600160a01b0319166001600160a01b0392909216919091179055565b600054600160a01b900460ff166200064e5760405162461bcd60e51b815260206004820152601460248201527314185d5cd8589b194e881b9bdd081c185d5cd95960621b604482015260640162000219565b6000805460ff60a01b191690557f5db9ee0a495bf2e6ff9c91a7834c1ba4fdd244a5e8aa4e537bd38aeae4b073aa335b6040516001600160a01b03909116815260200160405180910390a1565b600054600160a01b900460ff1615620006ea5760405162461bcd60e51b815260206004820152601060248201526f14185d5cd8589b194e881c185d5cd95960821b604482015260640162000219565b6000805460ff60a01b1916600160a01b1790557f62e78cea01bee320cd4e420270b5ea74000d11b0c9f74754ebdbfc544b05a2586200067e3390565b6103398062000a4883390190565b6000602082840312156200074757600080fd5b5035919050565b634e487b7160e01b600052604160045260246000fd5b600082601f8301126200077657600080fd5b813567ffffffffffffffff808211156200079457620007946200074e565b604051601f8301601f19908116603f01168101908282118183101715620007bf57620007bf6200074e565b81604052838152866020858801011115620007d957600080fd5b836020870160208301376000602085830101528094505050505092915050565b80356001600160a01b03811681146200081157600080fd5b919050565b600080600080600080600060e0888a0312156200083257600080fd5b873567ffffffffffffffff808211156200084b57600080fd5b620008598b838c0162000764565b985060208a01359150808211156200087057600080fd5b506200087f8a828b0162000764565b9650506200089060408901620007f9565b969995985095966060810135965060808101359560a0820135955060c0909101359350915050565b600060208284031215620008cb57600080fd5b620008d682620007f9565b9392505050565b6020808252818101527f4f776e61626c653a2063616c6c6572206973206e6f7420746865206f776e6572604082015260600190565b6000815180845260005b818110156200093a576020818501810151868301820152016200091c565b818111156200094d576000602083870101525b50601f01601f19169290920160200192915050565b600061010060018060a01b03808c168452808b166020850152508860408401528760608401528660808401528560a08401528060c0840152620009a88184018662000912565b905082810360e0840152620009be818562000912565b9b9a5050505050505050505050565b6001600160a01b0383168152604060208201819052600090620009f39083018462000912565b949350505050565b634e487b7160e01b600052601160045260246000fd5b60006001820162000a265762000a26620009fb565b5060010190565b60008282101562000a425762000a42620009fb565b50039056fe60a060405234801561001057600080fd5b5060405161033938038061033983398101604081905261002f9161010f565b6001600160a01b038216608081905260405160009182916100519085906101dd565b600060405180830381855af49150503d806000811461008c576040519150601f19603f3d011682016040523d82523d6000602084013e610091565b606091505b50915091508181906100bf5760405162461bcd60e51b81526004016100b691906101f9565b60405180910390fd5b505050505061022c565b634e487b7160e01b600052604160045260246000fd5b60005b838110156100fa5781810151838201526020016100e2565b83811115610109576000848401525b50505050565b6000806040838503121561012257600080fd5b82516001600160a01b038116811461013957600080fd5b60208401519092506001600160401b038082111561015657600080fd5b818501915085601f83011261016a57600080fd5b81518181111561017c5761017c6100c9565b604051601f8201601f19908116603f011681019083821181831017156101a4576101a46100c9565b816040528281528860208487010111156101bd57600080fd5b6101ce8360208301602088016100df565b80955050505050509250929050565b600082516101ef8184602087016100df565b9190910192915050565b60208152600082518060208401526102188160408501602087016100df565b601f01601f19169190910160400192915050565b60805160ef61024a60003960008181602a0152607b015260ef6000f3fe608060405260043610601f5760003560e01c8063d7dfa0dd14606b576025565b36602557005b6040517f00000000000000000000000000000000000000000000000000000000000000009036600082376000803683855af43d806000843e8180156067578184f35b8184fd5b348015607657600080fd5b50609d7f000000000000000000000000000000000000000000000000000000000000000081565b6040516001600160a01b03909116815260200160405180910390f3fea26469706673582212204a840bbb95f30e2db3a288a3b55d1d2303c13ac296be1eaf47d3405ba2b4317f64736f6c634300080d0033a26469706673582212204cfab39cd3be50d9315ca464c8d1ef723810b337390841cc2d1f6090e59b567d64736f6c634300080d003360a06040523480156200001157600080fd5b506040516200333038038062003330833981016040819052620000349162000046565b6001600160a01b031660805262000078565b6000602082840312156200005957600080fd5b81516001600160a01b03811681146200007157600080fd5b9392505050565b608051613241620000ef6000396000818161071e0152818161090301528181610b7901528181610c7401528181610d020152818161104301528181611132015281816112db015281816113ca01528181611537015281816117b401528181611c9b0152818161266701526126ef01526132416000f3fe6080604052600436106102515760003560e01c806380436fe011610139578063be040fb0116100b6578063dd62ed3e1161007a578063dd62ed3e146106b0578063ddca3f43146106f6578063e06174e41461070c578063e66f53b714610740578063efbe1c1c14610760578063fc0c546a1461077557600080fd5b8063be040fb01461063c578063be9a655514610651578063c91de64914610659578063d294f09314610686578063db2e1eed1461069b57600080fd5b80639a4e6d34116100fd5780639a4e6d34146105ba578063a457c2d7146105d0578063a9059cbb146105f0578063adc1b95614610610578063af640d0f1461062657600080fd5b806380436fe014610530578063853a1b90146105505780639012c4a81461057057806395d89b4114610590578063961be391146105a557600080fd5b8063313ce567116101d2578063626fb2f011610196578063626fb2f0146104605780636a775714146104805780636da84e6c146104a057806370a08231146104b65780637b5581ed146104ec5780637fb450991461050257600080fd5b8063313ce567146103b4578063325c25a2146103d057806339509351146103e65780633fc8cef3146104065780635c9920fc1461044657600080fd5b80631998aeef116102195780631998aeef1461033657806323b872dd1461033e5780632a24f46c1461035e5780632a44f120146103745780632bf33bd91461039457600080fd5b806306fdde0314610256578063095ea7b3146102815780630c6a62dd146102b1578063150b7a02146102d357806318160ddd14610317575b600080fd5b34801561026257600080fd5b5061026b610795565b6040516102789190612ccb565b60405180910390f35b34801561028d57600080fd5b506102a161029c366004612d35565b610827565b6040519015158152602001610278565b3480156102bd57600080fd5b506102d16102cc366004612d61565b61083d565b005b3480156102df57600080fd5b506102fe6102ee366004612e11565b630a85bd0160e11b949350505050565b6040516001600160e01b03199091168152602001610278565b34801561032357600080fd5b506035545b604051908152602001610278565b6102d1610892565b34801561034a57600080fd5b506102a1610359366004612e91565b610acd565b34801561036a57600080fd5b5061032860995481565b34801561038057600080fd5b506102d161038f366004612d61565b610b77565b3480156103a057600080fd5b506102d16103af366004612ed2565b610c48565b3480156103c057600080fd5b5060405160128152602001610278565b3480156103dc57600080fd5b50610328609a5481565b3480156103f257600080fd5b506102a1610401366004612d35565b610e10565b34801561041257600080fd5b5061042e73c02aaa39b223fe8d0a0e5c4f27ead9083c756cc281565b6040516001600160a01b039091168152602001610278565b34801561045257600080fd5b5060a1546102a19060ff1681565b34801561046c57600080fd5b506102d161047b366004612f0b565b610e4c565b34801561048c57600080fd5b506102d161049b366004612ed2565b610f3d565b3480156104ac57600080fd5b50610328609c5481565b3480156104c257600080fd5b506103286104d1366004612d61565b6001600160a01b031660009081526033602052604090205490565b3480156104f857600080fd5b50610328609b5481565b34801561050e57600080fd5b50609d5461052390600160a01b900460ff1681565b6040516102789190612fd1565b34801561053c57600080fd5b506102d161054b366004612d61565b611535565b34801561055c57600080fd5b50609d5461042e906001600160a01b031681565b34801561057c57600080fd5b506102d161058b366004612ed2565b611742565b34801561059c57600080fd5b5061026b6118ce565b3480156105b157600080fd5b506102d16118dd565b3480156105c657600080fd5b5061032860a25481565b3480156105dc57600080fd5b506102a16105eb366004612d35565b611a15565b3480156105fc57600080fd5b506102a161060b366004612d35565b611aae565b34801561061c57600080fd5b5061032860a05481565b34801561063257600080fd5b5061032860985481565b34801561064857600080fd5b506102d1611abb565b6102d1611bde565b34801561066557600080fd5b50610328610674366004612d61565b60a36020526000908152604090205481565b34801561069257600080fd5b506102d1611ded565b3480156106a757600080fd5b50610328611df7565b3480156106bc57600080fd5b506103286106cb366004612ff9565b6001600160a01b03918216600090815260346020908152604080832093909416825291909152205490565b34801561070257600080fd5b50610328609f5481565b34801561071857600080fd5b5061042e7f000000000000000000000000000000000000000000000000000000000000000081565b34801561074c57600080fd5b50609e5461042e906001600160a01b031681565b34801561076c57600080fd5b506102d1611e1e565b34801561078157600080fd5b5060975461042e906001600160a01b031681565b6060603680546107a490613032565b80601f01602080910402602001604051908101604052809291908181526020018280546107d090613032565b801561081d5780601f106107f25761010080835404028352916020019161081d565b820191906000526020600020905b81548152906001019060200180831161080057829003601f168201915b5050505050905090565b6000610834338484611f9e565b50600192915050565b609e546001600160a01b031633146108705760405162461bcd60e51b81526004016108679061306c565b60405180910390fd5b609e80546001600160a01b0319166001600160a01b0392909216919091179055565b6001609d54600160a01b900460ff1660038111156108b2576108b2612fbb565b146108ff5760405162461bcd60e51b815260206004820152601760248201527f6269643a61756374696f6e206973206e6f74206c6976650000000000000000006044820152606401610867565b60007f00000000000000000000000000000000000000000000000000000000000000006001600160a01b0316637c513c0f6040518163ffffffff1660e01b81526004016020604051808303816000875af1158015610961573d6000803e3d6000fd5b505050506040513d601f19601f820116820180604052508101906109859190613098565b610991906103e86130c7565b905080609c546109a191906130df565b6109ad346103e86130df565b10156109ed5760405162461bcd60e51b815260206004820152600f60248201526e189a590e9d1bdbc81b1bddc8189a59608a1b6044820152606401610867565b6099544210610a325760405162461bcd60e51b8152602060048201526011602482015270189a590e985d58dd1a5bdb88195b991959607a1b6044820152606401610867565b61038442609954610a4391906130fe565b11610a625761038460996000828254610a5c91906130c7565b90915550505b609d54609c54610a7b916001600160a01b0316906120c2565b34609c819055609d80546001600160a01b03191633908117909155604051918252907fe684a55f31b79eca403df938249029212a5925ec6be8012e099b45bc1019e5d29060200160405180910390a250565b6000610ada8484846121c4565b6001600160a01b038416600090815260346020908152604080832033845290915290205482811015610b5f5760405162461bcd60e51b815260206004820152602860248201527f45524332303a207472616e7366657220616d6f756e74206578636565647320616044820152676c6c6f77616e636560c01b6064820152608401610867565b610b6c8533858403611f9e565b506001949350505050565b7f00000000000000000000000000000000000000000000000000000000000000006001600160a01b0316638da5cb5b6040518163ffffffff1660e01b8152600401602060405180830381865afa158015610bd5573d6000803e3d6000fd5b505050506040513d601f19601f82011682018060405250810190610bf99190613115565b6001600160a01b0316336001600160a01b0316146108705760405162461bcd60e51b815260206004820152600c60248201526b35b4b1b59d3737ba1033b7bb60a11b6044820152606401610867565b609e546001600160a01b03163314610c725760405162461bcd60e51b81526004016108679061306c565b7f00000000000000000000000000000000000000000000000000000000000000006001600160a01b031663a0b335e36040518163ffffffff1660e01b81526004016020604051808303816000875af1158015610cd2573d6000803e3d6000fd5b505050506040513d601f19601f82011682018060405250810190610cf69190613098565b8110158015610d8857507f00000000000000000000000000000000000000000000000000000000000000006001600160a01b0316630e519ef96040518163ffffffff1660e01b81526004016020604051808303816000875af1158015610d60573d6000803e3d6000fd5b505050506040513d601f19601f82011682018060405250810190610d849190613098565b8111155b610dd45760405162461bcd60e51b815260206004820152601d60248201527f7570646174653a696e76616c69642061756374696f6e206c656e6774680000006044820152606401610867565b609a8190556040518181527f4ab86ae701798277aa378943b9dfd155d3b19703cd57be298908fadd32f7bf46906020015b60405180910390a150565b3360008181526034602090815260408083206001600160a01b03871684529091528120549091610834918590610e479086906130c7565b611f9e565b600054610100900460ff1680610e65575060005460ff16155b610e815760405162461bcd60e51b815260040161086790613132565b600054610100900460ff16158015610ea3576000805461ffff19166101011790555b610ead83836123a9565b610eb5612428565b609780546001600160a01b038a81166001600160a01b03199283161790925560988990556203f480609a55609e8054928c169290911682179055609f8590554260a055609d805460ff60a01b19169055600090815260a360205260409020859055610f20898761249c565b8015610f32576000805461ff00191690555b505050505050505050565b6000609d54600160a01b900460ff166003811115610f5d57610f5d612fbb565b14610f7a5760405162461bcd60e51b815260040161086790613180565b33600090815260a36020526040902054808203610fd05760405162461bcd60e51b81526020600482015260146024820152737570646174653a6e6f7420616e2075706461746560601b6044820152606401610867565b3360009081526033602052604081205460a2549091036110015760a2819055610ff983826130df565b609b556114e4565b60a2548114801561101157508115155b1561102057610ff983826130df565b8160000361125b57600060a254609b5461103a91906131c7565b905060006103e87f00000000000000000000000000000000000000000000000000000000000000006001600160a01b03166309990a966040518163ffffffff1660e01b81526004016020604051808303816000875af11580156110a1573d6000803e3d6000fd5b505050506040513d601f19601f820116820180604052508101906110c59190613098565b6110cf90846130df565b6110d991906131c7565b90508085101561112b5760405162461bcd60e51b815260206004820152601c60248201527f7570646174653a7265736572766520707269636520746f6f206c6f77000000006044820152606401610867565b60006103e87f00000000000000000000000000000000000000000000000000000000000000006001600160a01b0316635410bfc96040518163ffffffff1660e01b81526004016020604051808303816000875af1158015611190573d6000803e3d6000fd5b505050506040513d601f19601f820116820180604052508101906111b49190613098565b6111be90856130df565b6111c891906131c7565b90508086111561121a5760405162461bcd60e51b815260206004820152601d60248201527f7570646174653a7265736572766520707269636520746f6f20686967680000006044820152606401610867565b8360a2600082825461122c91906130c7565b9091555061123c905086856130df565b609b600082825461124d91906130c7565b909155506114e49350505050565b826000036112a1578060a2600082825461127591906130fe565b90915550611285905082826130df565b609b600082825461129691906130fe565b909155506114e49050565b60008160a2546112b191906130fe565b6112bb83856130df565b609b546112c891906130fe565b6112d291906131c7565b905060006103e87f00000000000000000000000000000000000000000000000000000000000000006001600160a01b03166309990a966040518163ffffffff1660e01b81526004016020604051808303816000875af1158015611339573d6000803e3d6000fd5b505050506040513d601f19601f8201168201806040525081019061135d9190613098565b61136790846130df565b61137191906131c7565b9050808510156113c35760405162461bcd60e51b815260206004820152601c60248201527f7570646174653a7265736572766520707269636520746f6f206c6f77000000006044820152606401610867565b60006103e87f00000000000000000000000000000000000000000000000000000000000000006001600160a01b0316635410bfc96040518163ffffffff1660e01b81526004016020604051808303816000875af1158015611428573d6000803e3d6000fd5b505050506040513d601f19601f8201168201806040525081019061144c9190613098565b61145690856130df565b61146091906131c7565b9050808611156114b25760405162461bcd60e51b815260206004820152601d60248201527f7570646174653a7265736572766520707269636520746f6f20686967680000006044820152606401610867565b6114bc85856130df565b6114c687866130df565b609b546114d391906130c7565b6114dd91906130fe565b609b555050505b33600081815260a3602052604090819020859055517f64e6e7bd72b853c4e62fd6ceaca05a104700c70a4cb567c75c7f2242ba7f037c906115289086815260200190565b60405180910390a2505050565b7f00000000000000000000000000000000000000000000000000000000000000006001600160a01b0316638da5cb5b6040518163ffffffff1660e01b8152600401602060405180830381865afa158015611593573d6000803e3d6000fd5b505050506040513d601f19601f820116820180604052508101906115b79190613115565b6001600160a01b0316336001600160a01b0316146116085760405162461bcd60e51b815260206004820152600e60248201526d3932b6b7bb329d3737ba1033b7bb60911b6044820152606401610867565b6000609d54600160a01b900460ff16600381111561162857611628612fbb565b146116455760405162461bcd60e51b815260040161086790613180565b6001600160a01b038116600090815260a36020526040812054908190036116a55760405162461bcd60e51b81526020600482015260146024820152737570646174653a6e6f7420616e2075706461746560601b6044820152606401610867565b6001600160a01b03821660009081526033602052604081205490508060a260008282546116d291906130fe565b909155506116e2905082826130df565b609b60008282546116f391906130fe565b90915550506001600160a01b038316600081815260a360209081526040808320839055519182527f64e6e7bd72b853c4e62fd6ceaca05a104700c70a4cb567c75c7f2242ba7f037c9101611528565b609e546001600160a01b0316331461176c5760405162461bcd60e51b81526004016108679061306c565b609f5481106117b25760405162461bcd60e51b81526020600482015260126024820152717570646174653a63616e277420726169736560701b6044820152606401610867565b7f00000000000000000000000000000000000000000000000000000000000000006001600160a01b0316638a364bc16040518163ffffffff1660e01b81526004016020604051808303816000875af1158015611812573d6000803e3d6000fd5b505050506040513d601f19601f820116820180604052508101906118369190613098565b8111156118915760405162461bcd60e51b8152602060048201526024808201527f7570646174653a63616e6e6f7420696e637265617365206665652074686973206044820152630d0d2ced60e31b6064820152608401610867565b61189961258f565b609f8190556040518181527f2d1dae59a9e9ec0bc2ab19d45b7d10c8c55304fa08b40a7998e9f67f03223d0490602001610e05565b6060603780546107a490613032565b6002609d54600160a01b900460ff1660038111156118fd576118fd612fbb565b1461194a5760405162461bcd60e51b815260206004820152601960248201527f636173683a7661756c74206e6f7420636c6f73656420796574000000000000006044820152606401610867565b33600090815260336020526040902054806119a75760405162461bcd60e51b815260206004820152601a60248201527f636173683a6e6f20746f6b656e7320746f2063617368206f75740000000000006044820152606401610867565b60006119b260355490565b6119bc47846130df565b6119c691906131c7565b90506119d23383612869565b6119dc33826120c2565b60405181815233907f730831a1e4aa2d187ddd8e03d7beeac760a3927da5f112d645e0f8df7494b3679060200160405180910390a25050565b3360009081526034602090815260408083206001600160a01b038616845290915281205482811015611a975760405162461bcd60e51b815260206004820152602560248201527f45524332303a2064656372656173656420616c6c6f77616e63652062656c6f77604482015264207a65726f60d81b6064820152608401610867565b611aa43385858403611f9e565b5060019392505050565b60006108343384846121c4565b6000609d54600160a01b900460ff166003811115611adb57611adb612fbb565b14611b1e5760405162461bcd60e51b815260206004820152601360248201527272656465656d3a6e6f2072656465656d696e6760681b6044820152606401610867565b611b3033611b2b60355490565b612869565b6097546098546040516323b872dd60e01b815230600482015233602482015260448101919091526001600160a01b03909116906323b872dd90606401600060405180830381600087803b158015611b8657600080fd5b505af1158015611b9a573d6000803e3d6000fd5b5050609d805460ff60a01b1916600360a01b179055505060405133907fd1b5ea7fe0f1c2fa09d49c2aa9b2200664ba57a734f1d95481d95b7f99af991c90600090a2565b6000609d54600160a01b900460ff166003811115611bfe57611bfe612fbb565b14611c4b5760405162461bcd60e51b815260206004820152601760248201527f73746172743a6e6f2061756374696f6e207374617274730000000000000000006044820152606401610867565b611c53611df7565b341015611c965760405162461bcd60e51b81526020600482015260116024820152701cdd185c9d0e9d1bdbc81b1bddc8189a59607a1b6044820152606401610867565b6035547f00000000000000000000000000000000000000000000000000000000000000006001600160a01b03166332977c736040518163ffffffff1660e01b81526004016020604051808303816000875af1158015611cf9573d6000803e3d6000fd5b505050506040513d601f19601f82011682018060405250810190611d1d9190613098565b611d2791906130df565b60a254611d36906103e86130df565b1015611d845760405162461bcd60e51b815260206004820152601760248201527f73746172743a6e6f7420656e6f75676820766f746572730000000000000000006044820152606401610867565b609a54611d9190426130c7565b609955609d805434609c8190556001600160a81b031990911633908117600160a01b179092556040519081527fcfb9c5312b25ec7b809d61e638df25f749eae5d5c25399e1c93d1d319bfd5821906020015b60405180910390a2565b611df561258f565b565b600060a254600014611e185760a254609b54611e1391906131c7565b905090565b50600090565b6001609d54600160a01b900460ff166003811115611e3e57611e3e612fbb565b14611e8b5760405162461bcd60e51b815260206004820152601c60248201527f656e643a7661756c742068617320616c726561647920636c6f736564000000006044820152606401610867565b609954421015611ed05760405162461bcd60e51b815260206004820152601060248201526f656e643a61756374696f6e206c69766560801b6044820152606401610867565b611ed861258f565b609754609d546098546040516323b872dd60e01b81523060048201526001600160a01b03928316602482015260448101919091529116906323b872dd90606401600060405180830381600087803b158015611f3257600080fd5b505af1158015611f46573d6000803e3d6000fd5b5050609d8054600160a11b60ff60a01b19821617909155609c546040519081526001600160a01b0390911692507f8b01f9dd0400d6a1e84369a5fb8f6033934856ffa8ebadd707dca302ab5516959150602001611de3565b6001600160a01b0383166120005760405162461bcd60e51b8152602060048201526024808201527f45524332303a20617070726f76652066726f6d20746865207a65726f206164646044820152637265737360e01b6064820152608401610867565b6001600160a01b0382166120615760405162461bcd60e51b815260206004820152602260248201527f45524332303a20617070726f766520746f20746865207a65726f206164647265604482015261737360f01b6064820152608401610867565b6001600160a01b0383811660008181526034602090815260408083209487168084529482529182902085905590518481527f8c5be1e5ebec7d5bd14f71427d1e84f3dd0314c0f7b2291e5b200ac8c7c3b925910160405180910390a3505050565b6120cc82826129ca565b6121c05773c02aaa39b223fe8d0a0e5c4f27ead9083c756cc26001600160a01b031663d0e30db0826040518263ffffffff1660e01b81526004016000604051808303818588803b15801561211f57600080fd5b505af1158015612133573d6000803e3d6000fd5b505060405163a9059cbb60e01b81526001600160a01b03861660048201526024810185905273c02aaa39b223fe8d0a0e5c4f27ead9083c756cc2935063a9059cbb925060440190506020604051808303816000875af115801561219a573d6000803e3d6000fd5b505050506040513d601f19601f820116820180604052508101906121be91906131e9565b505b5050565b6001600160a01b0383166122285760405162461bcd60e51b815260206004820152602560248201527f45524332303a207472616e736665722066726f6d20746865207a65726f206164604482015264647265737360d81b6064820152608401610867565b6001600160a01b03821661228a5760405162461bcd60e51b815260206004820152602360248201527f45524332303a207472616e7366657220746f20746865207a65726f206164647260448201526265737360e81b6064820152608401610867565b612295838383612a2d565b6001600160a01b0383166000908152603360205260409020548181101561230d5760405162461bcd60e51b815260206004820152602660248201527f45524332303a207472616e7366657220616d6f756e7420657863656564732062604482015265616c616e636560d01b6064820152608401610867565b6001600160a01b038085166000908152603360205260408082208585039055918516815290812080548492906123449084906130c7565b92505081905550826001600160a01b0316846001600160a01b03167fddf252ad1be2c89b69c2b068fc378daa952ba7f163c4a11628f55a4df523b3ef8460405161239091815260200190565b60405180910390a36123a38484846121be565b50505050565b600054610100900460ff16806123c2575060005460ff16155b6123de5760405162461bcd60e51b815260040161086790613132565b600054610100900460ff16158015612400576000805461ffff19166101011790555b612408612b33565b6124128383612b9d565b80156121be576000805461ff0019169055505050565b600054610100900460ff1680612441575060005460ff16155b61245d5760405162461bcd60e51b815260040161086790613132565b600054610100900460ff1615801561247f576000805461ffff19166101011790555b612487612b33565b8015612499576000805461ff00191690555b50565b6001600160a01b0382166124f25760405162461bcd60e51b815260206004820152601f60248201527f45524332303a206d696e7420746f20746865207a65726f2061646472657373006044820152606401610867565b6124fe60008383612a2d565b806035600082825461251091906130c7565b90915550506001600160a01b0382166000908152603360205260408120805483929061253d9084906130c7565b90915550506040518181526001600160a01b038316906000907fddf252ad1be2c89b69c2b068fc378daa952ba7f163c4a11628f55a4df523b3ef9060200160405180910390a36121c0600083836121be565b6002609d54600160a01b900460ff1660038111156125af576125af612fbb565b0361260a5760405162461bcd60e51b815260206004820152602560248201527f636c61696d3a63616e6e6f7420636c61696d2061667465722061756374696f6e60448201526420656e647360d81b6064820152608401610867565b60006103e861261860355490565b609f5461262591906130df565b61262f91906131c7565b905060006126416301e13380836131c7565b9050600060a0544261265391906130fe565b9050600061266183836130df565b905060007f00000000000000000000000000000000000000000000000000000000000000006001600160a01b031663b3f006746040518163ffffffff1660e01b81526004016020604051808303816000875af11580156126c5573d6000803e3d6000fd5b505050506040513d601f19601f820116820180604052508101906126e99190613115565b905060007f00000000000000000000000000000000000000000000000000000000000000006001600160a01b0316630ea90a126040518163ffffffff1660e01b81526004016020604051808303816000875af115801561274d573d6000803e3d6000fd5b505050506040513d601f19601f820116820180604052508101906127719190613098565b90506103e861277f60355490565b61278990836130df565b61279391906131c7565b95506127a36301e13380876131c7565b945060006127b186866130df565b4260a055609e549091506001600160a01b03161561281357609e546127df906001600160a01b03168561249c565b6040518481527f62b10e3ff3d45b5ff546e740b893897facb1680285f989a64ae932d62c5388e19060200160405180910390a15b6001600160a01b038316156128605761282c838261249c565b6040518181527f62b10e3ff3d45b5ff546e740b893897facb1680285f989a64ae932d62c5388e19060200160405180910390a15b50505050505050565b6001600160a01b0382166128c95760405162461bcd60e51b815260206004820152602160248201527f45524332303a206275726e2066726f6d20746865207a65726f206164647265736044820152607360f81b6064820152608401610867565b6128d582600083612a2d565b6001600160a01b038216600090815260336020526040902054818110156129495760405162461bcd60e51b815260206004820152602260248201527f45524332303a206275726e20616d6f756e7420657863656564732062616c616e604482015261636560f01b6064820152608401610867565b6001600160a01b03831660009081526033602052604081208383039055603580548492906129789084906130fe565b90915550506040518281526000906001600160a01b038516907fddf252ad1be2c89b69c2b068fc378daa952ba7f163c4a11628f55a4df523b3ef9060200160405180910390a36121be836000846121be565b600080836001600160a01b03168361753090604051600060405180830381858888f193505050503d8060008114612a1d576040519150601f19603f3d011682016040523d82523d6000602084013e612a22565b606091505b509095945050505050565b6000609d54600160a01b900460ff166003811115612a4d57612a4d612fbb565b036121be576001600160a01b03808416600090815260a36020526040808220549285168252902054808214612b2c5780600003612ac2578260a26000828254612a9691906130fe565b90915550612aa6905082846130df565b609b6000828254612ab791906130fe565b90915550612b2c9050565b81600003612afd578260a26000828254612adc91906130c7565b90915550612aec905081846130df565b609b6000828254612ab791906130c7565b612b0782846130df565b612b1182856130df565b609b54612b1e91906130c7565b612b2891906130fe565b609b555b5050505050565b600054610100900460ff1680612b4c575060005460ff16155b612b685760405162461bcd60e51b815260040161086790613132565b600054610100900460ff16158015612487576000805461ffff19166101011790558015612499576000805461ff001916905550565b600054610100900460ff1680612bb6575060005460ff16155b612bd25760405162461bcd60e51b815260040161086790613132565b600054610100900460ff16158015612bf4576000805461ffff19166101011790555b8251612c07906036906020860190612c32565b508151612c1b906037906020850190612c32565b5080156121be576000805461ff0019169055505050565b828054612c3e90613032565b90600052602060002090601f016020900481019282612c605760008555612ca6565b82601f10612c7957805160ff1916838001178555612ca6565b82800160010185558215612ca6579182015b82811115612ca6578251825591602001919060010190612c8b565b50612cb2929150612cb6565b5090565b5b80821115612cb25760008155600101612cb7565b600060208083528351808285015260005b81811015612cf857858101830151858201604001528201612cdc565b81811115612d0a576000604083870101525b50601f01601f1916929092016040019392505050565b6001600160a01b038116811461249957600080fd5b60008060408385031215612d4857600080fd5b8235612d5381612d20565b946020939093013593505050565b600060208284031215612d7357600080fd5b8135612d7e81612d20565b9392505050565b634e487b7160e01b600052604160045260246000fd5b600067ffffffffffffffff80841115612db657612db6612d85565b604051601f8501601f19908116603f01168101908282118183101715612dde57612dde612d85565b81604052809350858152868686011115612df757600080fd5b858560208301376000602087830101525050509392505050565b60008060008060808587031215612e2757600080fd5b8435612e3281612d20565b93506020850135612e4281612d20565b925060408501359150606085013567ffffffffffffffff811115612e6557600080fd5b8501601f81018713612e7657600080fd5b612e8587823560208401612d9b565b91505092959194509250565b600080600060608486031215612ea657600080fd5b8335612eb181612d20565b92506020840135612ec181612d20565b929592945050506040919091013590565b600060208284031215612ee457600080fd5b5035919050565b600082601f830112612efc57600080fd5b612d7e83833560208501612d9b565b600080600080600080600080610100898b031215612f2857600080fd5b8835612f3381612d20565b97506020890135612f4381612d20565b965060408901359550606089013594506080890135935060a0890135925060c089013567ffffffffffffffff80821115612f7c57600080fd5b612f888c838d01612eeb565b935060e08b0135915080821115612f9e57600080fd5b50612fab8b828c01612eeb565b9150509295985092959890939650565b634e487b7160e01b600052602160045260246000fd5b6020810160048310612ff357634e487b7160e01b600052602160045260246000fd5b91905290565b6000806040838503121561300c57600080fd5b823561301781612d20565b9150602083013561302781612d20565b809150509250929050565b600181811c9082168061304657607f821691505b60208210810361306657634e487b7160e01b600052602260045260246000fd5b50919050565b6020808252601290820152713ab83230ba329d3737ba1031bab930ba37b960711b604082015260600190565b6000602082840312156130aa57600080fd5b5051919050565b634e487b7160e01b600052601160045260246000fd5b600082198211156130da576130da6130b1565b500190565b60008160001904831182151516156130f9576130f96130b1565b500290565b600082821015613110576131106130b1565b500390565b60006020828403121561312757600080fd5b8151612d7e81612d20565b6020808252602e908201527f496e697469616c697a61626c653a20636f6e747261637420697320616c72656160408201526d191e481a5b9a5d1a585b1a5e995960921b606082015260800190565b60208082526027908201527f7570646174653a61756374696f6e206c6976652063616e6e6f742075706461746040820152666520707269636560c81b606082015260800190565b6000826131e457634e487b7160e01b600052601260045260246000fd5b500490565b6000602082840312156131fb57600080fd5b81518015158114612d7e57600080fdfea2646970667358221220d79fdcfbec5366b8da582aadc2b988fd40c33dbce44e048f7fb657089b398ebf64736f6c634300080d0033","bytecodeSha1":"ba60e9caea281d8f1fc0391f7716333f5d128cef","compiler":{"evm_version":"istanbul","optimizer":{"enabled":true,"runs":200},"version":"0.8.13+commit.abaa5c0e"},"contractName":"ERC721VaultFactory","language":"Solidity","natspec":{"kind":"dev","methods":{"logic()":{"notice":"the TokenVault logic contract"},"mint(string,string,address,uint256,uint256,uint256,uint256)":{"notice":"the function to mint a new vault","params":{"_id":"the uint256 ID of the token","_listPrice":"the initial price of the NFT","_name":"the desired name of the vault","_symbol":"the desired sumbol of the vault","_token":"the ERC721 token address fo the NFT"},"returns":{"_0":"the ID of the vault"}},"owner()":{"details":"Returns the address of the current owner."},"paused()":{"details":"Returns true if the contract is paused, and false otherwise."},"renounceOwnership()":{"details":"Leaves the contract without owner. It will not be possible to call `onlyOwner` functions anymore. Can only be called by the current owner. NOTE: Renouncing ownership will leave the contract without an owner, thereby removing any functionality that is only available to the owner."},"settings()":{"notice":"a settings contract controlled by governance"},"transferOwnership(address)":{"details":"Transfers ownership of the contract to a new account (`newOwner`). Can only be called by the current owner."},"vaultCount()":{"notice":"the number of ERC721 vaults"},"vaults(uint256)":{"notice":"the mapping of vault number to vault contract"}},"version":1},"opcodes":"PUSH1 0x80 PUSH1 0x40 MSTORE CALLVALUE DUP1 ISZERO PUSH3 0x11 JUMPI PUSH1 0x0 DUP1 REVERT JUMPDEST POP PUSH1 0x4 CALLDATASIZE LT PUSH3 0xB7 JUMPI PUSH1 0x0 CALLDATALOAD PUSH1 0xE0 SHR DUP1 PUSH4 0x8DA5CB5B GT PUSH3 0x7A JUMPI DUP1 PUSH4 0x8DA5CB5B EQ PUSH3 0x143 JUMPI DUP1 PUSH4 0xA7C6A100 EQ PUSH3 0x155 JUMPI DUP1 PUSH4 0xBDC01110 EQ PUSH3 0x16E JUMPI DUP1 PUSH4 0xD7DFA0DD EQ PUSH3 0x185 JUMPI DUP1 PUSH4 0xE06174E4 EQ PUSH3 0x1AD JUMPI DUP1 PUSH4 0xF2FDE38B EQ PUSH3 0x1D5 JUMPI PUSH1 0x0 DUP1 REVERT JUMPDEST DUP1 PUSH4 0x3F4BA83A EQ PUSH3 0xBC JUMPI DUP1 PUSH4 0x5C975ABB EQ PUSH3 0xC8 JUMPI DUP1 PUSH4 0x715018A6 EQ PUSH3 0xEA JUMPI DUP1 PUSH4 0x8456CB59 EQ PUSH3 0xF4 JUMPI DUP1 PUSH4 0x8C64EA4A EQ PUSH3 0xFE JUMPI JUMPDEST PUSH1 0x0 DUP1 REVERT JUMPDEST PUSH3 0xC6 PUSH3 0x1EC JUMP JUMPDEST STOP JUMPDEST PUSH1 0x0 SLOAD PUSH1 0x1 PUSH1 0xA0 SHL SWAP1 DIV PUSH1 0xFF AND PUSH1 0x40 MLOAD SWAP1 ISZERO ISZERO DUP2 MSTORE PUSH1 0x20 ADD JUMPDEST PUSH1 0x40 MLOAD DUP1 SWAP2 SUB SWAP1 RETURN JUMPDEST PUSH3 0xC6 PUSH3 0x22E JUMP JUMPDEST PUSH3 0xC6 PUSH3 0x2A5 JUMP JUMPDEST PUSH3 0x12A PUSH3 0x10F CALLDATASIZE PUSH1 0x4 PUSH3 0x734 JUMP JUMPDEST PUSH1 0x2 PUSH1 0x20 MSTORE PUSH1 0x0 SWAP1 DUP2 MSTORE PUSH1 0x40 SWAP1 KECCAK256 SLOAD PUSH1 0x1 PUSH1 0x1 PUSH1 0xA0 SHL SUB AND DUP2 JUMP JUMPDEST PUSH1 0x40 MLOAD PUSH1 0x1 PUSH1 0x1 PUSH1 0xA0 SHL SUB SWAP1 SWAP2 AND DUP2 MSTORE PUSH1 0x20 ADD PUSH3 0xE1 JUMP JUMPDEST PUSH1 0x0 SLOAD PUSH1 0x1 PUSH1 0x1 PUSH1 0xA0 SHL SUB AND PUSH3 0x12A JUMP JUMPDEST PUSH3 0x15F PUSH1 0x1 SLOAD DUP2 JUMP JUMPDEST PUSH1 0x40 MLOAD SWAP1 DUP2 MSTORE PUSH1 0x20 ADD PUSH3 0xE1 JUMP JUMPDEST PUSH3 0x15F PUSH3 0x17F CALLDATASIZE PUSH1 0x4 PUSH3 0x816 JUMP JUMPDEST PUSH3 0x2DC JUMP JUMPDEST PUSH3 0x12A PUSH32 0x0 DUP2 JUMP JUMPDEST PUSH3 0x12A PUSH32 0x0 DUP2 JUMP JUMPDEST PUSH3 0xC6 PUSH3 0x1E6 CALLDATASIZE PUSH1 0x4 PUSH3 0x8B8 JUMP JUMPDEST PUSH3 0x50D JUMP JUMPDEST PUSH1 0x0 SLOAD PUSH1 0x1 PUSH1 0x1 PUSH1 0xA0 SHL SUB AND CALLER EQ PUSH3 0x222 JUMPI PUSH1 0x40 MLOAD PUSH3 0x461BCD PUSH1 0xE5 SHL DUP2 MSTORE PUSH1 0x4 ADD PUSH3 0x219 SWAP1 PUSH3 0x8DD JUMP JUMPDEST PUSH1 0x40 MLOAD DUP1 SWAP2 SUB SWAP1 REVERT JUMPDEST PUSH3 0x22C PUSH3 0x5FC JUMP JUMPDEST JUMP JUMPDEST PUSH1 0x0 SLOAD PUSH1 0x1 PUSH1 0x1 PUSH1 0xA0 SHL SUB AND CALLER EQ PUSH3 0x25B JUMPI PUSH1 0x40 MLOAD PUSH3 0x461BCD PUSH1 0xE5 SHL DUP2 MSTORE PUSH1 0x4 ADD PUSH3 0x219 SWAP1 PUSH3 0x8DD JUMP JUMPDEST PUSH1 0x0 DUP1 SLOAD PUSH1 0x40 MLOAD PUSH1 0x1 PUSH1 0x1 PUSH1 0xA0 SHL SUB SWAP1 SWAP2 AND SWAP1 PUSH32 0x8BE0079C531659141344CD1FD0A4F28419497F9722A3DAAFE3B4186F6B6457E0 SWAP1 DUP4 SWAP1 LOG3 PUSH1 0x0 DUP1 SLOAD PUSH1 0x1 PUSH1 0x1 PUSH1 0xA0 SHL SUB NOT AND SWAP1 SSTORE JUMP JUMPDEST PUSH1 0x0 SLOAD PUSH1 0x1 PUSH1 0x1 PUSH1 0xA0 SHL SUB AND CALLER EQ PUSH3 0x2D2 JUMPI PUSH1 0x40 MLOAD PUSH3 0x461BCD PUSH1 0xE5 SHL DUP2 MSTORE PUSH1 0x4 ADD PUSH3 0x219 SWAP1 PUSH3 0x8DD JUMP JUMPDEST PUSH3 0x22C PUSH3 0x69B JUMP JUMPDEST PUSH1 0x0 DUP1 SLOAD PUSH1 0x1 PUSH1 0xA0 SHL SWAP1 DIV PUSH1 0xFF AND ISZERO PUSH3 0x32C JUMPI PUSH1 0x40 MLOAD PUSH3 0x461BCD PUSH1 0xE5 SHL DUP2 MSTORE PUSH1 0x20 PUSH1 0x4 DUP3 ADD MSTORE PUSH1 0x10 PUSH1 0x24 DUP3 ADD MSTORE PUSH16 0x14185D5CD8589B194E881C185D5CD959 PUSH1 0x82 SHL PUSH1 0x44 DUP3 ADD MSTORE PUSH1 0x64 ADD PUSH3 0x219 JUMP JUMPDEST PUSH1 0x0 CALLER DUP8 DUP8 DUP8 DUP8 DUP8 DUP15 DUP15 PUSH1 0x40 MLOAD PUSH1 0x24 ADD PUSH3 0x34F SWAP9 SWAP8 SWAP7 SWAP6 SWAP5 SWAP4 SWAP3 SWAP2 SWAP1 PUSH3 0x962 JUMP JUMPDEST PUSH1 0x40 DUP1 MLOAD PUSH1 0x1F NOT DUP2 DUP5 SUB ADD DUP2 MSTORE SWAP2 DUP2 MSTORE PUSH1 0x20 DUP3 ADD DUP1 MLOAD PUSH1 0x1 PUSH1 0x1 PUSH1 0xE0 SHL SUB AND PUSH4 0x626FB2F PUSH1 0xE4 SHL OR SWAP1 MSTORE MLOAD SWAP1 SWAP2 POP PUSH1 0x0 SWAP1 PUSH32 0x0 SWAP1 DUP4 SWAP1 PUSH3 0x3AF SWAP1 PUSH3 0x726 JUMP JUMPDEST PUSH3 0x3BC SWAP3 SWAP2 SWAP1 PUSH3 0x9CD JUMP JUMPDEST PUSH1 0x40 MLOAD DUP1 SWAP2 SUB SWAP1 PUSH1 0x0 CREATE DUP1 ISZERO DUP1 ISZERO PUSH3 0x3D9 JUMPI RETURNDATASIZE PUSH1 0x0 DUP1 RETURNDATACOPY RETURNDATASIZE PUSH1 0x0 REVERT JUMPDEST POP SWAP1 POP DUP8 PUSH1 0x1 PUSH1 0x1 PUSH1 0xA0 SHL SUB AND PUSH32 0xF9C32FBC56FF04F32A233EBC26E388564223745E28ABD8D0781DD906537F563E DUP9 DUP8 DUP5 PUSH1 0x1 SLOAD PUSH1 0x40 MLOAD PUSH3 0x43D SWAP5 SWAP4 SWAP3 SWAP2 SWAP1 SWAP4 DUP5 MSTORE PUSH1 0x20 DUP5 ADD SWAP3 SWAP1 SWAP3 MSTORE PUSH1 0x1 PUSH1 0x1 PUSH1 0xA0 SHL SUB AND PUSH1 0x40 DUP4 ADD MSTORE PUSH1 0x60 DUP3 ADD MSTORE PUSH1 0x80 ADD SWAP1 JUMP JUMPDEST PUSH1 0x40 MLOAD DUP1 SWAP2 SUB SWAP1 LOG2 PUSH1 0x40 MLOAD PUSH4 0x21421707 PUSH1 0xE1 SHL DUP2 MSTORE CALLER PUSH1 0x4 DUP3 ADD MSTORE PUSH1 0x1 PUSH1 0x1 PUSH1 0xA0 SHL SUB DUP3 DUP2 AND PUSH1 0x24 DUP4 ADD MSTORE PUSH1 0x44 DUP3 ADD DUP10 SWAP1 MSTORE DUP10 AND SWAP1 PUSH4 0x42842E0E SWAP1 PUSH1 0x64 ADD PUSH1 0x0 PUSH1 0x40 MLOAD DUP1 DUP4 SUB DUP2 PUSH1 0x0 DUP8 DUP1 EXTCODESIZE ISZERO DUP1 ISZERO PUSH3 0x496 JUMPI PUSH1 0x0 DUP1 REVERT JUMPDEST POP GAS CALL ISZERO DUP1 ISZERO PUSH3 0x4AB JUMPI RETURNDATASIZE PUSH1 0x0 DUP1 RETURNDATACOPY RETURNDATASIZE PUSH1 0x0 REVERT JUMPDEST POP POP PUSH1 0x1 DUP1 SLOAD PUSH1 0x0 SWAP1 DUP2 MSTORE PUSH1 0x2 PUSH1 0x20 MSTORE PUSH1 0x40 DUP2 KECCAK256 DUP1 SLOAD PUSH1 0x1 PUSH1 0x1 PUSH1 0xA0 SHL SUB NOT AND PUSH1 0x1 PUSH1 0x1 PUSH1 0xA0 SHL SUB DUP8 AND OR SWAP1 SSTORE DUP2 SLOAD SWAP4 POP SWAP1 SWAP2 POP PUSH3 0x4EA DUP4 PUSH3 0xA11 JUMP JUMPDEST SWAP2 SWAP1 POP SSTORE POP PUSH1 0x1 DUP1 SLOAD PUSH3 0x4FF SWAP2 SWAP1 PUSH3 0xA2D JUMP JUMPDEST SWAP11 SWAP10 POP POP POP POP POP POP POP POP POP POP JUMP JUMPDEST PUSH1 0x0 SLOAD PUSH1 0x1 PUSH1 0x1 PUSH1 0xA0 SHL SUB AND CALLER EQ PUSH3 0x53A JUMPI PUSH1 0x40 MLOAD PUSH3 0x461BCD PUSH1 0xE5 SHL DUP2 MSTORE PUSH1 0x4 ADD PUSH3 0x219 SWAP1 PUSH3 0x8DD JUMP JUMPDEST PUSH1 0x1 PUSH1 0x1 PUSH1 0xA0 SHL SUB DUP2 AND PUSH3 0x5A1 JUMPI PUSH1 0x40 MLOAD PUSH3 0x461BCD PUSH1 0xE5 SHL DUP2 MSTORE PUSH1 0x20 PUSH1 0x4 DUP3 ADD MSTORE PUSH1 0x26 PUSH1 0x24 DUP3 ADD MSTORE PUSH32 0x4F776E61626C653A206E6577206F776E657220697320746865207A65726F2061 PUSH1 0x44 DUP3 ADD MSTORE PUSH6 0x646472657373 PUSH1 0xD0 SHL PUSH1 0x64 DUP3 ADD MSTORE PUSH1 0x84 ADD PUSH3 0x219 JUMP JUMPDEST PUSH1 0x0 DUP1 SLOAD PUSH1 0x40 MLOAD PUSH1 0x1 PUSH1 0x1 PUSH1 0xA0 SHL SUB DUP1 DUP6 AND SWAP4 SWAP3 AND SWAP2 PUSH32 0x8BE0079C531659141344CD1FD0A4F28419497F9722A3DAAFE3B4186F6B6457E0 SWAP2 LOG3 PUSH1 0x0 DUP1 SLOAD PUSH1 0x1 PUSH1 0x1 PUSH1 0xA0 SHL SUB NOT AND PUSH1 0x1 PUSH1 0x1 PUSH1 0xA0 SHL SUB SWAP3 SWAP1 SWAP3 AND SWAP2 SWAP1 SWAP2 OR SWAP1 SSTORE JUMP JUMPDEST PUSH1 0x0 SLOAD PUSH1 0x1 PUSH1 0xA0 SHL SWAP1 DIV PUSH1 0xFF AND PUSH3 0x64E JUMPI PUSH1 0x40 MLOAD PUSH3 0x461BCD PUSH1 0xE5 SHL DUP2 MSTORE PUSH1 0x20 PUSH1 0x4 DUP3 ADD MSTORE PUSH1 0x14 PUSH1 0x24 DUP3 ADD MSTORE PUSH20 0x14185D5CD8589B194E881B9BDD081C185D5CD959 PUSH1 0x62 SHL PUSH1 0x44 DUP3 ADD MSTORE PUSH1 0x64 ADD PUSH3 0x219 JUMP JUMPDEST PUSH1 0x0 DUP1 SLOAD PUSH1 0xFF PUSH1 0xA0 SHL NOT AND SWAP1 SSTORE PUSH32 0x5DB9EE0A495BF2E6FF9C91A7834C1BA4FDD244A5E8AA4E537BD38AEAE4B073AA CALLER JUMPDEST PUSH1 0x40 MLOAD PUSH1 0x1 PUSH1 0x1 PUSH1 0xA0 SHL SUB SWAP1 SWAP2 AND DUP2 MSTORE PUSH1 0x20 ADD PUSH1 0x40 MLOAD DUP1 SWAP2 SUB SWAP1 LOG1 JUMP JUMPDEST PUSH1 0x0 SLOAD PUSH1 0x1 PUSH1 0xA0 SHL SWAP1 DIV PUSH1 0xFF AND ISZERO PUSH3 0x6EA JUMPI PUSH1 0x40 MLOAD PUSH3 0x461BCD PUSH1 0xE5 SHL DUP2 MSTORE PUSH1 0x20 PUSH1 0x4 DUP3 ADD MSTORE PUSH1 0x10 PUSH1 0x24 DUP3 ADD MSTORE PUSH16 0x14185D5CD8589B194E881C185D5CD959 PUSH1 0x82 SHL PUSH1 0x44 DUP3 ADD MSTORE PUSH1 0x64 ADD PUSH3 0x219 JUMP JUMPDEST PUSH1 0x0 DUP1 SLOAD PUSH1 0xFF PUSH1 0xA0 SHL NOT AND PUSH1 0x1 PUSH1 0xA0 SHL OR SWAP1 SSTORE PUSH32 0x62E78CEA01BEE320CD4E420270B5EA74000D11B0C9F74754EBDBFC544B05A258 PUSH3 0x67E CALLER SWAP1 JUMP JUMPDEST PUSH2 0x339 DUP1 PUSH3 0xA48 DUP4 CODECOPY ADD SWAP1 JUMP JUMPDEST PUSH1 0x0 PUSH1 0x20 DUP3 DUP5 SUB SLT ISZERO PUSH3 0x747 JUMPI PUSH1 0x0 DUP1 REVERT JUMPDEST POP CALLDATALOAD SWAP2 SWAP1 POP JUMP JUMPDEST PUSH4 0x4E487B71 PUSH1 0xE0 SHL PUSH1 0x0 MSTORE PUSH1 0x41 PUSH1 0x4 MSTORE PUSH1 0x24 PUSH1 0x0 REVERT JUMPDEST PUSH1 0x0 DUP3 PUSH1 0x1F DUP4 ADD SLT PUSH3 0x776 JUMPI PUSH1 0x0 DUP1 REVERT JUMPDEST DUP2 CALLDATALOAD PUSH8 0xFFFFFFFFFFFFFFFF DUP1 DUP3 GT ISZERO PUSH3 0x794 JUMPI PUSH3 0x794 PUSH3 0x74E JUMP JUMPDEST PUSH1 0x40 MLOAD PUSH1 0x1F DUP4 ADD PUSH1 0x1F NOT SWAP1 DUP2 AND PUSH1 0x3F ADD AND DUP2 ADD SWAP1 DUP3 DUP3 GT DUP2 DUP4 LT OR ISZERO PUSH3 0x7BF JUMPI PUSH3 0x7BF PUSH3 0x74E JUMP JUMPDEST DUP2 PUSH1 0x40 MSTORE DUP4 DUP2 MSTORE DUP7 PUSH1 0x20 DUP6 DUP9 ADD ADD GT ISZERO PUSH3 0x7D9 JUMPI PUSH1 0x0 DUP1 REVERT JUMPDEST DUP4 PUSH1 0x20 DUP8 ADD PUSH1 0x20 DUP4 ADD CALLDATACOPY PUSH1 0x0 PUSH1 0x20 DUP6 DUP4 ADD ADD MSTORE DUP1 SWAP5 POP POP POP POP POP SWAP3 SWAP2 POP POP JUMP JUMPDEST DUP1 CALLDATALOAD PUSH1 0x1 PUSH1 0x1 PUSH1 0xA0 SHL SUB DUP2 AND DUP2 EQ PUSH3 0x811 JUMPI PUSH1 0x0 DUP1 REVERT JUMPDEST SWAP2 SWAP1 POP JUMP JUMPDEST PUSH1 0x0 DUP1 PUSH1 0x0 DUP1 PUSH1 0x0 DUP1 PUSH1 0x0 PUSH1 0xE0 DUP9 DUP11 SUB SLT ISZERO PUSH3 0x832 JUMPI PUSH1 0x0 DUP1 REVERT JUMPDEST DUP8 CALLDATALOAD PUSH8 0xFFFFFFFFFFFFFFFF DUP1 DUP3 GT ISZERO PUSH3 0x84B JUMPI PUSH1 0x0 DUP1 REVERT JUMPDEST PUSH3 0x859 DUP12 DUP4 DUP13 ADD PUSH3 0x764 JUMP JUMPDEST SWAP9 POP PUSH1 0x20 DUP11 ADD CALLDATALOAD SWAP2 POP DUP1 DUP3 GT ISZERO PUSH3 0x870 JUMPI PUSH1 0x0 DUP1 REVERT JUMPDEST POP PUSH3 0x87F DUP11 DUP3 DUP12 ADD PUSH3 0x764 JUMP JUMPDEST SWAP7 POP POP PUSH3 0x890 PUSH1 0x40 DUP10 ADD PUSH3 0x7F9 JUMP JUMPDEST SWAP7 SWAP10 SWAP6 SWAP9 POP SWAP6 SWAP7 PUSH1 0x60 DUP2 ADD CALLDATALOAD SWAP7 POP PUSH1 0x80 DUP2 ADD CALLDATALOAD SWAP6 PUSH1 0xA0 DUP3 ADD CALLDATALOAD SWAP6 POP PUSH1 0xC0 SWAP1 SWAP2 ADD CALLDATALOAD SWAP4 POP SWAP2 POP POP JUMP JUMPDEST PUSH1 0x0 PUSH1 0x20 DUP3 DUP5 SUB SLT ISZERO PUSH3 0x8CB JUMPI PUSH1 0x0 DUP1 REVERT JUMPDEST PUSH3 0x8D6 DUP3 PUSH3 0x7F9 JUMP JUMPDEST SWAP4 SWAP3 POP POP POP JUMP JUMPDEST PUSH1 0x20 DUP1 DUP3 MSTORE DUP2 DUP2 ADD MSTORE PUSH32 0x4F776E61626C653A2063616C6C6572206973206E6F7420746865206F776E6572 PUSH1 0x40 DUP3 ADD MSTORE PUSH1 0x60 ADD SWAP1 JUMP JUMPDEST PUSH1 0x0 DUP2 MLOAD DUP1 DUP5 MSTORE PUSH1 0x0 JUMPDEST DUP2 DUP2 LT ISZERO PUSH3 0x93A JUMPI PUSH1 0x20 DUP2 DUP6 ADD DUP2 ADD MLOAD DUP7 DUP4 ADD DUP3 ADD MSTORE ADD PUSH3 0x91C JUMP JUMPDEST DUP2 DUP2 GT ISZERO PUSH3 0x94D JUMPI PUSH1 0x0 PUSH1 0x20 DUP4 DUP8 ADD ADD MSTORE JUMPDEST POP PUSH1 0x1F ADD PUSH1 0x1F NOT AND SWAP3 SWAP1 SWAP3 ADD PUSH1 0x20 ADD SWAP3 SWAP2 POP POP JUMP JUMPDEST PUSH1 0x0 PUSH2 0x100 PUSH1 0x1 DUP1 PUSH1 0xA0 SHL SUB DUP1 DUP13 AND DUP5 MSTORE DUP1 DUP12 AND PUSH1 0x20 DUP6 ADD MSTORE POP DUP9 PUSH1 0x40 DUP5 ADD MSTORE DUP8 PUSH1 0x60 DUP5 ADD MSTORE DUP7 PUSH1 0x80 DUP5 ADD MSTORE DUP6 PUSH1 0xA0 DUP5 ADD MSTORE DUP1 PUSH1 0xC0 DUP5 ADD MSTORE PUSH3 0x9A8 DUP2 DUP5 ADD DUP7 PUSH3 0x912 JUMP JUMPDEST SWAP1 POP DUP3 DUP2 SUB PUSH1 0xE0 DUP5 ADD MSTORE PUSH3 0x9BE DUP2 DUP6 PUSH3 0x912 JUMP JUMPDEST SWAP12 SWAP11 POP POP POP POP POP POP POP POP POP POP POP JUMP JUMPDEST PUSH1 0x1 PUSH1 0x1 PUSH1 0xA0 SHL SUB DUP4 AND DUP2 MSTORE PUSH1 0x40 PUSH1 0x20 DUP3 ADD DUP2 SWAP1 MSTORE PUSH1 0x0 SWAP1 PUSH3 0x9F3 SWAP1 DUP4 ADD DUP5 PUSH3 0x912 JUMP JUMPDEST SWAP5 SWAP4 POP POP POP POP JUMP JUMPDEST PUSH4 0x4E487B71 PUSH1 0xE0 SHL PUSH1 0x0 MSTORE PUSH1 0x11 PUSH1 0x4 MSTORE PUSH1 0x24 PUSH1 0x0 REVERT JUMPDEST PUSH1 0x0 PUSH1 0x1 DUP3 ADD PUSH3 0xA26 JUMPI PUSH3 0xA26 PUSH3 0x9FB JUMP JUMPDEST POP PUSH1 0x1 ADD SWAP1 JUMP JUMPDEST PUSH1 0x0 DUP3 DUP3 LT ISZERO PUSH3 0xA42 JUMPI PUSH3 0xA42 PUSH3 0x9FB JUMP JUMPDEST POP SUB SWAP1 JUMP INVALID PUSH1 0xA0 PUSH1 0x40 MSTORE CALLVALUE DUP1 ISZERO PUSH2 0x10 JUMPI PUSH1 0x0 DUP1 REVERT JUMPDEST POP PUSH1 0x40 MLOAD PUSH2 0x339 CODESIZE SUB DUP1 PUSH2 0x339 DUP4 CODECOPY DUP2 ADD PUSH1 0x40 DUP2 SWAP1 MSTORE PUSH2 0x2F SWAP2 PUSH2 0x10F JUMP JUMPDEST PUSH1 0x1 PUSH1 0x1 PUSH1 0xA0 SHL SUB DUP3 AND PUSH1 0x80 DUP2 SWAP1 MSTORE PUSH1 0x40 MLOAD PUSH1 0x0 SWAP2 DUP3 SWAP2 PUSH2 0x51 SWAP1 DUP6 SWAP1 PUSH2 0x1DD JUMP JUMPDEST PUSH1 0x0 PUSH1 0x40 MLOAD DUP1 DUP4 SUB DUP2 DUP6 GAS DELEGATECALL SWAP2 POP POP RETURNDATASIZE DUP1 PUSH1 0x0 DUP2 EQ PUSH2 0x8C JUMPI PUSH1 0x40 MLOAD SWAP2 POP PUSH1 0x1F NOT PUSH1 0x3F RETURNDATASIZE ADD AND DUP3 ADD PUSH1 0x40 MSTORE RETURNDATASIZE DUP3 MSTORE RETURNDATASIZE PUSH1 0x0 PUSH1 0x20 DUP5 ADD RETURNDATACOPY PUSH2 0x91 JUMP JUMPDEST PUSH1 0x60 SWAP2 POP JUMPDEST POP SWAP2 POP SWAP2 POP DUP2 DUP2 SWAP1 PUSH2 0xBF JUMPI PUSH1 0x40 MLOAD PUSH3 0x461BCD PUSH1 0xE5 SHL DUP2 MSTORE PUSH1 0x4 ADD PUSH2 0xB6 SWAP2 SWAP1 PUSH2 0x1F9 JUMP JUMPDEST PUSH1 0x40 MLOAD DUP1 SWAP2 SUB SWAP1 REVERT JUMPDEST POP POP POP POP POP PUSH2 0x22C JUMP JUMPDEST PUSH4 0x4E487B71 PUSH1 0xE0 SHL PUSH1 0x0 MSTORE PUSH1 0x41 PUSH1 0x4 MSTORE PUSH1 0x24 PUSH1 0x0 REVERT JUMPDEST PUSH1 0x0 JUMPDEST DUP4 DUP2 LT ISZERO PUSH2 0xFA JUMPI DUP2 DUP2 ADD MLOAD DUP4 DUP3 ADD MSTORE PUSH1 0x20 ADD PUSH2 0xE2 JUMP JUMPDEST DUP4 DUP2 GT ISZERO PUSH2 0x109 JUMPI PUSH1 0x0 DUP5 DUP5 ADD MSTORE JUMPDEST POP POP POP POP JUMP JUMPDEST PUSH1 0x0 DUP1 PUSH1 0x40 DUP4 DUP6 SUB SLT ISZERO PUSH2 0x122 JUMPI PUSH1 0x0 DUP1 REVERT JUMPDEST DUP3 MLOAD PUSH1 0x1 PUSH1 0x1 PUSH1 0xA0 SHL SUB DUP2 AND DUP2 EQ PUSH2 0x139 JUMPI PUSH1 0x0 DUP1 REVERT JUMPDEST PUSH1 0x20 DUP5 ADD MLOAD SWAP1 SWAP3 POP PUSH1 0x1 PUSH1 0x1 PUSH1 0x40 SHL SUB DUP1 DUP3 GT ISZERO PUSH2 0x156 JUMPI PUSH1 0x0 DUP1 REVERT JUMPDEST DUP2 DUP6 ADD SWAP2 POP DUP6 PUSH1 0x1F DUP4 ADD SLT PUSH2 0x16A JUMPI PUSH1 0x0 DUP1 REVERT JUMPDEST DUP2 MLOAD DUP2 DUP2 GT ISZERO PUSH2 0x17C JUMPI PUSH2 0x17C PUSH2 0xC9 JUMP JUMPDEST PUSH1 0x40 MLOAD PUSH1 0x1F DUP3 ADD PUSH1 0x1F NOT SWAP1 DUP2 AND PUSH1 0x3F ADD AND DUP2 ADD SWAP1 DUP4 DUP3 GT DUP2 DUP4 LT OR ISZERO PUSH2 0x1A4 JUMPI PUSH2 0x1A4 PUSH2 0xC9 JUMP JUMPDEST DUP2 PUSH1 0x40 MSTORE DUP3 DUP2 MSTORE DUP9 PUSH1 0x20 DUP5 DUP8 ADD ADD GT ISZERO PUSH2 0x1BD JUMPI PUSH1 0x0 DUP1 REVERT JUMPDEST PUSH2 0x1CE DUP4 PUSH1 0x20 DUP4 ADD PUSH1 0x20 DUP9 ADD PUSH2 0xDF JUMP JUMPDEST DUP1 SWAP6 POP POP POP POP POP POP SWAP3 POP SWAP3 SWAP1 POP JUMP JUMPDEST PUSH1 0x0 DUP3 MLOAD PUSH2 0x1EF DUP2 DUP5 PUSH1 0x20 DUP8 ADD PUSH2 0xDF JUMP JUMPDEST SWAP2 SWAP1 SWAP2 ADD SWAP3 SWAP2 POP POP JUMP JUMPDEST PUSH1 0x20 DUP2 MSTORE PUSH1 0x0 DUP3 MLOAD DUP1 PUSH1 0x20 DUP5 ADD MSTORE PUSH2 0x218 DUP2 PUSH1 0x40 DUP6 ADD PUSH1 0x20 DUP8 ADD PUSH2 0xDF JUMP JUMPDEST PUSH1 0x1F ADD PUSH1 0x1F NOT AND SWAP2 SWAP1 SWAP2 ADD PUSH1 0x40 ADD SWAP3 SWAP2 POP POP JUMP JUMPDEST PUSH1 0x80 MLOAD PUSH1 0xEF PUSH2 0x24A PUSH1 0x0 CODECOPY PUSH1 0x0 DUP2 DUP2 PUSH1 0x2A ADD MSTORE PUSH1 0x7B ADD MSTORE PUSH1 0xEF PUSH1 0x0 RETURN INVALID PUSH1 0x80 PUSH1 0x40 MSTORE PUSH1 0x4 CALLDATASIZE LT PUSH1 0x1F JUMPI PUSH1 0x0 CALLDATALOAD PUSH1 0xE0 SHR DUP1 PUSH4 0xD7DFA0DD EQ PUSH1 0x6B JUMPI PUSH1 0x25 JUMP JUMPDEST CALLDATASIZE PUSH1 0x25 JUMPI STOP JUMPDEST PUSH1 0x40 MLOAD PUSH32 0x0 SWAP1 CALLDATASIZE PUSH1 0x0 DUP3 CALLDATACOPY PUSH1 0x0 DUP1 CALLDATASIZE DUP4 DUP6 GAS DELEGATECALL RETURNDATASIZE DUP1 PUSH1 0x0 DUP5 RETURNDATACOPY DUP2 DUP1 ISZERO PUSH1 0x67 JUMPI DUP2 DUP5 RETURN JUMPDEST DUP2 DUP5 REVERT JUMPDEST CALLVALUE DUP1 ISZERO PUSH1 0x76 JUMPI PUSH1 0x0 DUP1 REVERT JUMPDEST POP PUSH1 0x9D PUSH32 0x0 DUP2 JUMP JUMPDEST PUSH1 0x40 MLOAD PUSH1 0x1 PUSH1 0x1 PUSH1 0xA0 SHL SUB SWAP1 SWAP2 AND DUP2 MSTORE PUSH1 0x20 ADD PUSH1 0x40 MLOAD DUP1 SWAP2 SUB SWAP1 RETURN INVALID LOG2 PUSH5 0x6970667358 0x22 SLT KECCAK256 0x4A DUP5 SIGNEXTEND 0xBB SWAP6 RETURN 0xE 0x2D 0xB3 LOG2 DUP9 LOG3 0xB5 0x5D SAR 0x23 SUB 0xC1 GASPRICE 0xC2 SWAP7 0xBE 0x1E 0xAF SELFBALANCE 0xD3 BLOCKHASH JUMPDEST LOG2 0xB4 BALANCE PUSH32 0x64736F6C634300080D0033A26469706673582212204CFAB39CD3BE50D9315CA4 PUSH5 0xC8D1EF7238 LT 0xB3 CALLDATACOPY CODECOPY ADDMOD COINBASE 0xCC 0x2D 0x1F PUSH1 0x90 0xE5 SWAP12 JUMP PUSH30 0x64736F6C634300080D003300000000000000000000000000000000000000 ","sha1":"951c6d7ff24aae3f83a890e74ebc16a8023e8888","source":"//SPDX-License-Identifier: MIT\npragma solidity ^0.8.0;\n\nimport \"../openZeppelin/access/Ownable.sol\";\nimport \"../openZeppelin/utils/Pausable.sol\";\n\nimport \"../openZeppelin/token/ERC721/ERC721.sol\";\nimport \"../openZeppelin/token/ERC721/ERC721Holder.sol\";\n\nimport \"./InitializedProxy.sol\";\nimport \"./Settings.sol\";\nimport \"./ERC721TokenVault.sol\";\n\ncontract ERC721VaultFactory is Ownable, Pausable {\n  /// @notice the number of ERC721 vaults\n  uint256 public vaultCount;\n\n  /// @notice the mapping of vault number to vault contract\n  mapping(uint256 => address) public vaults;\n\n  /// @notice a settings contract controlled by governance\n  address public immutable settings;\n  /// @notice the TokenVault logic contract\n  address public immutable logic;\n\n  event Mint(address indexed token, uint256 id, uint256 price, address vault, uint256 vaultId);\n\n  constructor(address _settings) {\n    settings = _settings;\n    logic = address(new TokenVault(_settings));\n  }\n\n  /// @notice the function to mint a new vault\n  /// @param _name the desired name of the vault\n  /// @param _symbol the desired sumbol of the vault\n  /// @param _token the ERC721 token address fo the NFT\n  /// @param _id the uint256 ID of the token\n  /// @param _listPrice the initial price of the NFT\n  /// @return the ID of the vault\n  function mint(string memory _name, string memory _symbol, address _token, uint256 _id, uint256 _supply, uint256 _listPrice, uint256 _fee) external whenNotPaused returns(uint256) {\n    bytes memory _initializationCalldata =\n      abi.encodeWithSignature(\n        \"initialize(address,address,uint256,uint256,uint256,uint256,string,string)\",\n          msg.sender,\n          _token,\n          _id,\n          _supply,\n          _listPrice,\n          _fee,\n          _name,\n          _symbol\n    );\n\n    address vault = address(\n      new InitializedProxy(\n        logic,\n        _initializationCalldata\n      )\n    );\n\n    emit Mint(_token, _id, _listPrice, vault, vaultCount);\n\n    IERC721(_token).safeTransferFrom(msg.sender, vault, _id);\n    \n    vaults[vaultCount] = vault;\n    vaultCount++;\n\n    return vaultCount - 1;\n  }\n\n  function pause() external onlyOwner {\n    _pause();\n  }\n\n  function unpause() external onlyOwner {\n    _unpause();\n  }\n\n}\n","sourcePath":"contracts/ERC721VaultFactory.sol","type":"contract","deployment":{"address":"0x5c5b2bCE448e0868fB192ca4bF2BE615fc4D0778","chainid":"4","blockHeight":10693916}}