{"abi":[{"inputs":[],"stateMutability":"nonpayable","type":"constructor","name":"constructor"},{"anonymous":false,"inputs":[{"indexed":true,"internalType":"address","name":"previousOwner","type":"address"},{"indexed":true,"internalType":"address","name":"newOwner","type":"address"}],"name":"OwnershipTransferred","type":"event"},{"anonymous":false,"inputs":[{"indexed":false,"internalType":"uint256","name":"_old","type":"uint256"},{"indexed":false,"internalType":"uint256","name":"_new","type":"uint256"}],"name":"UpdateCuratorFee","type":"event"},{"anonymous":false,"inputs":[{"indexed":false,"internalType":"address","name":"_old","type":"address"},{"indexed":false,"internalType":"address","name":"_new","type":"address"}],"name":"UpdateFeeReceiver","type":"event"},{"anonymous":false,"inputs":[{"indexed":false,"internalType":"uint256","name":"_old","type":"uint256"},{"indexed":false,"internalType":"uint256","name":"_new","type":"uint256"}],"name":"UpdateGovernanceFee","type":"event"},{"anonymous":false,"inputs":[{"indexed":false,"internalType":"uint256","name":"_old","type":"uint256"},{"indexed":false,"internalType":"uint256","name":"_new","type":"uint256"}],"name":"UpdateMaxAuctionLength","type":"event"},{"anonymous":false,"inputs":[{"indexed":false,"internalType":"uint256","name":"_old","type":"uint256"},{"indexed":false,"internalType":"uint256","name":"_new","type":"uint256"}],"name":"UpdateMaxReserveFactor","type":"event"},{"anonymous":false,"inputs":[{"indexed":false,"internalType":"uint256","name":"_old","type":"uint256"},{"indexed":false,"internalType":"uint256","name":"_new","type":"uint256"}],"name":"UpdateMinAuctionLength","type":"event"},{"anonymous":false,"inputs":[{"indexed":false,"internalType":"uint256","name":"_old","type":"uint256"},{"indexed":false,"internalType":"uint256","name":"_new","type":"uint256"}],"name":"UpdateMinBidIncrease","type":"event"},{"anonymous":false,"inputs":[{"indexed":false,"internalType":"uint256","name":"_old","type":"uint256"},{"indexed":false,"internalType":"uint256","name":"_new","type":"uint256"}],"name":"UpdateMinReserveFactor","type":"event"},{"anonymous":false,"inputs":[{"indexed":false,"internalType":"uint256","name":"_old","type":"uint256"},{"indexed":false,"internalType":"uint256","name":"_new","type":"uint256"}],"name":"UpdateMinVotePercentage","type":"event"},{"inputs":[],"name":"feeReceiver","outputs":[{"internalType":"address payable","name":"","type":"address"}],"stateMutability":"view","type":"function"},{"inputs":[],"name":"governanceFee","outputs":[{"internalType":"uint256","name":"","type":"uint256"}],"stateMutability":"view","type":"function"},{"inputs":[],"name":"maxAuctionLength","outputs":[{"internalType":"uint256","name":"","type":"uint256"}],"stateMutability":"view","type":"function"},{"inputs":[],"name":"maxCuratorFee","outputs":[{"internalType":"uint256","name":"","type":"uint256"}],"stateMutability":"view","type":"function"},{"inputs":[],"name":"maxGovFee","outputs":[{"internalType":"uint256","name":"","type":"uint256"}],"stateMutability":"view","type":"function"},{"inputs":[],"name":"maxMaxAuctionLength","outputs":[{"internalType":"uint256","name":"","type":"uint256"}],"stateMutability":"view","type":"function"},{"inputs":[],"name":"maxMinBidIncrease","outputs":[{"internalType":"uint256","name":"","type":"uint256"}],"stateMutability":"view","type":"function"},{"inputs":[],"name":"maxReserveFactor","outputs":[{"internalType":"uint256","name":"","type":"uint256"}],"stateMutability":"view","type":"function"},{"inputs":[],"name":"minAuctionLength","outputs":[{"internalType":"uint256","name":"","type":"uint256"}],"stateMutability":"view","type":"function"},{"inputs":[],"name":"minBidIncrease","outputs":[{"internalType":"uint256","name":"","type":"uint256"}],"stateMutability":"view","type":"function"},{"inputs":[],"name":"minMinAuctionLength","outputs":[{"internalType":"uint256","name":"","type":"uint256"}],"stateMutability":"view","type":"function"},{"inputs":[],"name":"minMinBidIncrease","outputs":[{"internalType":"uint256","name":"","type":"uint256"}],"stateMutability":"view","type":"function"},{"inputs":[],"name":"minReserveFactor","outputs":[{"internalType":"uint256","name":"","type":"uint256"}],"stateMutability":"view","type":"function"},{"inputs":[],"name":"minVotePercentage","outputs":[{"internalType":"uint256","name":"","type":"uint256"}],"stateMutability":"view","type":"function"},{"inputs":[],"name":"owner","outputs":[{"internalType":"address","name":"","type":"address"}],"stateMutability":"view","type":"function"},{"inputs":[],"name":"renounceOwnership","outputs":[],"stateMutability":"nonpayable","type":"function"},{"inputs":[{"internalType":"address payable","name":"_receiver","type":"address"}],"name":"setFeeReceiver","outputs":[],"stateMutability":"nonpayable","type":"function"},{"inputs":[{"internalType":"uint256","name":"_fee","type":"uint256"}],"name":"setGovernanceFee","outputs":[],"stateMutability":"nonpayable","type":"function"},{"inputs":[{"internalType":"uint256","name":"_length","type":"uint256"}],"name":"setMaxAuctionLength","outputs":[],"stateMutability":"nonpayable","type":"function"},{"inputs":[{"internalType":"uint256","name":"_fee","type":"uint256"}],"name":"setMaxCuratorFee","outputs":[],"stateMutability":"nonpayable","type":"function"},{"inputs":[{"internalType":"uint256","name":"_factor","type":"uint256"}],"name":"setMaxReserveFactor","outputs":[],"stateMutability":"nonpayable","type":"function"},{"inputs":[{"internalType":"uint256","name":"_length","type":"uint256"}],"name":"setMinAuctionLength","outputs":[],"stateMutability":"nonpayable","type":"function"},{"inputs":[{"internalType":"uint256","name":"_min","type":"uint256"}],"name":"setMinBidIncrease","outputs":[],"stateMutability":"nonpayable","type":"function"},{"inputs":[{"internalType":"uint256","name":"_factor","type":"uint256"}],"name":"setMinReserveFactor","outputs":[],"stateMutability":"nonpayable","type":"function"},{"inputs":[{"internalType":"uint256","name":"_min","type":"uint256"}],"name":"setMinVotePercentage","outputs":[],"stateMutability":"nonpayable","type":"function"},{"inputs":[{"internalType":"address","name":"newOwner","type":"address"}],"name":"transferOwnership","outputs":[],"stateMutability":"nonpayable","type":"function"}],"bytecode":"608060405234801561001057600080fd5b50600080546001600160a01b031916339081178255604051909182917f8be0079c531659141344cd1fd0a4f28419497f9722a3daafe3b4186f6b6457e0908290a350621275006001556203f480600255600980546001600160a01b0319163317905560c86008556113886007556032600555606460045560fa600655610c988061009b6000396000f3fe608060405234801561001057600080fd5b506004361061018e5760003560e01c80637c513c0f116100de578063a0b335e311610097578063d213b90011610071578063d213b900146102e2578063efdcd974146102ec578063f2fde38b146102ff578063fcd81e321461025757600080fd5b8063a0b335e3146102b3578063affdafd8146102bc578063b3f00674146102cf57600080fd5b80637c513c0f1461024e578063846a4dd214610257578063848103091461025f5780638a364bc1146102725780638da5cb5b1461027b5780639665eb0f146102a057600080fd5b806332a693301161014b57806357c74c6c1161012557806357c74c6c1461020d5780636109f5b5146102205780636fc83db314610233578063715018a61461024657600080fd5b806332a69330146101e9578063339f87ed146101fc5780635410bfc91461020457600080fd5b806309990a96146101935780630e519ef9146101af5780630ea90a12146101b857806318fee3bf146101c15780631a58364c146101d657806332977c73146101e0575b600080fd5b61019c60085481565b6040519081526020015b60405180910390f35b61019c60015481565b61019c60035481565b6101d46101cf366004610bd8565b610312565b005b61019c6249d40081565b61019c60065481565b6101d46101f7366004610bd8565b6103d7565b61019c600a81565b61019c60075481565b6101d461021b366004610bd8565b610482565b6101d461022e366004610bd8565b61053f565b6101d4610241366004610bd8565b6105aa565b6101d46106b9565b61019c60055481565b61019c606481565b6101d461026d366004610bd8565b61072d565b61019c60045481565b6000546001600160a01b03165b6040516001600160a01b0390911681526020016101a6565b6101d46102ae366004610bd8565b6107e9565b61019c60025481565b6101d46102ca366004610bd8565b6108f6565b600954610288906001600160a01b031681565b61019c6201518081565b6101d46102fa366004610c09565b610a05565b6101d461030d366004610c09565b610aee565b6000546001600160a01b031633146103455760405162461bcd60e51b815260040161033c90610c2d565b60405180910390fd5b60075481106103965760405162461bcd60e51b815260206004820152601b60248201527f6d696e207265736572766520666163746f7220746f6f20686967680000000000604482015260640161033c565b60085460408051918252602082018390527fa93910a1e82dcd753b639a2ff1def7bf84d6bb1bf6fe79212d0d9ae72afc6cfa910160405180910390a1600855565b6000546001600160a01b031633146104015760405162461bcd60e51b815260040161033c90610c2d565b60648111156104415760405162461bcd60e51b815260206004820152600c60248201526b0cccaca40e8dede40d0d2ced60a31b604482015260640161033c565b60035460408051918252602082018390527f11b96af861c45de0c17127383516c92fc2a9d50eff86ea831b69e76a3fa87e2f910160405180910390a1600355565b6000546001600160a01b031633146104ac5760405162461bcd60e51b815260040161033c90610c2d565b6103e88111156104fe5760405162461bcd60e51b815260206004820152601c60248201527f6d696e20766f74652070657263656e7461676520746f6f206869676800000000604482015260640161033c565b60065460408051918252602082018390527ff8298d9709c2527c6ec1e2c605c5a163b44b0520bdd80335d5faba17e3f38fb8910160405180910390a1600655565b6000546001600160a01b031633146105695760405162461bcd60e51b815260040161033c90610c2d565b60035460408051918252602082018390527f283f7179cc13a8f90c3123b415b98ca8a0ca9619eed3c981db52809ab62700f9910160405180910390a1600455565b6000546001600160a01b031633146105d45760405162461bcd60e51b815260040161033c90610c2d565b620151808110156106275760405162461bcd60e51b815260206004820152601a60248201527f6d696e2061756374696f6e206c656e67746820746f6f206c6f77000000000000604482015260640161033c565b60015481106106785760405162461bcd60e51b815260206004820152601b60248201527f6d696e2061756374696f6e206c656e67746820746f6f20686967680000000000604482015260640161033c565b60025460408051918252602082018390527f055017e5b2f20973817c668e2f744e7c1b68a6f20332f25bb7b9bbb2f0c7eca7910160405180910390a1600255565b6000546001600160a01b031633146106e35760405162461bcd60e51b815260040161033c90610c2d565b600080546040516001600160a01b03909116907f8be0079c531659141344cd1fd0a4f28419497f9722a3daafe3b4186f6b6457e0908390a3600080546001600160a01b0319169055565b6000546001600160a01b031633146107575760405162461bcd60e51b815260040161033c90610c2d565b60085481116107a85760405162461bcd60e51b815260206004820152601a60248201527f6d6178207265736572766520666163746f7220746f6f206c6f77000000000000604482015260640161033c565b60075460408051918252602082018390527febec08ac4f5f91f0463f6e09a9b1729f1cbea09d240d8a1807ed6b9cd171ef19910160405180910390a1600755565b6000546001600160a01b031633146108135760405162461bcd60e51b815260040161033c90610c2d565b60648111156108645760405162461bcd60e51b815260206004820152601960248201527f6d696e2062696420696e63726561736520746f6f206869676800000000000000604482015260640161033c565b600a8110156108b55760405162461bcd60e51b815260206004820152601860248201527f6d696e2062696420696e63726561736520746f6f206c6f770000000000000000604482015260640161033c565b60055460408051918252602082018390527f3995c181714327dbf0232c3b20873e87ca6978b6418eec0f97a1447c5a4c43fc910160405180910390a1600555565b6000546001600160a01b031633146109205760405162461bcd60e51b815260040161033c90610c2d565b6249d4008111156109735760405162461bcd60e51b815260206004820152601b60248201527f6d61782061756374696f6e206c656e67746820746f6f20686967680000000000604482015260640161033c565b60025481116109c45760405162461bcd60e51b815260206004820152601a60248201527f6d61782061756374696f6e206c656e67746820746f6f206c6f77000000000000604482015260640161033c565b60015460408051918252602082018390527f06684837277f012a4c3a13c8ec0e53d85b843e328a811a8f5f25f5e1456d9f59910160405180910390a1600155565b6000546001600160a01b03163314610a2f5760405162461bcd60e51b815260040161033c90610c2d565b6001600160a01b038116610a855760405162461bcd60e51b815260206004820152601b60248201527f666565732063616e6e6f7420676f20746f203020616464726573730000000000604482015260640161033c565b600954604080516001600160a01b03928316815291831660208301527f2861448678f0be67f11bfb5481b3e3b4cfeb3acc6126ad60a05f95bfc6530666910160405180910390a1600980546001600160a01b0319166001600160a01b0392909216919091179055565b6000546001600160a01b03163314610b185760405162461bcd60e51b815260040161033c90610c2d565b6001600160a01b038116610b7d5760405162461bcd60e51b815260206004820152602660248201527f4f776e61626c653a206e6577206f776e657220697320746865207a65726f206160448201526564647265737360d01b606482015260840161033c565b600080546040516001600160a01b03808516939216917f8be0079c531659141344cd1fd0a4f28419497f9722a3daafe3b4186f6b6457e091a3600080546001600160a01b0319166001600160a01b0392909216919091179055565b600060208284031215610bea57600080fd5b5035919050565b6001600160a01b0381168114610c0657600080fd5b50565b600060208284031215610c1b57600080fd5b8135610c2681610bf1565b9392505050565b6020808252818101527f4f776e61626c653a2063616c6c6572206973206e6f7420746865206f776e657260408201526060019056fea2646970667358221220aea0ac587c0c52e91edb7e6fde93ac98bcb2191fb4e44e3e3a497679d2691d5764736f6c634300080d0033","bytecodeSha1":"f48c3880d73d2871fcf84a0e05c8170c0b8dc48e","compiler":{"evm_version":"istanbul","optimizer":{"enabled":true,"runs":200},"version":"0.8.13+commit.abaa5c0e"},"contractName":"Settings","language":"Solidity","natspec":{"kind":"dev","methods":{"feeReceiver()":{"notice":"the address who receives auction fees"},"governanceFee()":{"notice":"governance fee max"},"maxAuctionLength()":{"notice":"the maximum auction length"},"maxCuratorFee()":{"notice":"max curator fee"},"maxGovFee()":{"notice":"10% fee is max"},"maxMaxAuctionLength()":{"notice":"the longest an auction can ever be"},"maxMinBidIncrease()":{"notice":"10% bid increase is max "},"maxReserveFactor()":{"notice":"the max % increase over the initial "},"minAuctionLength()":{"notice":"the minimum auction length"},"minBidIncrease()":{"notice":"the % bid increase required for a new bid"},"minMinAuctionLength()":{"notice":"the shortest an auction can ever be"},"minMinBidIncrease()":{"notice":"1% bid increase is min"},"minReserveFactor()":{"notice":"the max % decrease from the initial"},"minVotePercentage()":{"notice":"the % of tokens required to be voting for an auction to start"},"owner()":{"details":"Returns the address of the current owner."},"renounceOwnership()":{"details":"Leaves the contract without owner. It will not be possible to call `onlyOwner` functions anymore. Can only be called by the current owner. NOTE: Renouncing ownership will leave the contract without an owner, thereby removing any functionality that is only available to the owner."},"transferOwnership(address)":{"details":"Transfers ownership of the contract to a new account (`newOwner`). Can only be called by the current owner."}},"version":1},"opcodes":"PUSH1 0x80 PUSH1 0x40 MSTORE CALLVALUE DUP1 ISZERO PUSH2 0x10 JUMPI PUSH1 0x0 DUP1 REVERT JUMPDEST POP PUSH1 0x4 CALLDATASIZE LT PUSH2 0x18E JUMPI PUSH1 0x0 CALLDATALOAD PUSH1 0xE0 SHR DUP1 PUSH4 0x7C513C0F GT PUSH2 0xDE JUMPI DUP1 PUSH4 0xA0B335E3 GT PUSH2 0x97 JUMPI DUP1 PUSH4 0xD213B900 GT PUSH2 0x71 JUMPI DUP1 PUSH4 0xD213B900 EQ PUSH2 0x2E2 JUMPI DUP1 PUSH4 0xEFDCD974 EQ PUSH2 0x2EC JUMPI DUP1 PUSH4 0xF2FDE38B EQ PUSH2 0x2FF JUMPI DUP1 PUSH4 0xFCD81E32 EQ PUSH2 0x257 JUMPI PUSH1 0x0 DUP1 REVERT JUMPDEST DUP1 PUSH4 0xA0B335E3 EQ PUSH2 0x2B3 JUMPI DUP1 PUSH4 0xAFFDAFD8 EQ PUSH2 0x2BC JUMPI DUP1 PUSH4 0xB3F00674 EQ PUSH2 0x2CF JUMPI PUSH1 0x0 DUP1 REVERT JUMPDEST DUP1 PUSH4 0x7C513C0F EQ PUSH2 0x24E JUMPI DUP1 PUSH4 0x846A4DD2 EQ PUSH2 0x257 JUMPI DUP1 PUSH4 0x84810309 EQ PUSH2 0x25F JUMPI DUP1 PUSH4 0x8A364BC1 EQ PUSH2 0x272 JUMPI DUP1 PUSH4 0x8DA5CB5B EQ PUSH2 0x27B JUMPI DUP1 PUSH4 0x9665EB0F EQ PUSH2 0x2A0 JUMPI PUSH1 0x0 DUP1 REVERT JUMPDEST DUP1 PUSH4 0x32A69330 GT PUSH2 0x14B JUMPI DUP1 PUSH4 0x57C74C6C GT PUSH2 0x125 JUMPI DUP1 PUSH4 0x57C74C6C EQ PUSH2 0x20D JUMPI DUP1 PUSH4 0x6109F5B5 EQ PUSH2 0x220 JUMPI DUP1 PUSH4 0x6FC83DB3 EQ PUSH2 0x233 JUMPI DUP1 PUSH4 0x715018A6 EQ PUSH2 0x246 JUMPI PUSH1 0x0 DUP1 REVERT JUMPDEST DUP1 PUSH4 0x32A69330 EQ PUSH2 0x1E9 JUMPI DUP1 PUSH4 0x339F87ED EQ PUSH2 0x1FC JUMPI DUP1 PUSH4 0x5410BFC9 EQ PUSH2 0x204 JUMPI PUSH1 0x0 DUP1 REVERT JUMPDEST DUP1 PUSH4 0x9990A96 EQ PUSH2 0x193 JUMPI DUP1 PUSH4 0xE519EF9 EQ PUSH2 0x1AF JUMPI DUP1 PUSH4 0xEA90A12 EQ PUSH2 0x1B8 JUMPI DUP1 PUSH4 0x18FEE3BF EQ PUSH2 0x1C1 JUMPI DUP1 PUSH4 0x1A58364C EQ PUSH2 0x1D6 JUMPI DUP1 PUSH4 0x32977C73 EQ PUSH2 0x1E0 JUMPI JUMPDEST PUSH1 0x0 DUP1 REVERT JUMPDEST PUSH2 0x19C PUSH1 0x8 SLOAD DUP2 JUMP JUMPDEST PUSH1 0x40 MLOAD SWAP1 DUP2 MSTORE PUSH1 0x20 ADD JUMPDEST PUSH1 0x40 MLOAD DUP1 SWAP2 SUB SWAP1 RETURN JUMPDEST PUSH2 0x19C PUSH1 0x1 SLOAD DUP2 JUMP JUMPDEST PUSH2 0x19C PUSH1 0x3 SLOAD DUP2 JUMP JUMPDEST PUSH2 0x1D4 PUSH2 0x1CF CALLDATASIZE PUSH1 0x4 PUSH2 0xBD8 JUMP JUMPDEST PUSH2 0x312 JUMP JUMPDEST STOP JUMPDEST PUSH2 0x19C PUSH3 0x49D400 DUP2 JUMP JUMPDEST PUSH2 0x19C PUSH1 0x6 SLOAD DUP2 JUMP JUMPDEST PUSH2 0x1D4 PUSH2 0x1F7 CALLDATASIZE PUSH1 0x4 PUSH2 0xBD8 JUMP JUMPDEST PUSH2 0x3D7 JUMP JUMPDEST PUSH2 0x19C PUSH1 0xA DUP2 JUMP JUMPDEST PUSH2 0x19C PUSH1 0x7 SLOAD DUP2 JUMP JUMPDEST PUSH2 0x1D4 PUSH2 0x21B CALLDATASIZE PUSH1 0x4 PUSH2 0xBD8 JUMP JUMPDEST PUSH2 0x482 JUMP JUMPDEST PUSH2 0x1D4 PUSH2 0x22E CALLDATASIZE PUSH1 0x4 PUSH2 0xBD8 JUMP JUMPDEST PUSH2 0x53F JUMP JUMPDEST PUSH2 0x1D4 PUSH2 0x241 CALLDATASIZE PUSH1 0x4 PUSH2 0xBD8 JUMP JUMPDEST PUSH2 0x5AA JUMP JUMPDEST PUSH2 0x1D4 PUSH2 0x6B9 JUMP JUMPDEST PUSH2 0x19C PUSH1 0x5 SLOAD DUP2 JUMP JUMPDEST PUSH2 0x19C PUSH1 0x64 DUP2 JUMP JUMPDEST PUSH2 0x1D4 PUSH2 0x26D CALLDATASIZE PUSH1 0x4 PUSH2 0xBD8 JUMP JUMPDEST PUSH2 0x72D JUMP JUMPDEST PUSH2 0x19C PUSH1 0x4 SLOAD DUP2 JUMP JUMPDEST PUSH1 0x0 SLOAD PUSH1 0x1 PUSH1 0x1 PUSH1 0xA0 SHL SUB AND JUMPDEST PUSH1 0x40 MLOAD PUSH1 0x1 PUSH1 0x1 PUSH1 0xA0 SHL SUB SWAP1 SWAP2 AND DUP2 MSTORE PUSH1 0x20 ADD PUSH2 0x1A6 JUMP JUMPDEST PUSH2 0x1D4 PUSH2 0x2AE CALLDATASIZE PUSH1 0x4 PUSH2 0xBD8 JUMP JUMPDEST PUSH2 0x7E9 JUMP JUMPDEST PUSH2 0x19C PUSH1 0x2 SLOAD DUP2 JUMP JUMPDEST PUSH2 0x1D4 PUSH2 0x2CA CALLDATASIZE PUSH1 0x4 PUSH2 0xBD8 JUMP JUMPDEST PUSH2 0x8F6 JUMP JUMPDEST PUSH1 0x9 SLOAD PUSH2 0x288 SWAP1 PUSH1 0x1 PUSH1 0x1 PUSH1 0xA0 SHL SUB AND DUP2 JUMP JUMPDEST PUSH2 0x19C PUSH3 0x15180 DUP2 JUMP JUMPDEST PUSH2 0x1D4 PUSH2 0x2FA CALLDATASIZE PUSH1 0x4 PUSH2 0xC09 JUMP JUMPDEST PUSH2 0xA05 JUMP JUMPDEST PUSH2 0x1D4 PUSH2 0x30D CALLDATASIZE PUSH1 0x4 PUSH2 0xC09 JUMP JUMPDEST PUSH2 0xAEE JUMP JUMPDEST PUSH1 0x0 SLOAD PUSH1 0x1 PUSH1 0x1 PUSH1 0xA0 SHL SUB AND CALLER EQ PUSH2 0x345 JUMPI PUSH1 0x40 MLOAD PUSH3 0x461BCD PUSH1 0xE5 SHL DUP2 MSTORE PUSH1 0x4 ADD PUSH2 0x33C SWAP1 PUSH2 0xC2D JUMP JUMPDEST PUSH1 0x40 MLOAD DUP1 SWAP2 SUB SWAP1 REVERT JUMPDEST PUSH1 0x7 SLOAD DUP2 LT PUSH2 0x396 JUMPI PUSH1 0x40 MLOAD PUSH3 0x461BCD PUSH1 0xE5 SHL DUP2 MSTORE PUSH1 0x20 PUSH1 0x4 DUP3 ADD MSTORE PUSH1 0x1B PUSH1 0x24 DUP3 ADD MSTORE PUSH32 0x6D696E207265736572766520666163746F7220746F6F20686967680000000000 PUSH1 0x44 DUP3 ADD MSTORE PUSH1 0x64 ADD PUSH2 0x33C JUMP JUMPDEST PUSH1 0x8 SLOAD PUSH1 0x40 DUP1 MLOAD SWAP2 DUP3 MSTORE PUSH1 0x20 DUP3 ADD DUP4 SWAP1 MSTORE PUSH32 0xA93910A1E82DCD753B639A2FF1DEF7BF84D6BB1BF6FE79212D0D9AE72AFC6CFA SWAP2 ADD PUSH1 0x40 MLOAD DUP1 SWAP2 SUB SWAP1 LOG1 PUSH1 0x8 SSTORE JUMP JUMPDEST PUSH1 0x0 SLOAD PUSH1 0x1 PUSH1 0x1 PUSH1 0xA0 SHL SUB AND CALLER EQ PUSH2 0x401 JUMPI PUSH1 0x40 MLOAD PUSH3 0x461BCD PUSH1 0xE5 SHL DUP2 MSTORE PUSH1 0x4 ADD PUSH2 0x33C SWAP1 PUSH2 0xC2D JUMP JUMPDEST PUSH1 0x64 DUP2 GT ISZERO PUSH2 0x441 JUMPI PUSH1 0x40 MLOAD PUSH3 0x461BCD PUSH1 0xE5 SHL DUP2 MSTORE PUSH1 0x20 PUSH1 0x4 DUP3 ADD MSTORE PUSH1 0xC PUSH1 0x24 DUP3 ADD MSTORE PUSH12 0xCCCACA40E8DEDE40D0D2CED PUSH1 0xA3 SHL PUSH1 0x44 DUP3 ADD MSTORE PUSH1 0x64 ADD PUSH2 0x33C JUMP JUMPDEST PUSH1 0x3 SLOAD PUSH1 0x40 DUP1 MLOAD SWAP2 DUP3 MSTORE PUSH1 0x20 DUP3 ADD DUP4 SWAP1 MSTORE PUSH32 0x11B96AF861C45DE0C17127383516C92FC2A9D50EFF86EA831B69E76A3FA87E2F SWAP2 ADD PUSH1 0x40 MLOAD DUP1 SWAP2 SUB SWAP1 LOG1 PUSH1 0x3 SSTORE JUMP JUMPDEST PUSH1 0x0 SLOAD PUSH1 0x1 PUSH1 0x1 PUSH1 0xA0 SHL SUB AND CALLER EQ PUSH2 0x4AC JUMPI PUSH1 0x40 MLOAD PUSH3 0x461BCD PUSH1 0xE5 SHL DUP2 MSTORE PUSH1 0x4 ADD PUSH2 0x33C SWAP1 PUSH2 0xC2D JUMP JUMPDEST PUSH2 0x3E8 DUP2 GT ISZERO PUSH2 0x4FE JUMPI PUSH1 0x40 MLOAD PUSH3 0x461BCD PUSH1 0xE5 SHL DUP2 MSTORE PUSH1 0x20 PUSH1 0x4 DUP3 ADD MSTORE PUSH1 0x1C PUSH1 0x24 DUP3 ADD MSTORE PUSH32 0x6D696E20766F74652070657263656E7461676520746F6F206869676800000000 PUSH1 0x44 DUP3 ADD MSTORE PUSH1 0x64 ADD PUSH2 0x33C JUMP JUMPDEST PUSH1 0x6 SLOAD PUSH1 0x40 DUP1 MLOAD SWAP2 DUP3 MSTORE PUSH1 0x20 DUP3 ADD DUP4 SWAP1 MSTORE PUSH32 0xF8298D9709C2527C6EC1E2C605C5A163B44B0520BDD80335D5FABA17E3F38FB8 SWAP2 ADD PUSH1 0x40 MLOAD DUP1 SWAP2 SUB SWAP1 LOG1 PUSH1 0x6 SSTORE JUMP JUMPDEST PUSH1 0x0 SLOAD PUSH1 0x1 PUSH1 0x1 PUSH1 0xA0 SHL SUB AND CALLER EQ PUSH2 0x569 JUMPI PUSH1 0x40 MLOAD PUSH3 0x461BCD PUSH1 0xE5 SHL DUP2 MSTORE PUSH1 0x4 ADD PUSH2 0x33C SWAP1 PUSH2 0xC2D JUMP JUMPDEST PUSH1 0x3 SLOAD PUSH1 0x40 DUP1 MLOAD SWAP2 DUP3 MSTORE PUSH1 0x20 DUP3 ADD DUP4 SWAP1 MSTORE PUSH32 0x283F7179CC13A8F90C3123B415B98CA8A0CA9619EED3C981DB52809AB62700F9 SWAP2 ADD PUSH1 0x40 MLOAD DUP1 SWAP2 SUB SWAP1 LOG1 PUSH1 0x4 SSTORE JUMP JUMPDEST PUSH1 0x0 SLOAD PUSH1 0x1 PUSH1 0x1 PUSH1 0xA0 SHL SUB AND CALLER EQ PUSH2 0x5D4 JUMPI PUSH1 0x40 MLOAD PUSH3 0x461BCD PUSH1 0xE5 SHL DUP2 MSTORE PUSH1 0x4 ADD PUSH2 0x33C SWAP1 PUSH2 0xC2D JUMP JUMPDEST PUSH3 0x15180 DUP2 LT ISZERO PUSH2 0x627 JUMPI PUSH1 0x40 MLOAD PUSH3 0x461BCD PUSH1 0xE5 SHL DUP2 MSTORE PUSH1 0x20 PUSH1 0x4 DUP3 ADD MSTORE PUSH1 0x1A PUSH1 0x24 DUP3 ADD MSTORE PUSH32 0x6D696E2061756374696F6E206C656E67746820746F6F206C6F77000000000000 PUSH1 0x44 DUP3 ADD MSTORE PUSH1 0x64 ADD PUSH2 0x33C JUMP JUMPDEST PUSH1 0x1 SLOAD DUP2 LT PUSH2 0x678 JUMPI PUSH1 0x40 MLOAD PUSH3 0x461BCD PUSH1 0xE5 SHL DUP2 MSTORE PUSH1 0x20 PUSH1 0x4 DUP3 ADD MSTORE PUSH1 0x1B PUSH1 0x24 DUP3 ADD MSTORE PUSH32 0x6D696E2061756374696F6E206C656E67746820746F6F20686967680000000000 PUSH1 0x44 DUP3 ADD MSTORE PUSH1 0x64 ADD PUSH2 0x33C JUMP JUMPDEST PUSH1 0x2 SLOAD PUSH1 0x40 DUP1 MLOAD SWAP2 DUP3 MSTORE PUSH1 0x20 DUP3 ADD DUP4 SWAP1 MSTORE PUSH32 0x55017E5B2F20973817C668E2F744E7C1B68A6F20332F25BB7B9BBB2F0C7ECA7 SWAP2 ADD PUSH1 0x40 MLOAD DUP1 SWAP2 SUB SWAP1 LOG1 PUSH1 0x2 SSTORE JUMP JUMPDEST PUSH1 0x0 SLOAD PUSH1 0x1 PUSH1 0x1 PUSH1 0xA0 SHL SUB AND CALLER EQ PUSH2 0x6E3 JUMPI PUSH1 0x40 MLOAD PUSH3 0x461BCD PUSH1 0xE5 SHL DUP2 MSTORE PUSH1 0x4 ADD PUSH2 0x33C SWAP1 PUSH2 0xC2D JUMP JUMPDEST PUSH1 0x0 DUP1 SLOAD PUSH1 0x40 MLOAD PUSH1 0x1 PUSH1 0x1 PUSH1 0xA0 SHL SUB SWAP1 SWAP2 AND SWAP1 PUSH32 0x8BE0079C531659141344CD1FD0A4F28419497F9722A3DAAFE3B4186F6B6457E0 SWAP1 DUP4 SWAP1 LOG3 PUSH1 0x0 DUP1 SLOAD PUSH1 0x1 PUSH1 0x1 PUSH1 0xA0 SHL SUB NOT AND SWAP1 SSTORE JUMP JUMPDEST PUSH1 0x0 SLOAD PUSH1 0x1 PUSH1 0x1 PUSH1 0xA0 SHL SUB AND CALLER EQ PUSH2 0x757 JUMPI PUSH1 0x40 MLOAD PUSH3 0x461BCD PUSH1 0xE5 SHL DUP2 MSTORE PUSH1 0x4 ADD PUSH2 0x33C SWAP1 PUSH2 0xC2D JUMP JUMPDEST PUSH1 0x8 SLOAD DUP2 GT PUSH2 0x7A8 JUMPI PUSH1 0x40 MLOAD PUSH3 0x461BCD PUSH1 0xE5 SHL DUP2 MSTORE PUSH1 0x20 PUSH1 0x4 DUP3 ADD MSTORE PUSH1 0x1A PUSH1 0x24 DUP3 ADD MSTORE PUSH32 0x6D6178207265736572766520666163746F7220746F6F206C6F77000000000000 PUSH1 0x44 DUP3 ADD MSTORE PUSH1 0x64 ADD PUSH2 0x33C JUMP JUMPDEST PUSH1 0x7 SLOAD PUSH1 0x40 DUP1 MLOAD SWAP2 DUP3 MSTORE PUSH1 0x20 DUP3 ADD DUP4 SWAP1 MSTORE PUSH32 0xEBEC08AC4F5F91F0463F6E09A9B1729F1CBEA09D240D8A1807ED6B9CD171EF19 SWAP2 ADD PUSH1 0x40 MLOAD DUP1 SWAP2 SUB SWAP1 LOG1 PUSH1 0x7 SSTORE JUMP JUMPDEST PUSH1 0x0 SLOAD PUSH1 0x1 PUSH1 0x1 PUSH1 0xA0 SHL SUB AND CALLER EQ PUSH2 0x813 JUMPI PUSH1 0x40 MLOAD PUSH3 0x461BCD PUSH1 0xE5 SHL DUP2 MSTORE PUSH1 0x4 ADD PUSH2 0x33C SWAP1 PUSH2 0xC2D JUMP JUMPDEST PUSH1 0x64 DUP2 GT ISZERO PUSH2 0x864 JUMPI PUSH1 0x40 MLOAD PUSH3 0x461BCD PUSH1 0xE5 SHL DUP2 MSTORE PUSH1 0x20 PUSH1 0x4 DUP3 ADD MSTORE PUSH1 0x19 PUSH1 0x24 DUP3 ADD MSTORE PUSH32 0x6D696E2062696420696E63726561736520746F6F206869676800000000000000 PUSH1 0x44 DUP3 ADD MSTORE PUSH1 0x64 ADD PUSH2 0x33C JUMP JUMPDEST PUSH1 0xA DUP2 LT ISZERO PUSH2 0x8B5 JUMPI PUSH1 0x40 MLOAD PUSH3 0x461BCD PUSH1 0xE5 SHL DUP2 MSTORE PUSH1 0x20 PUSH1 0x4 DUP3 ADD MSTORE PUSH1 0x18 PUSH1 0x24 DUP3 ADD MSTORE PUSH32 0x6D696E2062696420696E63726561736520746F6F206C6F770000000000000000 PUSH1 0x44 DUP3 ADD MSTORE PUSH1 0x64 ADD PUSH2 0x33C JUMP JUMPDEST PUSH1 0x5 SLOAD PUSH1 0x40 DUP1 MLOAD SWAP2 DUP3 MSTORE PUSH1 0x20 DUP3 ADD DUP4 SWAP1 MSTORE PUSH32 0x3995C181714327DBF0232C3B20873E87CA6978B6418EEC0F97A1447C5A4C43FC SWAP2 ADD PUSH1 0x40 MLOAD DUP1 SWAP2 SUB SWAP1 LOG1 PUSH1 0x5 SSTORE JUMP JUMPDEST PUSH1 0x0 SLOAD PUSH1 0x1 PUSH1 0x1 PUSH1 0xA0 SHL SUB AND CALLER EQ PUSH2 0x920 JUMPI PUSH1 0x40 MLOAD PUSH3 0x461BCD PUSH1 0xE5 SHL DUP2 MSTORE PUSH1 0x4 ADD PUSH2 0x33C SWAP1 PUSH2 0xC2D JUMP JUMPDEST PUSH3 0x49D400 DUP2 GT ISZERO PUSH2 0x973 JUMPI PUSH1 0x40 MLOAD PUSH3 0x461BCD PUSH1 0xE5 SHL DUP2 MSTORE PUSH1 0x20 PUSH1 0x4 DUP3 ADD MSTORE PUSH1 0x1B PUSH1 0x24 DUP3 ADD MSTORE PUSH32 0x6D61782061756374696F6E206C656E67746820746F6F20686967680000000000 PUSH1 0x44 DUP3 ADD MSTORE PUSH1 0x64 ADD PUSH2 0x33C JUMP JUMPDEST PUSH1 0x2 SLOAD DUP2 GT PUSH2 0x9C4 JUMPI PUSH1 0x40 MLOAD PUSH3 0x461BCD PUSH1 0xE5 SHL DUP2 MSTORE PUSH1 0x20 PUSH1 0x4 DUP3 ADD MSTORE PUSH1 0x1A PUSH1 0x24 DUP3 ADD MSTORE PUSH32 0x6D61782061756374696F6E206C656E67746820746F6F206C6F77000000000000 PUSH1 0x44 DUP3 ADD MSTORE PUSH1 0x64 ADD PUSH2 0x33C JUMP JUMPDEST PUSH1 0x1 SLOAD PUSH1 0x40 DUP1 MLOAD SWAP2 DUP3 MSTORE PUSH1 0x20 DUP3 ADD DUP4 SWAP1 MSTORE PUSH32 0x6684837277F012A4C3A13C8EC0E53D85B843E328A811A8F5F25F5E1456D9F59 SWAP2 ADD PUSH1 0x40 MLOAD DUP1 SWAP2 SUB SWAP1 LOG1 PUSH1 0x1 SSTORE JUMP JUMPDEST PUSH1 0x0 SLOAD PUSH1 0x1 PUSH1 0x1 PUSH1 0xA0 SHL SUB AND CALLER EQ PUSH2 0xA2F JUMPI PUSH1 0x40 MLOAD PUSH3 0x461BCD PUSH1 0xE5 SHL DUP2 MSTORE PUSH1 0x4 ADD PUSH2 0x33C SWAP1 PUSH2 0xC2D JUMP JUMPDEST PUSH1 0x1 PUSH1 0x1 PUSH1 0xA0 SHL SUB DUP2 AND PUSH2 0xA85 JUMPI PUSH1 0x40 MLOAD PUSH3 0x461BCD PUSH1 0xE5 SHL DUP2 MSTORE PUSH1 0x20 PUSH1 0x4 DUP3 ADD MSTORE PUSH1 0x1B PUSH1 0x24 DUP3 ADD MSTORE PUSH32 0x666565732063616E6E6F7420676F20746F203020616464726573730000000000 PUSH1 0x44 DUP3 ADD MSTORE PUSH1 0x64 ADD PUSH2 0x33C JUMP JUMPDEST PUSH1 0x9 SLOAD PUSH1 0x40 DUP1 MLOAD PUSH1 0x1 PUSH1 0x1 PUSH1 0xA0 SHL SUB SWAP3 DUP4 AND DUP2 MSTORE SWAP2 DUP4 AND PUSH1 0x20 DUP4 ADD MSTORE PUSH32 0x2861448678F0BE67F11BFB5481B3E3B4CFEB3ACC6126AD60A05F95BFC6530666 SWAP2 ADD PUSH1 0x40 MLOAD DUP1 SWAP2 SUB SWAP1 LOG1 PUSH1 0x9 DUP1 SLOAD PUSH1 0x1 PUSH1 0x1 PUSH1 0xA0 SHL SUB NOT AND PUSH1 0x1 PUSH1 0x1 PUSH1 0xA0 SHL SUB SWAP3 SWAP1 SWAP3 AND SWAP2 SWAP1 SWAP2 OR SWAP1 SSTORE JUMP JUMPDEST PUSH1 0x0 SLOAD PUSH1 0x1 PUSH1 0x1 PUSH1 0xA0 SHL SUB AND CALLER EQ PUSH2 0xB18 JUMPI PUSH1 0x40 MLOAD PUSH3 0x461BCD PUSH1 0xE5 SHL DUP2 MSTORE PUSH1 0x4 ADD PUSH2 0x33C SWAP1 PUSH2 0xC2D JUMP JUMPDEST PUSH1 0x1 PUSH1 0x1 PUSH1 0xA0 SHL SUB DUP2 AND PUSH2 0xB7D JUMPI PUSH1 0x40 MLOAD PUSH3 0x461BCD PUSH1 0xE5 SHL DUP2 MSTORE PUSH1 0x20 PUSH1 0x4 DUP3 ADD MSTORE PUSH1 0x26 PUSH1 0x24 DUP3 ADD MSTORE PUSH32 0x4F776E61626C653A206E6577206F776E657220697320746865207A65726F2061 PUSH1 0x44 DUP3 ADD MSTORE PUSH6 0x646472657373 PUSH1 0xD0 SHL PUSH1 0x64 DUP3 ADD MSTORE PUSH1 0x84 ADD PUSH2 0x33C JUMP JUMPDEST PUSH1 0x0 DUP1 SLOAD PUSH1 0x40 MLOAD PUSH1 0x1 PUSH1 0x1 PUSH1 0xA0 SHL SUB DUP1 DUP6 AND SWAP4 SWAP3 AND SWAP2 PUSH32 0x8BE0079C531659141344CD1FD0A4F28419497F9722A3DAAFE3B4186F6B6457E0 SWAP2 LOG3 PUSH1 0x0 DUP1 SLOAD PUSH1 0x1 PUSH1 0x1 PUSH1 0xA0 SHL SUB NOT AND PUSH1 0x1 PUSH1 0x1 PUSH1 0xA0 SHL SUB SWAP3 SWAP1 SWAP3 AND SWAP2 SWAP1 SWAP2 OR SWAP1 SSTORE JUMP JUMPDEST PUSH1 0x0 PUSH1 0x20 DUP3 DUP5 SUB SLT ISZERO PUSH2 0xBEA JUMPI PUSH1 0x0 DUP1 REVERT JUMPDEST POP CALLDATALOAD SWAP2 SWAP1 POP JUMP JUMPDEST PUSH1 0x1 PUSH1 0x1 PUSH1 0xA0 SHL SUB DUP2 AND DUP2 EQ PUSH2 0xC06 JUMPI PUSH1 0x0 DUP1 REVERT JUMPDEST POP JUMP JUMPDEST PUSH1 0x0 PUSH1 0x20 DUP3 DUP5 SUB SLT ISZERO PUSH2 0xC1B JUMPI PUSH1 0x0 DUP1 REVERT JUMPDEST DUP2 CALLDATALOAD PUSH2 0xC26 DUP2 PUSH2 0xBF1 JUMP JUMPDEST SWAP4 SWAP3 POP POP POP JUMP JUMPDEST PUSH1 0x20 DUP1 DUP3 MSTORE DUP2 DUP2 ADD MSTORE PUSH32 0x4F776E61626C653A2063616C6C6572206973206E6F7420746865206F776E6572 PUSH1 0x40 DUP3 ADD MSTORE PUSH1 0x60 ADD SWAP1 JUMP INVALID LOG2 PUSH5 0x6970667358 0x22 SLT KECCAK256 0xAE LOG0 0xAC PC PUSH29 0xC52E91EDB7E6FDE93AC98BCB2191FB4E44E3E3A497679D2691D576473 PUSH16 0x6C634300080D00330000000000000000 ","sha1":"4077bf51f1b3329625d767b52648c7b51e35d85e","source":"//SPDX-License-Identifier: MIT\npragma solidity ^0.8.0;\n\nimport \"../openZeppelin/access/Ownable.sol\";\nimport \"../interfaces/ISettings.sol\";\n\ncontract Settings is Ownable, ISettings {\n\n    /// @notice the maximum auction length\n    uint256 public override maxAuctionLength;\n\n    /// @notice the longest an auction can ever be\n    uint256 public constant maxMaxAuctionLength = 8 weeks;\n\n    /// @notice the minimum auction length\n    uint256 public override minAuctionLength;\n\n    /// @notice the shortest an auction can ever be\n    uint256 public constant minMinAuctionLength = 1 days;\n\n    /// @notice governance fee max\n    uint256 public override governanceFee;\n\n    /// @notice 10% fee is max\n    uint256 public constant maxGovFee = 100;\n\n    /// @notice max curator fee\n    uint256 public override maxCuratorFee;\n\n    /// @notice the % bid increase required for a new bid\n    uint256 public override minBidIncrease;\n\n    /// @notice 10% bid increase is max \n    uint256 public constant maxMinBidIncrease = 100;\n\n    /// @notice 1% bid increase is min\n    uint256 public constant minMinBidIncrease = 10;\n\n    /// @notice the % of tokens required to be voting for an auction to start\n    uint256 public override minVotePercentage;\n\n    /// @notice the max % increase over the initial \n    uint256 public override maxReserveFactor;\n\n    /// @notice the max % decrease from the initial\n    uint256 public override minReserveFactor;\n\n    /// @notice the address who receives auction fees\n    address payable public override feeReceiver;\n\n    event UpdateMaxAuctionLength(uint256 _old, uint256 _new);\n\n    event UpdateMinAuctionLength(uint256 _old, uint256 _new);\n\n    event UpdateGovernanceFee(uint256 _old, uint256 _new);\n\n    event UpdateCuratorFee(uint256 _old, uint256 _new);\n\n    event UpdateMinBidIncrease(uint256 _old, uint256 _new);\n\n    event UpdateMinVotePercentage(uint256 _old, uint256 _new);\n\n    event UpdateMaxReserveFactor(uint256 _old, uint256 _new);\n\n    event UpdateMinReserveFactor(uint256 _old, uint256 _new);\n\n    event UpdateFeeReceiver(address _old, address _new);\n\n    constructor() {\n        maxAuctionLength = 2 weeks;\n        minAuctionLength = 3 days;\n        feeReceiver = payable(msg.sender);\n        minReserveFactor = 200;  // 20%\n        maxReserveFactor = 5000; // 500%\n        minBidIncrease = 50;     // 5%\n        maxCuratorFee = 100;\n        minVotePercentage = 250; // 25%\n    }\n\n    function setMaxAuctionLength(uint256 _length) external onlyOwner {\n        require(_length <= maxMaxAuctionLength, \"max auction length too high\");\n        require(_length > minAuctionLength, \"max auction length too low\");\n\n        emit UpdateMaxAuctionLength(maxAuctionLength, _length);\n\n        maxAuctionLength = _length;\n    }\n\n    function setMinAuctionLength(uint256 _length) external onlyOwner {\n        require(_length >= minMinAuctionLength, \"min auction length too low\");\n        require(_length < maxAuctionLength, \"min auction length too high\");\n\n        emit UpdateMinAuctionLength(minAuctionLength, _length);\n\n        minAuctionLength = _length;\n    }\n\n    function setGovernanceFee(uint256 _fee) external onlyOwner {\n        require(_fee <= maxGovFee, \"fee too high\");\n\n        emit UpdateGovernanceFee(governanceFee, _fee);\n\n        governanceFee = _fee;\n    }\n\n    function setMaxCuratorFee(uint256 _fee) external onlyOwner {\n        emit UpdateCuratorFee(governanceFee, _fee);\n\n        maxCuratorFee = _fee;\n    }\n\n    function setMinBidIncrease(uint256 _min) external onlyOwner {\n        require(_min <= maxMinBidIncrease, \"min bid increase too high\");\n        require(_min >= minMinBidIncrease, \"min bid increase too low\");\n\n        emit UpdateMinBidIncrease(minBidIncrease, _min);\n\n        minBidIncrease = _min;\n    }\n\n    function setMinVotePercentage(uint256 _min) external onlyOwner {\n        // 1000 is 100%\n        require(_min <= 1000, \"min vote percentage too high\");\n\n        emit UpdateMinVotePercentage(minVotePercentage, _min);\n\n        minVotePercentage = _min;\n    }\n\n    function setMaxReserveFactor(uint256 _factor) external onlyOwner {\n        require(_factor > minReserveFactor, \"max reserve factor too low\");\n\n        emit UpdateMaxReserveFactor(maxReserveFactor, _factor);\n\n        maxReserveFactor = _factor;\n    }\n\n    function setMinReserveFactor(uint256 _factor) external onlyOwner {\n        require(_factor < maxReserveFactor, \"min reserve factor too high\");\n\n        emit UpdateMinReserveFactor(minReserveFactor, _factor);\n\n        minReserveFactor = _factor;\n    }\n\n    function setFeeReceiver(address payable _receiver) external onlyOwner {\n        require(_receiver != address(0), \"fees cannot go to 0 address\");\n\n        emit UpdateFeeReceiver(feeReceiver, _receiver);\n\n        feeReceiver = _receiver;\n    }\n\n}","sourcePath":"contracts/Settings.sol","type":"contract","deployment":{"address":"0xf121f63836907387C8EB19DC2e00f1c5f65A7781","chainid":"4","blockHeight":10690190}}