{
  "abi": [
    {
      "inputs": [
        {
          "internalType": "address",
          "name": "_logic",
          "type": "address"
        },
        {
          "internalType": "bytes",
          "name": "_initializationCalldata",
          "type": "bytes"
        }
      ],
      "stateMutability": "nonpayable",
      "type": "constructor"
    },
    {
      "stateMutability": "payable",
      "type": "fallback"
    },
    {
      "inputs": [],
      "name": "logic",
      "outputs": [
        {
          "internalType": "address",
          "name": "",
          "type": "address"
        }
      ],
      "stateMutability": "view",
      "type": "function"
    },
    {
      "stateMutability": "payable",
      "type": "receive"
    }
  ],
  "bytecode": "60a060405234801561001057600080fd5b5060405161033938038061033983398101604081905261002f9161010f565b6001600160a01b038216608081905260405160009182916100519085906101dd565b600060405180830381855af49150503d806000811461008c576040519150601f19603f3d011682016040523d82523d6000602084013e610091565b606091505b50915091508181906100bf5760405162461bcd60e51b81526004016100b691906101f9565b60405180910390fd5b505050505061022c565b634e487b7160e01b600052604160045260246000fd5b60005b838110156100fa5781810151838201526020016100e2565b83811115610109576000848401525b50505050565b6000806040838503121561012257600080fd5b82516001600160a01b038116811461013957600080fd5b60208401519092506001600160401b038082111561015657600080fd5b818501915085601f83011261016a57600080fd5b81518181111561017c5761017c6100c9565b604051601f8201601f19908116603f011681019083821181831017156101a4576101a46100c9565b816040528281528860208487010111156101bd57600080fd5b6101ce8360208301602088016100df565b80955050505050509250929050565b600082516101ef8184602087016100df565b9190910192915050565b60208152600082518060208401526102188160408501602087016100df565b601f01601f19169190910160400192915050565b60805160ef61024a60003960008181602a0152607b015260ef6000f3fe608060405260043610601f5760003560e01c8063d7dfa0dd14606b576025565b36602557005b6040517f00000000000000000000000000000000000000000000000000000000000000009036600082376000803683855af43d806000843e8180156067578184f35b8184fd5b348015607657600080fd5b50609d7f000000000000000000000000000000000000000000000000000000000000000081565b6040516001600160a01b03909116815260200160405180910390f3fea26469706673582212204a840bbb95f30e2db3a288a3b55d1d2303c13ac296be1eaf47d3405ba2b4317f64736f6c634300080d0033",
  "bytecodeSha1": "58b81de58b51a6d1fc95bdb0f7145171f133dbe8",
  "compiler": {
    "evm_version": "istanbul",
    "optimizer": {
      "enabled": true,
      "runs": 200
    },
    "version": "0.8.13+commit.abaa5c0e"
  },
  "contractName": "InitializedProxy",
  "language": "Solidity",
  "natspec": {
    "author": "Anna Carroll",
    "kind": "dev",
    "methods": {},
    "title": "InitializedProxy",
    "version": 1
  },
  "opcodes": "PUSH1 0x80 PUSH1 0x40 MSTORE PUSH1 0x4 CALLDATASIZE LT PUSH1 0x1F JUMPI PUSH1 0x0 CALLDATALOAD PUSH1 0xE0 SHR DUP1 PUSH4 0xD7DFA0DD EQ PUSH1 0x6B JUMPI PUSH1 0x25 JUMP JUMPDEST CALLDATASIZE PUSH1 0x25 JUMPI STOP JUMPDEST PUSH1 0x40 MLOAD PUSH32 0x0 SWAP1 CALLDATASIZE PUSH1 0x0 DUP3 CALLDATACOPY PUSH1 0x0 DUP1 CALLDATASIZE DUP4 DUP6 GAS DELEGATECALL RETURNDATASIZE DUP1 PUSH1 0x0 DUP5 RETURNDATACOPY DUP2 DUP1 ISZERO PUSH1 0x67 JUMPI DUP2 DUP5 RETURN JUMPDEST DUP2 DUP5 REVERT JUMPDEST CALLVALUE DUP1 ISZERO PUSH1 0x76 JUMPI PUSH1 0x0 DUP1 REVERT JUMPDEST POP PUSH1 0x9D PUSH32 0x0 DUP2 JUMP JUMPDEST PUSH1 0x40 MLOAD PUSH1 0x1 PUSH1 0x1 PUSH1 0xA0 SHL SUB SWAP1 SWAP2 AND DUP2 MSTORE PUSH1 0x20 ADD PUSH1 0x40 MLOAD DUP1 SWAP2 SUB SWAP1 RETURN INVALID LOG2 PUSH5 0x6970667358 0x22 SLT KECCAK256 0x4A DUP5 SIGNEXTEND 0xBB SWAP6 RETURN 0xE 0x2D 0xB3 LOG2 DUP9 LOG3 0xB5 0x5D SAR 0x23 SUB 0xC1 GASPRICE 0xC2 SWAP7 0xBE 0x1E 0xAF SELFBALANCE 0xD3 BLOCKHASH JUMPDEST LOG2 0xB4 BALANCE PUSH32 0x64736F6C634300080D0033000000000000000000000000000000000000000000 ",
  "sha1": "049644f216fc3c7398016474eba38064e0ae3395",
  "source": "// SPDX-License-Identifier: MIT\npragma solidity ^0.8.0;\n\n/**\n * @title InitializedProxy\n * @author Anna Carroll\n */\ncontract InitializedProxy {\n    // address of logic contract\n    address public immutable logic;\n\n    // ======== Constructor =========\n\n    constructor(\n        address _logic,\n        bytes memory _initializationCalldata\n    ) {\n        logic = _logic;\n        // Delegatecall into the logic contract, supplying initialization calldata\n        (bool _ok, bytes memory returnData) =\n            _logic.delegatecall(_initializationCalldata);\n        // Revert if delegatecall to implementation reverts\n        require(_ok, string(returnData));\n    }\n\n    // ======== Fallback =========\n\n    fallback() external payable {\n        address _impl = logic;\n        assembly {\n            let ptr := mload(0x40)\n            calldatacopy(ptr, 0, calldatasize())\n            let result := delegatecall(gas(), _impl, ptr, calldatasize(), 0, 0)\n            let size := returndatasize()\n            returndatacopy(ptr, 0, size)\n\n            switch result\n                case 0 {\n                    revert(ptr, size)\n                }\n                default {\n                    return(ptr, size)\n                }\n        }\n    }\n\n    // ======== Receive =========\n\n    receive() external payable {} // solhint-disable-line no-empty-blocks\n}",
  "sourcePath": "contracts/InitializedProxy.sol",
  "type": "contract"
}