{
  "abi": [
    {
      "inputs": [
        {
          "internalType": "address",
          "name": "_settings",
          "type": "address"
        }
      ],
      "stateMutability": "nonpayable",
      "type": "constructor"
    },
    {
      "anonymous": false,
      "inputs": [
        {
          "indexed": true,
          "internalType": "address",
          "name": "owner",
          "type": "address"
        },
        {
          "indexed": true,
          "internalType": "address",
          "name": "spender",
          "type": "address"
        },
        {
          "indexed": false,
          "internalType": "uint256",
          "name": "value",
          "type": "uint256"
        }
      ],
      "name": "Approval",
      "type": "event"
    },
    {
      "anonymous": false,
      "inputs": [
        {
          "indexed": true,
          "internalType": "address",
          "name": "buyer",
          "type": "address"
        },
        {
          "indexed": false,
          "internalType": "uint256",
          "name": "price",
          "type": "uint256"
        }
      ],
      "name": "Bid",
      "type": "event"
    },
    {
      "anonymous": false,
      "inputs": [
        {
          "indexed": true,
          "internalType": "address",
          "name": "owner",
          "type": "address"
        },
        {
          "indexed": false,
          "internalType": "uint256",
          "name": "shares",
          "type": "uint256"
        }
      ],
      "name": "Cash",
      "type": "event"
    },
    {
      "anonymous": false,
      "inputs": [
        {
          "indexed": false,
          "internalType": "uint256",
          "name": "fee",
          "type": "uint256"
        }
      ],
      "name": "FeeClaimed",
      "type": "event"
    },
    {
      "anonymous": false,
      "inputs": [
        {
          "indexed": true,
          "internalType": "address",
          "name": "user",
          "type": "address"
        },
        {
          "indexed": false,
          "internalType": "uint256",
          "name": "price",
          "type": "uint256"
        }
      ],
      "name": "PriceUpdate",
      "type": "event"
    },
    {
      "anonymous": false,
      "inputs": [
        {
          "indexed": true,
          "internalType": "address",
          "name": "redeemer",
          "type": "address"
        }
      ],
      "name": "Redeem",
      "type": "event"
    },
    {
      "anonymous": false,
      "inputs": [
        {
          "indexed": true,
          "internalType": "address",
          "name": "buyer",
          "type": "address"
        },
        {
          "indexed": false,
          "internalType": "uint256",
          "name": "price",
          "type": "uint256"
        }
      ],
      "name": "Start",
      "type": "event"
    },
    {
      "anonymous": false,
      "inputs": [
        {
          "indexed": true,
          "internalType": "address",
          "name": "from",
          "type": "address"
        },
        {
          "indexed": true,
          "internalType": "address",
          "name": "to",
          "type": "address"
        },
        {
          "indexed": false,
          "internalType": "uint256",
          "name": "value",
          "type": "uint256"
        }
      ],
      "name": "Transfer",
      "type": "event"
    },
    {
      "anonymous": false,
      "inputs": [
        {
          "indexed": false,
          "internalType": "uint256",
          "name": "length",
          "type": "uint256"
        }
      ],
      "name": "UpdateAuctionLength",
      "type": "event"
    },
    {
      "anonymous": false,
      "inputs": [
        {
          "indexed": false,
          "internalType": "uint256",
          "name": "fee",
          "type": "uint256"
        }
      ],
      "name": "UpdateCuratorFee",
      "type": "event"
    },
    {
      "anonymous": false,
      "inputs": [
        {
          "indexed": true,
          "internalType": "address",
          "name": "buyer",
          "type": "address"
        },
        {
          "indexed": false,
          "internalType": "uint256",
          "name": "price",
          "type": "uint256"
        }
      ],
      "name": "Won",
      "type": "event"
    },
    {
      "inputs": [
        {
          "internalType": "address",
          "name": "owner",
          "type": "address"
        },
        {
          "internalType": "address",
          "name": "spender",
          "type": "address"
        }
      ],
      "name": "allowance",
      "outputs": [
        {
          "internalType": "uint256",
          "name": "",
          "type": "uint256"
        }
      ],
      "stateMutability": "view",
      "type": "function"
    },
    {
      "inputs": [
        {
          "internalType": "address",
          "name": "spender",
          "type": "address"
        },
        {
          "internalType": "uint256",
          "name": "amount",
          "type": "uint256"
        }
      ],
      "name": "approve",
      "outputs": [
        {
          "internalType": "bool",
          "name": "",
          "type": "bool"
        }
      ],
      "stateMutability": "nonpayable",
      "type": "function"
    },
    {
      "inputs": [],
      "name": "auctionEnd",
      "outputs": [
        {
          "internalType": "uint256",
          "name": "",
          "type": "uint256"
        }
      ],
      "stateMutability": "view",
      "type": "function"
    },
    {
      "inputs": [],
      "name": "auctionLength",
      "outputs": [
        {
          "internalType": "uint256",
          "name": "",
          "type": "uint256"
        }
      ],
      "stateMutability": "view",
      "type": "function"
    },
    {
      "inputs": [],
      "name": "auctionState",
      "outputs": [
        {
          "internalType": "enum TokenVault.State",
          "name": "",
          "type": "uint8"
        }
      ],
      "stateMutability": "view",
      "type": "function"
    },
    {
      "inputs": [
        {
          "internalType": "address",
          "name": "account",
          "type": "address"
        }
      ],
      "name": "balanceOf",
      "outputs": [
        {
          "internalType": "uint256",
          "name": "",
          "type": "uint256"
        }
      ],
      "stateMutability": "view",
      "type": "function"
    },
    {
      "inputs": [],
      "name": "bid",
      "outputs": [],
      "stateMutability": "payable",
      "type": "function"
    },
    {
      "inputs": [],
      "name": "cash",
      "outputs": [],
      "stateMutability": "nonpayable",
      "type": "function"
    },
    {
      "inputs": [],
      "name": "claimFees",
      "outputs": [],
      "stateMutability": "nonpayable",
      "type": "function"
    },
    {
      "inputs": [],
      "name": "curator",
      "outputs": [
        {
          "internalType": "address",
          "name": "",
          "type": "address"
        }
      ],
      "stateMutability": "view",
      "type": "function"
    },
    {
      "inputs": [],
      "name": "decimals",
      "outputs": [
        {
          "internalType": "uint8",
          "name": "",
          "type": "uint8"
        }
      ],
      "stateMutability": "view",
      "type": "function"
    },
    {
      "inputs": [
        {
          "internalType": "address",
          "name": "spender",
          "type": "address"
        },
        {
          "internalType": "uint256",
          "name": "subtractedValue",
          "type": "uint256"
        }
      ],
      "name": "decreaseAllowance",
      "outputs": [
        {
          "internalType": "bool",
          "name": "",
          "type": "bool"
        }
      ],
      "stateMutability": "nonpayable",
      "type": "function"
    },
    {
      "inputs": [],
      "name": "end",
      "outputs": [],
      "stateMutability": "nonpayable",
      "type": "function"
    },
    {
      "inputs": [],
      "name": "fee",
      "outputs": [
        {
          "internalType": "uint256",
          "name": "",
          "type": "uint256"
        }
      ],
      "stateMutability": "view",
      "type": "function"
    },
    {
      "inputs": [],
      "name": "id",
      "outputs": [
        {
          "internalType": "uint256",
          "name": "",
          "type": "uint256"
        }
      ],
      "stateMutability": "view",
      "type": "function"
    },
    {
      "inputs": [
        {
          "internalType": "address",
          "name": "spender",
          "type": "address"
        },
        {
          "internalType": "uint256",
          "name": "addedValue",
          "type": "uint256"
        }
      ],
      "name": "increaseAllowance",
      "outputs": [
        {
          "internalType": "bool",
          "name": "",
          "type": "bool"
        }
      ],
      "stateMutability": "nonpayable",
      "type": "function"
    },
    {
      "inputs": [
        {
          "internalType": "address",
          "name": "_curator",
          "type": "address"
        },
        {
          "internalType": "address",
          "name": "_token",
          "type": "address"
        },
        {
          "internalType": "uint256",
          "name": "_id",
          "type": "uint256"
        },
        {
          "internalType": "uint256",
          "name": "_supply",
          "type": "uint256"
        },
        {
          "internalType": "uint256",
          "name": "_listPrice",
          "type": "uint256"
        },
        {
          "internalType": "uint256",
          "name": "_fee",
          "type": "uint256"
        },
        {
          "internalType": "string",
          "name": "_name",
          "type": "string"
        },
        {
          "internalType": "string",
          "name": "_symbol",
          "type": "string"
        }
      ],
      "name": "initialize",
      "outputs": [],
      "stateMutability": "nonpayable",
      "type": "function"
    },
    {
      "inputs": [
        {
          "internalType": "address",
          "name": "_curator",
          "type": "address"
        }
      ],
      "name": "kickCurator",
      "outputs": [],
      "stateMutability": "nonpayable",
      "type": "function"
    },
    {
      "inputs": [],
      "name": "lastClaimed",
      "outputs": [
        {
          "internalType": "uint256",
          "name": "",
          "type": "uint256"
        }
      ],
      "stateMutability": "view",
      "type": "function"
    },
    {
      "inputs": [],
      "name": "livePrice",
      "outputs": [
        {
          "internalType": "uint256",
          "name": "",
          "type": "uint256"
        }
      ],
      "stateMutability": "view",
      "type": "function"
    },
    {
      "inputs": [],
      "name": "name",
      "outputs": [
        {
          "internalType": "string",
          "name": "",
          "type": "string"
        }
      ],
      "stateMutability": "view",
      "type": "function"
    },
    {
      "inputs": [
        {
          "internalType": "address",
          "name": "",
          "type": "address"
        },
        {
          "internalType": "address",
          "name": "",
          "type": "address"
        },
        {
          "internalType": "uint256",
          "name": "",
          "type": "uint256"
        },
        {
          "internalType": "bytes",
          "name": "",
          "type": "bytes"
        }
      ],
      "name": "onERC721Received",
      "outputs": [
        {
          "internalType": "bytes4",
          "name": "",
          "type": "bytes4"
        }
      ],
      "stateMutability": "nonpayable",
      "type": "function"
    },
    {
      "inputs": [],
      "name": "redeem",
      "outputs": [],
      "stateMutability": "nonpayable",
      "type": "function"
    },
    {
      "inputs": [
        {
          "internalType": "address",
          "name": "_user",
          "type": "address"
        }
      ],
      "name": "removeReserve",
      "outputs": [],
      "stateMutability": "nonpayable",
      "type": "function"
    },
    {
      "inputs": [],
      "name": "reservePrice",
      "outputs": [
        {
          "internalType": "uint256",
          "name": "",
          "type": "uint256"
        }
      ],
      "stateMutability": "view",
      "type": "function"
    },
    {
      "inputs": [],
      "name": "reserveTotal",
      "outputs": [
        {
          "internalType": "uint256",
          "name": "",
          "type": "uint256"
        }
      ],
      "stateMutability": "view",
      "type": "function"
    },
    {
      "inputs": [],
      "name": "settings",
      "outputs": [
        {
          "internalType": "address",
          "name": "",
          "type": "address"
        }
      ],
      "stateMutability": "view",
      "type": "function"
    },
    {
      "inputs": [],
      "name": "start",
      "outputs": [],
      "stateMutability": "payable",
      "type": "function"
    },
    {
      "inputs": [],
      "name": "symbol",
      "outputs": [
        {
          "internalType": "string",
          "name": "",
          "type": "string"
        }
      ],
      "stateMutability": "view",
      "type": "function"
    },
    {
      "inputs": [],
      "name": "token",
      "outputs": [
        {
          "internalType": "address",
          "name": "",
          "type": "address"
        }
      ],
      "stateMutability": "view",
      "type": "function"
    },
    {
      "inputs": [],
      "name": "totalSupply",
      "outputs": [
        {
          "internalType": "uint256",
          "name": "",
          "type": "uint256"
        }
      ],
      "stateMutability": "view",
      "type": "function"
    },
    {
      "inputs": [
        {
          "internalType": "address",
          "name": "recipient",
          "type": "address"
        },
        {
          "internalType": "uint256",
          "name": "amount",
          "type": "uint256"
        }
      ],
      "name": "transfer",
      "outputs": [
        {
          "internalType": "bool",
          "name": "",
          "type": "bool"
        }
      ],
      "stateMutability": "nonpayable",
      "type": "function"
    },
    {
      "inputs": [
        {
          "internalType": "address",
          "name": "sender",
          "type": "address"
        },
        {
          "internalType": "address",
          "name": "recipient",
          "type": "address"
        },
        {
          "internalType": "uint256",
          "name": "amount",
          "type": "uint256"
        }
      ],
      "name": "transferFrom",
      "outputs": [
        {
          "internalType": "bool",
          "name": "",
          "type": "bool"
        }
      ],
      "stateMutability": "nonpayable",
      "type": "function"
    },
    {
      "inputs": [
        {
          "internalType": "uint256",
          "name": "_length",
          "type": "uint256"
        }
      ],
      "name": "updateAuctionLength",
      "outputs": [],
      "stateMutability": "nonpayable",
      "type": "function"
    },
    {
      "inputs": [
        {
          "internalType": "address",
          "name": "_curator",
          "type": "address"
        }
      ],
      "name": "updateCurator",
      "outputs": [],
      "stateMutability": "nonpayable",
      "type": "function"
    },
    {
      "inputs": [
        {
          "internalType": "uint256",
          "name": "_fee",
          "type": "uint256"
        }
      ],
      "name": "updateFee",
      "outputs": [],
      "stateMutability": "nonpayable",
      "type": "function"
    },
    {
      "inputs": [
        {
          "internalType": "uint256",
          "name": "_new",
          "type": "uint256"
        }
      ],
      "name": "updateUserPrice",
      "outputs": [],
      "stateMutability": "nonpayable",
      "type": "function"
    },
    {
      "inputs": [
        {
          "internalType": "address",
          "name": "",
          "type": "address"
        }
      ],
      "name": "userPrices",
      "outputs": [
        {
          "internalType": "uint256",
          "name": "",
          "type": "uint256"
        }
      ],
      "stateMutability": "view",
      "type": "function"
    },
    {
      "inputs": [],
      "name": "vaultClosed",
      "outputs": [
        {
          "internalType": "bool",
          "name": "",
          "type": "bool"
        }
      ],
      "stateMutability": "view",
      "type": "function"
    },
    {
      "inputs": [],
      "name": "votingTokens",
      "outputs": [
        {
          "internalType": "uint256",
          "name": "",
          "type": "uint256"
        }
      ],
      "stateMutability": "view",
      "type": "function"
    },
    {
      "inputs": [],
      "name": "weth",
      "outputs": [
        {
          "internalType": "address",
          "name": "",
          "type": "address"
        }
      ],
      "stateMutability": "view",
      "type": "function"
    },
    {
      "inputs": [],
      "name": "winning",
      "outputs": [
        {
          "internalType": "address payable",
          "name": "",
          "type": "address"
        }
      ],
      "stateMutability": "view",
      "type": "function"
    }
  ],
  "bytecode": "60a06040523480156200001157600080fd5b506040516200333038038062003330833981016040819052620000349162000046565b6001600160a01b031660805262000078565b6000602082840312156200005957600080fd5b81516001600160a01b03811681146200007157600080fd5b9392505050565b608051613241620000ef6000396000818161071e0152818161090301528181610b7901528181610c7401528181610d020152818161104301528181611132015281816112db015281816113ca01528181611537015281816117b401528181611c9b0152818161266701526126ef01526132416000f3fe6080604052600436106102515760003560e01c806380436fe011610139578063be040fb0116100b6578063dd62ed3e1161007a578063dd62ed3e146106b0578063ddca3f43146106f6578063e06174e41461070c578063e66f53b714610740578063efbe1c1c14610760578063fc0c546a1461077557600080fd5b8063be040fb01461063c578063be9a655514610651578063c91de64914610659578063d294f09314610686578063db2e1eed1461069b57600080fd5b80639a4e6d34116100fd5780639a4e6d34146105ba578063a457c2d7146105d0578063a9059cbb146105f0578063adc1b95614610610578063af640d0f1461062657600080fd5b806380436fe014610530578063853a1b90146105505780639012c4a81461057057806395d89b4114610590578063961be391146105a557600080fd5b8063313ce567116101d2578063626fb2f011610196578063626fb2f0146104605780636a775714146104805780636da84e6c146104a057806370a08231146104b65780637b5581ed146104ec5780637fb450991461050257600080fd5b8063313ce567146103b4578063325c25a2146103d057806339509351146103e65780633fc8cef3146104065780635c9920fc1461044657600080fd5b80631998aeef116102195780631998aeef1461033657806323b872dd1461033e5780632a24f46c1461035e5780632a44f120146103745780632bf33bd91461039457600080fd5b806306fdde0314610256578063095ea7b3146102815780630c6a62dd146102b1578063150b7a02146102d357806318160ddd14610317575b600080fd5b34801561026257600080fd5b5061026b610795565b6040516102789190612ccb565b60405180910390f35b34801561028d57600080fd5b506102a161029c366004612d35565b610827565b6040519015158152602001610278565b3480156102bd57600080fd5b506102d16102cc366004612d61565b61083d565b005b3480156102df57600080fd5b506102fe6102ee366004612e11565b630a85bd0160e11b949350505050565b6040516001600160e01b03199091168152602001610278565b34801561032357600080fd5b506035545b604051908152602001610278565b6102d1610892565b34801561034a57600080fd5b506102a1610359366004612e91565b610acd565b34801561036a57600080fd5b5061032860995481565b34801561038057600080fd5b506102d161038f366004612d61565b610b77565b3480156103a057600080fd5b506102d16103af366004612ed2565b610c48565b3480156103c057600080fd5b5060405160128152602001610278565b3480156103dc57600080fd5b50610328609a5481565b3480156103f257600080fd5b506102a1610401366004612d35565b610e10565b34801561041257600080fd5b5061042e73c02aaa39b223fe8d0a0e5c4f27ead9083c756cc281565b6040516001600160a01b039091168152602001610278565b34801561045257600080fd5b5060a1546102a19060ff1681565b34801561046c57600080fd5b506102d161047b366004612f0b565b610e4c565b34801561048c57600080fd5b506102d161049b366004612ed2565b610f3d565b3480156104ac57600080fd5b50610328609c5481565b3480156104c257600080fd5b506103286104d1366004612d61565b6001600160a01b031660009081526033602052604090205490565b3480156104f857600080fd5b50610328609b5481565b34801561050e57600080fd5b50609d5461052390600160a01b900460ff1681565b6040516102789190612fd1565b34801561053c57600080fd5b506102d161054b366004612d61565b611535565b34801561055c57600080fd5b50609d5461042e906001600160a01b031681565b34801561057c57600080fd5b506102d161058b366004612ed2565b611742565b34801561059c57600080fd5b5061026b6118ce565b3480156105b157600080fd5b506102d16118dd565b3480156105c657600080fd5b5061032860a25481565b3480156105dc57600080fd5b506102a16105eb366004612d35565b611a15565b3480156105fc57600080fd5b506102a161060b366004612d35565b611aae565b34801561061c57600080fd5b5061032860a05481565b34801561063257600080fd5b5061032860985481565b34801561064857600080fd5b506102d1611abb565b6102d1611bde565b34801561066557600080fd5b50610328610674366004612d61565b60a36020526000908152604090205481565b34801561069257600080fd5b506102d1611ded565b3480156106a757600080fd5b50610328611df7565b3480156106bc57600080fd5b506103286106cb366004612ff9565b6001600160a01b03918216600090815260346020908152604080832093909416825291909152205490565b34801561070257600080fd5b50610328609f5481565b34801561071857600080fd5b5061042e7f000000000000000000000000000000000000000000000000000000000000000081565b34801561074c57600080fd5b50609e5461042e906001600160a01b031681565b34801561076c57600080fd5b506102d1611e1e565b34801561078157600080fd5b5060975461042e906001600160a01b031681565b6060603680546107a490613032565b80601f01602080910402602001604051908101604052809291908181526020018280546107d090613032565b801561081d5780601f106107f25761010080835404028352916020019161081d565b820191906000526020600020905b81548152906001019060200180831161080057829003601f168201915b5050505050905090565b6000610834338484611f9e565b50600192915050565b609e546001600160a01b031633146108705760405162461bcd60e51b81526004016108679061306c565b60405180910390fd5b609e80546001600160a01b0319166001600160a01b0392909216919091179055565b6001609d54600160a01b900460ff1660038111156108b2576108b2612fbb565b146108ff5760405162461bcd60e51b815260206004820152601760248201527f6269643a61756374696f6e206973206e6f74206c6976650000000000000000006044820152606401610867565b60007f00000000000000000000000000000000000000000000000000000000000000006001600160a01b0316637c513c0f6040518163ffffffff1660e01b81526004016020604051808303816000875af1158015610961573d6000803e3d6000fd5b505050506040513d601f19601f820116820180604052508101906109859190613098565b610991906103e86130c7565b905080609c546109a191906130df565b6109ad346103e86130df565b10156109ed5760405162461bcd60e51b815260206004820152600f60248201526e189a590e9d1bdbc81b1bddc8189a59608a1b6044820152606401610867565b6099544210610a325760405162461bcd60e51b8152602060048201526011602482015270189a590e985d58dd1a5bdb88195b991959607a1b6044820152606401610867565b61038442609954610a4391906130fe565b11610a625761038460996000828254610a5c91906130c7565b90915550505b609d54609c54610a7b916001600160a01b0316906120c2565b34609c819055609d80546001600160a01b03191633908117909155604051918252907fe684a55f31b79eca403df938249029212a5925ec6be8012e099b45bc1019e5d29060200160405180910390a250565b6000610ada8484846121c4565b6001600160a01b038416600090815260346020908152604080832033845290915290205482811015610b5f5760405162461bcd60e51b815260206004820152602860248201527f45524332303a207472616e7366657220616d6f756e74206578636565647320616044820152676c6c6f77616e636560c01b6064820152608401610867565b610b6c8533858403611f9e565b506001949350505050565b7f00000000000000000000000000000000000000000000000000000000000000006001600160a01b0316638da5cb5b6040518163ffffffff1660e01b8152600401602060405180830381865afa158015610bd5573d6000803e3d6000fd5b505050506040513d601f19601f82011682018060405250810190610bf99190613115565b6001600160a01b0316336001600160a01b0316146108705760405162461bcd60e51b815260206004820152600c60248201526b35b4b1b59d3737ba1033b7bb60a11b6044820152606401610867565b609e546001600160a01b03163314610c725760405162461bcd60e51b81526004016108679061306c565b7f00000000000000000000000000000000000000000000000000000000000000006001600160a01b031663a0b335e36040518163ffffffff1660e01b81526004016020604051808303816000875af1158015610cd2573d6000803e3d6000fd5b505050506040513d601f19601f82011682018060405250810190610cf69190613098565b8110158015610d8857507f00000000000000000000000000000000000000000000000000000000000000006001600160a01b0316630e519ef96040518163ffffffff1660e01b81526004016020604051808303816000875af1158015610d60573d6000803e3d6000fd5b505050506040513d601f19601f82011682018060405250810190610d849190613098565b8111155b610dd45760405162461bcd60e51b815260206004820152601d60248201527f7570646174653a696e76616c69642061756374696f6e206c656e6774680000006044820152606401610867565b609a8190556040518181527f4ab86ae701798277aa378943b9dfd155d3b19703cd57be298908fadd32f7bf46906020015b60405180910390a150565b3360008181526034602090815260408083206001600160a01b03871684529091528120549091610834918590610e479086906130c7565b611f9e565b600054610100900460ff1680610e65575060005460ff16155b610e815760405162461bcd60e51b815260040161086790613132565b600054610100900460ff16158015610ea3576000805461ffff19166101011790555b610ead83836123a9565b610eb5612428565b609780546001600160a01b038a81166001600160a01b03199283161790925560988990556203f480609a55609e8054928c169290911682179055609f8590554260a055609d805460ff60a01b19169055600090815260a360205260409020859055610f20898761249c565b8015610f32576000805461ff00191690555b505050505050505050565b6000609d54600160a01b900460ff166003811115610f5d57610f5d612fbb565b14610f7a5760405162461bcd60e51b815260040161086790613180565b33600090815260a36020526040902054808203610fd05760405162461bcd60e51b81526020600482015260146024820152737570646174653a6e6f7420616e2075706461746560601b6044820152606401610867565b3360009081526033602052604081205460a2549091036110015760a2819055610ff983826130df565b609b556114e4565b60a2548114801561101157508115155b1561102057610ff983826130df565b8160000361125b57600060a254609b5461103a91906131c7565b905060006103e87f00000000000000000000000000000000000000000000000000000000000000006001600160a01b03166309990a966040518163ffffffff1660e01b81526004016020604051808303816000875af11580156110a1573d6000803e3d6000fd5b505050506040513d601f19601f820116820180604052508101906110c59190613098565b6110cf90846130df565b6110d991906131c7565b90508085101561112b5760405162461bcd60e51b815260206004820152601c60248201527f7570646174653a7265736572766520707269636520746f6f206c6f77000000006044820152606401610867565b60006103e87f00000000000000000000000000000000000000000000000000000000000000006001600160a01b0316635410bfc96040518163ffffffff1660e01b81526004016020604051808303816000875af1158015611190573d6000803e3d6000fd5b505050506040513d601f19601f820116820180604052508101906111b49190613098565b6111be90856130df565b6111c891906131c7565b90508086111561121a5760405162461bcd60e51b815260206004820152601d60248201527f7570646174653a7265736572766520707269636520746f6f20686967680000006044820152606401610867565b8360a2600082825461122c91906130c7565b9091555061123c905086856130df565b609b600082825461124d91906130c7565b909155506114e49350505050565b826000036112a1578060a2600082825461127591906130fe565b90915550611285905082826130df565b609b600082825461129691906130fe565b909155506114e49050565b60008160a2546112b191906130fe565b6112bb83856130df565b609b546112c891906130fe565b6112d291906131c7565b905060006103e87f00000000000000000000000000000000000000000000000000000000000000006001600160a01b03166309990a966040518163ffffffff1660e01b81526004016020604051808303816000875af1158015611339573d6000803e3d6000fd5b505050506040513d601f19601f8201168201806040525081019061135d9190613098565b61136790846130df565b61137191906131c7565b9050808510156113c35760405162461bcd60e51b815260206004820152601c60248201527f7570646174653a7265736572766520707269636520746f6f206c6f77000000006044820152606401610867565b60006103e87f00000000000000000000000000000000000000000000000000000000000000006001600160a01b0316635410bfc96040518163ffffffff1660e01b81526004016020604051808303816000875af1158015611428573d6000803e3d6000fd5b505050506040513d601f19601f8201168201806040525081019061144c9190613098565b61145690856130df565b61146091906131c7565b9050808611156114b25760405162461bcd60e51b815260206004820152601d60248201527f7570646174653a7265736572766520707269636520746f6f20686967680000006044820152606401610867565b6114bc85856130df565b6114c687866130df565b609b546114d391906130c7565b6114dd91906130fe565b609b555050505b33600081815260a3602052604090819020859055517f64e6e7bd72b853c4e62fd6ceaca05a104700c70a4cb567c75c7f2242ba7f037c906115289086815260200190565b60405180910390a2505050565b7f00000000000000000000000000000000000000000000000000000000000000006001600160a01b0316638da5cb5b6040518163ffffffff1660e01b8152600401602060405180830381865afa158015611593573d6000803e3d6000fd5b505050506040513d601f19601f820116820180604052508101906115b79190613115565b6001600160a01b0316336001600160a01b0316146116085760405162461bcd60e51b815260206004820152600e60248201526d3932b6b7bb329d3737ba1033b7bb60911b6044820152606401610867565b6000609d54600160a01b900460ff16600381111561162857611628612fbb565b146116455760405162461bcd60e51b815260040161086790613180565b6001600160a01b038116600090815260a36020526040812054908190036116a55760405162461bcd60e51b81526020600482015260146024820152737570646174653a6e6f7420616e2075706461746560601b6044820152606401610867565b6001600160a01b03821660009081526033602052604081205490508060a260008282546116d291906130fe565b909155506116e2905082826130df565b609b60008282546116f391906130fe565b90915550506001600160a01b038316600081815260a360209081526040808320839055519182527f64e6e7bd72b853c4e62fd6ceaca05a104700c70a4cb567c75c7f2242ba7f037c9101611528565b609e546001600160a01b0316331461176c5760405162461bcd60e51b81526004016108679061306c565b609f5481106117b25760405162461bcd60e51b81526020600482015260126024820152717570646174653a63616e277420726169736560701b6044820152606401610867565b7f00000000000000000000000000000000000000000000000000000000000000006001600160a01b0316638a364bc16040518163ffffffff1660e01b81526004016020604051808303816000875af1158015611812573d6000803e3d6000fd5b505050506040513d601f19601f820116820180604052508101906118369190613098565b8111156118915760405162461bcd60e51b8152602060048201526024808201527f7570646174653a63616e6e6f7420696e637265617365206665652074686973206044820152630d0d2ced60e31b6064820152608401610867565b61189961258f565b609f8190556040518181527f2d1dae59a9e9ec0bc2ab19d45b7d10c8c55304fa08b40a7998e9f67f03223d0490602001610e05565b6060603780546107a490613032565b6002609d54600160a01b900460ff1660038111156118fd576118fd612fbb565b1461194a5760405162461bcd60e51b815260206004820152601960248201527f636173683a7661756c74206e6f7420636c6f73656420796574000000000000006044820152606401610867565b33600090815260336020526040902054806119a75760405162461bcd60e51b815260206004820152601a60248201527f636173683a6e6f20746f6b656e7320746f2063617368206f75740000000000006044820152606401610867565b60006119b260355490565b6119bc47846130df565b6119c691906131c7565b90506119d23383612869565b6119dc33826120c2565b60405181815233907f730831a1e4aa2d187ddd8e03d7beeac760a3927da5f112d645e0f8df7494b3679060200160405180910390a25050565b3360009081526034602090815260408083206001600160a01b038616845290915281205482811015611a975760405162461bcd60e51b815260206004820152602560248201527f45524332303a2064656372656173656420616c6c6f77616e63652062656c6f77604482015264207a65726f60d81b6064820152608401610867565b611aa43385858403611f9e565b5060019392505050565b60006108343384846121c4565b6000609d54600160a01b900460ff166003811115611adb57611adb612fbb565b14611b1e5760405162461bcd60e51b815260206004820152601360248201527272656465656d3a6e6f2072656465656d696e6760681b6044820152606401610867565b611b3033611b2b60355490565b612869565b6097546098546040516323b872dd60e01b815230600482015233602482015260448101919091526001600160a01b03909116906323b872dd90606401600060405180830381600087803b158015611b8657600080fd5b505af1158015611b9a573d6000803e3d6000fd5b5050609d805460ff60a01b1916600360a01b179055505060405133907fd1b5ea7fe0f1c2fa09d49c2aa9b2200664ba57a734f1d95481d95b7f99af991c90600090a2565b6000609d54600160a01b900460ff166003811115611bfe57611bfe612fbb565b14611c4b5760405162461bcd60e51b815260206004820152601760248201527f73746172743a6e6f2061756374696f6e207374617274730000000000000000006044820152606401610867565b611c53611df7565b341015611c965760405162461bcd60e51b81526020600482015260116024820152701cdd185c9d0e9d1bdbc81b1bddc8189a59607a1b6044820152606401610867565b6035547f00000000000000000000000000000000000000000000000000000000000000006001600160a01b03166332977c736040518163ffffffff1660e01b81526004016020604051808303816000875af1158015611cf9573d6000803e3d6000fd5b505050506040513d601f19601f82011682018060405250810190611d1d9190613098565b611d2791906130df565b60a254611d36906103e86130df565b1015611d845760405162461bcd60e51b815260206004820152601760248201527f73746172743a6e6f7420656e6f75676820766f746572730000000000000000006044820152606401610867565b609a54611d9190426130c7565b609955609d805434609c8190556001600160a81b031990911633908117600160a01b179092556040519081527fcfb9c5312b25ec7b809d61e638df25f749eae5d5c25399e1c93d1d319bfd5821906020015b60405180910390a2565b611df561258f565b565b600060a254600014611e185760a254609b54611e1391906131c7565b905090565b50600090565b6001609d54600160a01b900460ff166003811115611e3e57611e3e612fbb565b14611e8b5760405162461bcd60e51b815260206004820152601c60248201527f656e643a7661756c742068617320616c726561647920636c6f736564000000006044820152606401610867565b609954421015611ed05760405162461bcd60e51b815260206004820152601060248201526f656e643a61756374696f6e206c69766560801b6044820152606401610867565b611ed861258f565b609754609d546098546040516323b872dd60e01b81523060048201526001600160a01b03928316602482015260448101919091529116906323b872dd90606401600060405180830381600087803b158015611f3257600080fd5b505af1158015611f46573d6000803e3d6000fd5b5050609d8054600160a11b60ff60a01b19821617909155609c546040519081526001600160a01b0390911692507f8b01f9dd0400d6a1e84369a5fb8f6033934856ffa8ebadd707dca302ab5516959150602001611de3565b6001600160a01b0383166120005760405162461bcd60e51b8152602060048201526024808201527f45524332303a20617070726f76652066726f6d20746865207a65726f206164646044820152637265737360e01b6064820152608401610867565b6001600160a01b0382166120615760405162461bcd60e51b815260206004820152602260248201527f45524332303a20617070726f766520746f20746865207a65726f206164647265604482015261737360f01b6064820152608401610867565b6001600160a01b0383811660008181526034602090815260408083209487168084529482529182902085905590518481527f8c5be1e5ebec7d5bd14f71427d1e84f3dd0314c0f7b2291e5b200ac8c7c3b925910160405180910390a3505050565b6120cc82826129ca565b6121c05773c02aaa39b223fe8d0a0e5c4f27ead9083c756cc26001600160a01b031663d0e30db0826040518263ffffffff1660e01b81526004016000604051808303818588803b15801561211f57600080fd5b505af1158015612133573d6000803e3d6000fd5b505060405163a9059cbb60e01b81526001600160a01b03861660048201526024810185905273c02aaa39b223fe8d0a0e5c4f27ead9083c756cc2935063a9059cbb925060440190506020604051808303816000875af115801561219a573d6000803e3d6000fd5b505050506040513d601f19601f820116820180604052508101906121be91906131e9565b505b5050565b6001600160a01b0383166122285760405162461bcd60e51b815260206004820152602560248201527f45524332303a207472616e736665722066726f6d20746865207a65726f206164604482015264647265737360d81b6064820152608401610867565b6001600160a01b03821661228a5760405162461bcd60e51b815260206004820152602360248201527f45524332303a207472616e7366657220746f20746865207a65726f206164647260448201526265737360e81b6064820152608401610867565b612295838383612a2d565b6001600160a01b0383166000908152603360205260409020548181101561230d5760405162461bcd60e51b815260206004820152602660248201527f45524332303a207472616e7366657220616d6f756e7420657863656564732062604482015265616c616e636560d01b6064820152608401610867565b6001600160a01b038085166000908152603360205260408082208585039055918516815290812080548492906123449084906130c7565b92505081905550826001600160a01b0316846001600160a01b03167fddf252ad1be2c89b69c2b068fc378daa952ba7f163c4a11628f55a4df523b3ef8460405161239091815260200190565b60405180910390a36123a38484846121be565b50505050565b600054610100900460ff16806123c2575060005460ff16155b6123de5760405162461bcd60e51b815260040161086790613132565b600054610100900460ff16158015612400576000805461ffff19166101011790555b612408612b33565b6124128383612b9d565b80156121be576000805461ff0019169055505050565b600054610100900460ff1680612441575060005460ff16155b61245d5760405162461bcd60e51b815260040161086790613132565b600054610100900460ff1615801561247f576000805461ffff19166101011790555b612487612b33565b8015612499576000805461ff00191690555b50565b6001600160a01b0382166124f25760405162461bcd60e51b815260206004820152601f60248201527f45524332303a206d696e7420746f20746865207a65726f2061646472657373006044820152606401610867565b6124fe60008383612a2d565b806035600082825461251091906130c7565b90915550506001600160a01b0382166000908152603360205260408120805483929061253d9084906130c7565b90915550506040518181526001600160a01b038316906000907fddf252ad1be2c89b69c2b068fc378daa952ba7f163c4a11628f55a4df523b3ef9060200160405180910390a36121c0600083836121be565b6002609d54600160a01b900460ff1660038111156125af576125af612fbb565b0361260a5760405162461bcd60e51b815260206004820152602560248201527f636c61696d3a63616e6e6f7420636c61696d2061667465722061756374696f6e60448201526420656e647360d81b6064820152608401610867565b60006103e861261860355490565b609f5461262591906130df565b61262f91906131c7565b905060006126416301e13380836131c7565b9050600060a0544261265391906130fe565b9050600061266183836130df565b905060007f00000000000000000000000000000000000000000000000000000000000000006001600160a01b031663b3f006746040518163ffffffff1660e01b81526004016020604051808303816000875af11580156126c5573d6000803e3d6000fd5b505050506040513d601f19601f820116820180604052508101906126e99190613115565b905060007f00000000000000000000000000000000000000000000000000000000000000006001600160a01b0316630ea90a126040518163ffffffff1660e01b81526004016020604051808303816000875af115801561274d573d6000803e3d6000fd5b505050506040513d601f19601f820116820180604052508101906127719190613098565b90506103e861277f60355490565b61278990836130df565b61279391906131c7565b95506127a36301e13380876131c7565b945060006127b186866130df565b4260a055609e549091506001600160a01b03161561281357609e546127df906001600160a01b03168561249c565b6040518481527f62b10e3ff3d45b5ff546e740b893897facb1680285f989a64ae932d62c5388e19060200160405180910390a15b6001600160a01b038316156128605761282c838261249c565b6040518181527f62b10e3ff3d45b5ff546e740b893897facb1680285f989a64ae932d62c5388e19060200160405180910390a15b50505050505050565b6001600160a01b0382166128c95760405162461bcd60e51b815260206004820152602160248201527f45524332303a206275726e2066726f6d20746865207a65726f206164647265736044820152607360f81b6064820152608401610867565b6128d582600083612a2d565b6001600160a01b038216600090815260336020526040902054818110156129495760405162461bcd60e51b815260206004820152602260248201527f45524332303a206275726e20616d6f756e7420657863656564732062616c616e604482015261636560f01b6064820152608401610867565b6001600160a01b03831660009081526033602052604081208383039055603580548492906129789084906130fe565b90915550506040518281526000906001600160a01b038516907fddf252ad1be2c89b69c2b068fc378daa952ba7f163c4a11628f55a4df523b3ef9060200160405180910390a36121be836000846121be565b600080836001600160a01b03168361753090604051600060405180830381858888f193505050503d8060008114612a1d576040519150601f19603f3d011682016040523d82523d6000602084013e612a22565b606091505b509095945050505050565b6000609d54600160a01b900460ff166003811115612a4d57612a4d612fbb565b036121be576001600160a01b03808416600090815260a36020526040808220549285168252902054808214612b2c5780600003612ac2578260a26000828254612a9691906130fe565b90915550612aa6905082846130df565b609b6000828254612ab791906130fe565b90915550612b2c9050565b81600003612afd578260a26000828254612adc91906130c7565b90915550612aec905081846130df565b609b6000828254612ab791906130c7565b612b0782846130df565b612b1182856130df565b609b54612b1e91906130c7565b612b2891906130fe565b609b555b5050505050565b600054610100900460ff1680612b4c575060005460ff16155b612b685760405162461bcd60e51b815260040161086790613132565b600054610100900460ff16158015612487576000805461ffff19166101011790558015612499576000805461ff001916905550565b600054610100900460ff1680612bb6575060005460ff16155b612bd25760405162461bcd60e51b815260040161086790613132565b600054610100900460ff16158015612bf4576000805461ffff19166101011790555b8251612c07906036906020860190612c32565b508151612c1b906037906020850190612c32565b5080156121be576000805461ff0019169055505050565b828054612c3e90613032565b90600052602060002090601f016020900481019282612c605760008555612ca6565b82601f10612c7957805160ff1916838001178555612ca6565b82800160010185558215612ca6579182015b82811115612ca6578251825591602001919060010190612c8b565b50612cb2929150612cb6565b5090565b5b80821115612cb25760008155600101612cb7565b600060208083528351808285015260005b81811015612cf857858101830151858201604001528201612cdc565b81811115612d0a576000604083870101525b50601f01601f1916929092016040019392505050565b6001600160a01b038116811461249957600080fd5b60008060408385031215612d4857600080fd5b8235612d5381612d20565b946020939093013593505050565b600060208284031215612d7357600080fd5b8135612d7e81612d20565b9392505050565b634e487b7160e01b600052604160045260246000fd5b600067ffffffffffffffff80841115612db657612db6612d85565b604051601f8501601f19908116603f01168101908282118183101715612dde57612dde612d85565b81604052809350858152868686011115612df757600080fd5b858560208301376000602087830101525050509392505050565b60008060008060808587031215612e2757600080fd5b8435612e3281612d20565b93506020850135612e4281612d20565b925060408501359150606085013567ffffffffffffffff811115612e6557600080fd5b8501601f81018713612e7657600080fd5b612e8587823560208401612d9b565b91505092959194509250565b600080600060608486031215612ea657600080fd5b8335612eb181612d20565b92506020840135612ec181612d20565b929592945050506040919091013590565b600060208284031215612ee457600080fd5b5035919050565b600082601f830112612efc57600080fd5b612d7e83833560208501612d9b565b600080600080600080600080610100898b031215612f2857600080fd5b8835612f3381612d20565b97506020890135612f4381612d20565b965060408901359550606089013594506080890135935060a0890135925060c089013567ffffffffffffffff80821115612f7c57600080fd5b612f888c838d01612eeb565b935060e08b0135915080821115612f9e57600080fd5b50612fab8b828c01612eeb565b9150509295985092959890939650565b634e487b7160e01b600052602160045260246000fd5b6020810160048310612ff357634e487b7160e01b600052602160045260246000fd5b91905290565b6000806040838503121561300c57600080fd5b823561301781612d20565b9150602083013561302781612d20565b809150509250929050565b600181811c9082168061304657607f821691505b60208210810361306657634e487b7160e01b600052602260045260246000fd5b50919050565b6020808252601290820152713ab83230ba329d3737ba1031bab930ba37b960711b604082015260600190565b6000602082840312156130aa57600080fd5b5051919050565b634e487b7160e01b600052601160045260246000fd5b600082198211156130da576130da6130b1565b500190565b60008160001904831182151516156130f9576130f96130b1565b500290565b600082821015613110576131106130b1565b500390565b60006020828403121561312757600080fd5b8151612d7e81612d20565b6020808252602e908201527f496e697469616c697a61626c653a20636f6e747261637420697320616c72656160408201526d191e481a5b9a5d1a585b1a5e995960921b606082015260800190565b60208082526027908201527f7570646174653a61756374696f6e206c6976652063616e6e6f742075706461746040820152666520707269636560c81b606082015260800190565b6000826131e457634e487b7160e01b600052601260045260246000fd5b500490565b6000602082840312156131fb57600080fd5b81518015158114612d7e57600080fdfea2646970667358221220d79fdcfbec5366b8da582aadc2b988fd40c33dbce44e048f7fb657089b398ebf64736f6c634300080d0033",
  "bytecodeSha1": "c273464390101ac8d547c9d26ff16207c3769d67",
  "compiler": {
    "evm_version": "istanbul",
    "optimizer": {
      "enabled": true,
      "runs": 200
    },
    "version": "0.8.13+commit.abaa5c0e"
  },
  "contractName": "TokenVault",
  "language": "Solidity",
  "natspec": {
    "kind": "dev",
    "methods": {
      "allowance(address,address)": {
        "details": "See {IERC20-allowance}."
      },
      "approve(address,uint256)": {
        "details": "See {IERC20-approve}. Requirements: - `spender` cannot be the zero address."
      },
      "auctionEnd()": {
        "notice": "the unix timestamp end time of the token auction"
      },
      "auctionLength()": {
        "notice": "the length of auctions"
      },
      "balanceOf(address)": {
        "details": "See {IERC20-balanceOf}."
      },
      "bid()": {
        "notice": "an external function to bid on purchasing the vaults NFT. The msg.value is the bid amount"
      },
      "cash()": {
        "notice": "an external function to burn ERC20 tokens to receive ETH from ERC721 token purchase"
      },
      "claimFees()": {
        "notice": "external function to claim fees for the curator and governance"
      },
      "curator()": {
        "notice": "the address who initially deposited the NFT"
      },
      "decimals()": {
        "details": "Returns the number of decimals used to get its user representation. For example, if `decimals` equals `2`, a balance of `505` tokens should be displayed to a user as `5,05` (`505 / 10 ** 2`). Tokens usually opt for a value of 18, imitating the relationship between Ether and Wei. This is the value {ERC20} uses, unless this function is overridden; NOTE: This information is only used for _display_ purposes: it in no way affects any of the arithmetic of the contract, including {IERC20-balanceOf} and {IERC20-transfer}."
      },
      "decreaseAllowance(address,uint256)": {
        "details": "Atomically decreases the allowance granted to `spender` by the caller. This is an alternative to {approve} that can be used as a mitigation for problems described in {IERC20-approve}. Emits an {Approval} event indicating the updated allowance. Requirements: - `spender` cannot be the zero address. - `spender` must have allowance for the caller of at least `subtractedValue`."
      },
      "end()": {
        "notice": "an external function to end an auction after the timer has run out"
      },
      "fee()": {
        "notice": "the AUM fee paid to the curator yearly. 3 decimals. ie. 100 = 10%"
      },
      "id()": {
        "notice": "the ERC721 token ID of the vault's token"
      },
      "increaseAllowance(address,uint256)": {
        "details": "Atomically increases the allowance granted to `spender` by the caller. This is an alternative to {approve} that can be used as a mitigation for problems described in {IERC20-approve}. Emits an {Approval} event indicating the updated allowance. Requirements: - `spender` cannot be the zero address."
      },
      "kickCurator(address)": {
        "notice": "allow governance to boot a bad actor curator",
        "params": {
          "_curator": "the new curator"
        }
      },
      "lastClaimed()": {
        "notice": "the last timestamp where fees were claimed"
      },
      "livePrice()": {
        "notice": "the current price of the token during an auction"
      },
      "name()": {
        "details": "Returns the name of the token."
      },
      "onERC721Received(address,address,uint256,bytes)": {
        "details": "See {IERC721Receiver-onERC721Received}. Always returns `IERC721Receiver.onERC721Received.selector`."
      },
      "redeem()": {
        "notice": "an external function to burn all ERC20 tokens to receive the ERC721 token"
      },
      "removeReserve(address)": {
        "notice": "allow governance to remove bad reserve prices"
      },
      "reservePrice()": {
        "notice": "-------------------------------- -------- VIEW FUNCTIONS -------- --------------------------------"
      },
      "reserveTotal()": {
        "notice": "reservePrice * votingTokens"
      },
      "settings()": {
        "notice": "the governance contract which gets paid in ETH"
      },
      "start()": {
        "notice": "kick off an auction. Must send reservePrice in ETH"
      },
      "symbol()": {
        "details": "Returns the symbol of the token, usually a shorter version of the name."
      },
      "token()": {
        "notice": "the ERC721 token address of the vault's token"
      },
      "totalSupply()": {
        "details": "See {IERC20-totalSupply}."
      },
      "transfer(address,uint256)": {
        "details": "See {IERC20-transfer}. Requirements: - `recipient` cannot be the zero address. - the caller must have a balance of at least `amount`."
      },
      "transferFrom(address,address,uint256)": {
        "details": "See {IERC20-transferFrom}. Emits an {Approval} event indicating the updated allowance. This is not required by the EIP. See the note at the beginning of {ERC20}. Requirements: - `sender` and `recipient` cannot be the zero address. - `sender` must have a balance of at least `amount`. - the caller must have allowance for ``sender``'s tokens of at least `amount`."
      },
      "updateAuctionLength(uint256)": {
        "notice": "allow curator to update the auction length",
        "params": {
          "_length": "the new base price"
        }
      },
      "updateCurator(address)": {
        "notice": "allow curator to update the curator address",
        "params": {
          "_curator": "the new curator"
        }
      },
      "updateFee(uint256)": {
        "notice": "allow the curator to change their fee",
        "params": {
          "_fee": "the new fee"
        }
      },
      "updateUserPrice(uint256)": {
        "notice": "a function for an end user to update their desired sale price",
        "params": {
          "_new": "the desired price in ETH"
        }
      },
      "userPrices(address)": {
        "notice": "a mapping of users to their desired token price"
      },
      "vaultClosed()": {
        "notice": "a boolean to indicate if the vault has closed"
      },
      "votingTokens()": {
        "notice": "the number of ownership tokens voting on the reserve price at any given time"
      },
      "weth()": {
        "notice": "weth address"
      },
      "winning()": {
        "notice": "the current user winning the token auction"
      }
    },
    "version": 1
  },
  "opcodes": "PUSH1 0x80 PUSH1 0x40 MSTORE PUSH1 0x4 CALLDATASIZE LT PUSH2 0x251 JUMPI PUSH1 0x0 CALLDATALOAD PUSH1 0xE0 SHR DUP1 PUSH4 0x80436FE0 GT PUSH2 0x139 JUMPI DUP1 PUSH4 0xBE040FB0 GT PUSH2 0xB6 JUMPI DUP1 PUSH4 0xDD62ED3E GT PUSH2 0x7A JUMPI DUP1 PUSH4 0xDD62ED3E EQ PUSH2 0x6B0 JUMPI DUP1 PUSH4 0xDDCA3F43 EQ PUSH2 0x6F6 JUMPI DUP1 PUSH4 0xE06174E4 EQ PUSH2 0x70C JUMPI DUP1 PUSH4 0xE66F53B7 EQ PUSH2 0x740 JUMPI DUP1 PUSH4 0xEFBE1C1C EQ PUSH2 0x760 JUMPI DUP1 PUSH4 0xFC0C546A EQ PUSH2 0x775 JUMPI PUSH1 0x0 DUP1 REVERT JUMPDEST DUP1 PUSH4 0xBE040FB0 EQ PUSH2 0x63C JUMPI DUP1 PUSH4 0xBE9A6555 EQ PUSH2 0x651 JUMPI DUP1 PUSH4 0xC91DE649 EQ PUSH2 0x659 JUMPI DUP1 PUSH4 0xD294F093 EQ PUSH2 0x686 JUMPI DUP1 PUSH4 0xDB2E1EED EQ PUSH2 0x69B JUMPI PUSH1 0x0 DUP1 REVERT JUMPDEST DUP1 PUSH4 0x9A4E6D34 GT PUSH2 0xFD JUMPI DUP1 PUSH4 0x9A4E6D34 EQ PUSH2 0x5BA JUMPI DUP1 PUSH4 0xA457C2D7 EQ PUSH2 0x5D0 JUMPI DUP1 PUSH4 0xA9059CBB EQ PUSH2 0x5F0 JUMPI DUP1 PUSH4 0xADC1B956 EQ PUSH2 0x610 JUMPI DUP1 PUSH4 0xAF640D0F EQ PUSH2 0x626 JUMPI PUSH1 0x0 DUP1 REVERT JUMPDEST DUP1 PUSH4 0x80436FE0 EQ PUSH2 0x530 JUMPI DUP1 PUSH4 0x853A1B90 EQ PUSH2 0x550 JUMPI DUP1 PUSH4 0x9012C4A8 EQ PUSH2 0x570 JUMPI DUP1 PUSH4 0x95D89B41 EQ PUSH2 0x590 JUMPI DUP1 PUSH4 0x961BE391 EQ PUSH2 0x5A5 JUMPI PUSH1 0x0 DUP1 REVERT JUMPDEST DUP1 PUSH4 0x313CE567 GT PUSH2 0x1D2 JUMPI DUP1 PUSH4 0x626FB2F0 GT PUSH2 0x196 JUMPI DUP1 PUSH4 0x626FB2F0 EQ PUSH2 0x460 JUMPI DUP1 PUSH4 0x6A775714 EQ PUSH2 0x480 JUMPI DUP1 PUSH4 0x6DA84E6C EQ PUSH2 0x4A0 JUMPI DUP1 PUSH4 0x70A08231 EQ PUSH2 0x4B6 JUMPI DUP1 PUSH4 0x7B5581ED EQ PUSH2 0x4EC JUMPI DUP1 PUSH4 0x7FB45099 EQ PUSH2 0x502 JUMPI PUSH1 0x0 DUP1 REVERT JUMPDEST DUP1 PUSH4 0x313CE567 EQ PUSH2 0x3B4 JUMPI DUP1 PUSH4 0x325C25A2 EQ PUSH2 0x3D0 JUMPI DUP1 PUSH4 0x39509351 EQ PUSH2 0x3E6 JUMPI DUP1 PUSH4 0x3FC8CEF3 EQ PUSH2 0x406 JUMPI DUP1 PUSH4 0x5C9920FC EQ PUSH2 0x446 JUMPI PUSH1 0x0 DUP1 REVERT JUMPDEST DUP1 PUSH4 0x1998AEEF GT PUSH2 0x219 JUMPI DUP1 PUSH4 0x1998AEEF EQ PUSH2 0x336 JUMPI DUP1 PUSH4 0x23B872DD EQ PUSH2 0x33E JUMPI DUP1 PUSH4 0x2A24F46C EQ PUSH2 0x35E JUMPI DUP1 PUSH4 0x2A44F120 EQ PUSH2 0x374 JUMPI DUP1 PUSH4 0x2BF33BD9 EQ PUSH2 0x394 JUMPI PUSH1 0x0 DUP1 REVERT JUMPDEST DUP1 PUSH4 0x6FDDE03 EQ PUSH2 0x256 JUMPI DUP1 PUSH4 0x95EA7B3 EQ PUSH2 0x281 JUMPI DUP1 PUSH4 0xC6A62DD EQ PUSH2 0x2B1 JUMPI DUP1 PUSH4 0x150B7A02 EQ PUSH2 0x2D3 JUMPI DUP1 PUSH4 0x18160DDD EQ PUSH2 0x317 JUMPI JUMPDEST PUSH1 0x0 DUP1 REVERT JUMPDEST CALLVALUE DUP1 ISZERO PUSH2 0x262 JUMPI PUSH1 0x0 DUP1 REVERT JUMPDEST POP PUSH2 0x26B PUSH2 0x795 JUMP JUMPDEST PUSH1 0x40 MLOAD PUSH2 0x278 SWAP2 SWAP1 PUSH2 0x2CCB JUMP JUMPDEST PUSH1 0x40 MLOAD DUP1 SWAP2 SUB SWAP1 RETURN JUMPDEST CALLVALUE DUP1 ISZERO PUSH2 0x28D JUMPI PUSH1 0x0 DUP1 REVERT JUMPDEST POP PUSH2 0x2A1 PUSH2 0x29C CALLDATASIZE PUSH1 0x4 PUSH2 0x2D35 JUMP JUMPDEST PUSH2 0x827 JUMP JUMPDEST PUSH1 0x40 MLOAD SWAP1 ISZERO ISZERO DUP2 MSTORE PUSH1 0x20 ADD PUSH2 0x278 JUMP JUMPDEST CALLVALUE DUP1 ISZERO PUSH2 0x2BD JUMPI PUSH1 0x0 DUP1 REVERT JUMPDEST POP PUSH2 0x2D1 PUSH2 0x2CC CALLDATASIZE PUSH1 0x4 PUSH2 0x2D61 JUMP JUMPDEST PUSH2 0x83D JUMP JUMPDEST STOP JUMPDEST CALLVALUE DUP1 ISZERO PUSH2 0x2DF JUMPI PUSH1 0x0 DUP1 REVERT JUMPDEST POP PUSH2 0x2FE PUSH2 0x2EE CALLDATASIZE PUSH1 0x4 PUSH2 0x2E11 JUMP JUMPDEST PUSH4 0xA85BD01 PUSH1 0xE1 SHL SWAP5 SWAP4 POP POP POP POP JUMP JUMPDEST PUSH1 0x40 MLOAD PUSH1 0x1 PUSH1 0x1 PUSH1 0xE0 SHL SUB NOT SWAP1 SWAP2 AND DUP2 MSTORE PUSH1 0x20 ADD PUSH2 0x278 JUMP JUMPDEST CALLVALUE DUP1 ISZERO PUSH2 0x323 JUMPI PUSH1 0x0 DUP1 REVERT JUMPDEST POP PUSH1 0x35 SLOAD JUMPDEST PUSH1 0x40 MLOAD SWAP1 DUP2 MSTORE PUSH1 0x20 ADD PUSH2 0x278 JUMP JUMPDEST PUSH2 0x2D1 PUSH2 0x892 JUMP JUMPDEST CALLVALUE DUP1 ISZERO PUSH2 0x34A JUMPI PUSH1 0x0 DUP1 REVERT JUMPDEST POP PUSH2 0x2A1 PUSH2 0x359 CALLDATASIZE PUSH1 0x4 PUSH2 0x2E91 JUMP JUMPDEST PUSH2 0xACD JUMP JUMPDEST CALLVALUE DUP1 ISZERO PUSH2 0x36A JUMPI PUSH1 0x0 DUP1 REVERT JUMPDEST POP PUSH2 0x328 PUSH1 0x99 SLOAD DUP2 JUMP JUMPDEST CALLVALUE DUP1 ISZERO PUSH2 0x380 JUMPI PUSH1 0x0 DUP1 REVERT JUMPDEST POP PUSH2 0x2D1 PUSH2 0x38F CALLDATASIZE PUSH1 0x4 PUSH2 0x2D61 JUMP JUMPDEST PUSH2 0xB77 JUMP JUMPDEST CALLVALUE DUP1 ISZERO PUSH2 0x3A0 JUMPI PUSH1 0x0 DUP1 REVERT JUMPDEST POP PUSH2 0x2D1 PUSH2 0x3AF CALLDATASIZE PUSH1 0x4 PUSH2 0x2ED2 JUMP JUMPDEST PUSH2 0xC48 JUMP JUMPDEST CALLVALUE DUP1 ISZERO PUSH2 0x3C0 JUMPI PUSH1 0x0 DUP1 REVERT JUMPDEST POP PUSH1 0x40 MLOAD PUSH1 0x12 DUP2 MSTORE PUSH1 0x20 ADD PUSH2 0x278 JUMP JUMPDEST CALLVALUE DUP1 ISZERO PUSH2 0x3DC JUMPI PUSH1 0x0 DUP1 REVERT JUMPDEST POP PUSH2 0x328 PUSH1 0x9A SLOAD DUP2 JUMP JUMPDEST CALLVALUE DUP1 ISZERO PUSH2 0x3F2 JUMPI PUSH1 0x0 DUP1 REVERT JUMPDEST POP PUSH2 0x2A1 PUSH2 0x401 CALLDATASIZE PUSH1 0x4 PUSH2 0x2D35 JUMP JUMPDEST PUSH2 0xE10 JUMP JUMPDEST CALLVALUE DUP1 ISZERO PUSH2 0x412 JUMPI PUSH1 0x0 DUP1 REVERT JUMPDEST POP PUSH2 0x42E PUSH20 0xC02AAA39B223FE8D0A0E5C4F27EAD9083C756CC2 DUP2 JUMP JUMPDEST PUSH1 0x40 MLOAD PUSH1 0x1 PUSH1 0x1 PUSH1 0xA0 SHL SUB SWAP1 SWAP2 AND DUP2 MSTORE PUSH1 0x20 ADD PUSH2 0x278 JUMP JUMPDEST CALLVALUE DUP1 ISZERO PUSH2 0x452 JUMPI PUSH1 0x0 DUP1 REVERT JUMPDEST POP PUSH1 0xA1 SLOAD PUSH2 0x2A1 SWAP1 PUSH1 0xFF AND DUP2 JUMP JUMPDEST CALLVALUE DUP1 ISZERO PUSH2 0x46C JUMPI PUSH1 0x0 DUP1 REVERT JUMPDEST POP PUSH2 0x2D1 PUSH2 0x47B CALLDATASIZE PUSH1 0x4 PUSH2 0x2F0B JUMP JUMPDEST PUSH2 0xE4C JUMP JUMPDEST CALLVALUE DUP1 ISZERO PUSH2 0x48C JUMPI PUSH1 0x0 DUP1 REVERT JUMPDEST POP PUSH2 0x2D1 PUSH2 0x49B CALLDATASIZE PUSH1 0x4 PUSH2 0x2ED2 JUMP JUMPDEST PUSH2 0xF3D JUMP JUMPDEST CALLVALUE DUP1 ISZERO PUSH2 0x4AC JUMPI PUSH1 0x0 DUP1 REVERT JUMPDEST POP PUSH2 0x328 PUSH1 0x9C SLOAD DUP2 JUMP JUMPDEST CALLVALUE DUP1 ISZERO PUSH2 0x4C2 JUMPI PUSH1 0x0 DUP1 REVERT JUMPDEST POP PUSH2 0x328 PUSH2 0x4D1 CALLDATASIZE PUSH1 0x4 PUSH2 0x2D61 JUMP JUMPDEST PUSH1 0x1 PUSH1 0x1 PUSH1 0xA0 SHL SUB AND PUSH1 0x0 SWAP1 DUP2 MSTORE PUSH1 0x33 PUSH1 0x20 MSTORE PUSH1 0x40 SWAP1 KECCAK256 SLOAD SWAP1 JUMP JUMPDEST CALLVALUE DUP1 ISZERO PUSH2 0x4F8 JUMPI PUSH1 0x0 DUP1 REVERT JUMPDEST POP PUSH2 0x328 PUSH1 0x9B SLOAD DUP2 JUMP JUMPDEST CALLVALUE DUP1 ISZERO PUSH2 0x50E JUMPI PUSH1 0x0 DUP1 REVERT JUMPDEST POP PUSH1 0x9D SLOAD PUSH2 0x523 SWAP1 PUSH1 0x1 PUSH1 0xA0 SHL SWAP1 DIV PUSH1 0xFF AND DUP2 JUMP JUMPDEST PUSH1 0x40 MLOAD PUSH2 0x278 SWAP2 SWAP1 PUSH2 0x2FD1 JUMP JUMPDEST CALLVALUE DUP1 ISZERO PUSH2 0x53C JUMPI PUSH1 0x0 DUP1 REVERT JUMPDEST POP PUSH2 0x2D1 PUSH2 0x54B CALLDATASIZE PUSH1 0x4 PUSH2 0x2D61 JUMP JUMPDEST PUSH2 0x1535 JUMP JUMPDEST CALLVALUE DUP1 ISZERO PUSH2 0x55C JUMPI PUSH1 0x0 DUP1 REVERT JUMPDEST POP PUSH1 0x9D SLOAD PUSH2 0x42E SWAP1 PUSH1 0x1 PUSH1 0x1 PUSH1 0xA0 SHL SUB AND DUP2 JUMP JUMPDEST CALLVALUE DUP1 ISZERO PUSH2 0x57C JUMPI PUSH1 0x0 DUP1 REVERT JUMPDEST POP PUSH2 0x2D1 PUSH2 0x58B CALLDATASIZE PUSH1 0x4 PUSH2 0x2ED2 JUMP JUMPDEST PUSH2 0x1742 JUMP JUMPDEST CALLVALUE DUP1 ISZERO PUSH2 0x59C JUMPI PUSH1 0x0 DUP1 REVERT JUMPDEST POP PUSH2 0x26B PUSH2 0x18CE JUMP JUMPDEST CALLVALUE DUP1 ISZERO PUSH2 0x5B1 JUMPI PUSH1 0x0 DUP1 REVERT JUMPDEST POP PUSH2 0x2D1 PUSH2 0x18DD JUMP JUMPDEST CALLVALUE DUP1 ISZERO PUSH2 0x5C6 JUMPI PUSH1 0x0 DUP1 REVERT JUMPDEST POP PUSH2 0x328 PUSH1 0xA2 SLOAD DUP2 JUMP JUMPDEST CALLVALUE DUP1 ISZERO PUSH2 0x5DC JUMPI PUSH1 0x0 DUP1 REVERT JUMPDEST POP PUSH2 0x2A1 PUSH2 0x5EB CALLDATASIZE PUSH1 0x4 PUSH2 0x2D35 JUMP JUMPDEST PUSH2 0x1A15 JUMP JUMPDEST CALLVALUE DUP1 ISZERO PUSH2 0x5FC JUMPI PUSH1 0x0 DUP1 REVERT JUMPDEST POP PUSH2 0x2A1 PUSH2 0x60B CALLDATASIZE PUSH1 0x4 PUSH2 0x2D35 JUMP JUMPDEST PUSH2 0x1AAE JUMP JUMPDEST CALLVALUE DUP1 ISZERO PUSH2 0x61C JUMPI PUSH1 0x0 DUP1 REVERT JUMPDEST POP PUSH2 0x328 PUSH1 0xA0 SLOAD DUP2 JUMP JUMPDEST CALLVALUE DUP1 ISZERO PUSH2 0x632 JUMPI PUSH1 0x0 DUP1 REVERT JUMPDEST POP PUSH2 0x328 PUSH1 0x98 SLOAD DUP2 JUMP JUMPDEST CALLVALUE DUP1 ISZERO PUSH2 0x648 JUMPI PUSH1 0x0 DUP1 REVERT JUMPDEST POP PUSH2 0x2D1 PUSH2 0x1ABB JUMP JUMPDEST PUSH2 0x2D1 PUSH2 0x1BDE JUMP JUMPDEST CALLVALUE DUP1 ISZERO PUSH2 0x665 JUMPI PUSH1 0x0 DUP1 REVERT JUMPDEST POP PUSH2 0x328 PUSH2 0x674 CALLDATASIZE PUSH1 0x4 PUSH2 0x2D61 JUMP JUMPDEST PUSH1 0xA3 PUSH1 0x20 MSTORE PUSH1 0x0 SWAP1 DUP2 MSTORE PUSH1 0x40 SWAP1 KECCAK256 SLOAD DUP2 JUMP JUMPDEST CALLVALUE DUP1 ISZERO PUSH2 0x692 JUMPI PUSH1 0x0 DUP1 REVERT JUMPDEST POP PUSH2 0x2D1 PUSH2 0x1DED JUMP JUMPDEST CALLVALUE DUP1 ISZERO PUSH2 0x6A7 JUMPI PUSH1 0x0 DUP1 REVERT JUMPDEST POP PUSH2 0x328 PUSH2 0x1DF7 JUMP JUMPDEST CALLVALUE DUP1 ISZERO PUSH2 0x6BC JUMPI PUSH1 0x0 DUP1 REVERT JUMPDEST POP PUSH2 0x328 PUSH2 0x6CB CALLDATASIZE PUSH1 0x4 PUSH2 0x2FF9 JUMP JUMPDEST PUSH1 0x1 PUSH1 0x1 PUSH1 0xA0 SHL SUB SWAP2 DUP3 AND PUSH1 0x0 SWAP1 DUP2 MSTORE PUSH1 0x34 PUSH1 0x20 SWAP1 DUP2 MSTORE PUSH1 0x40 DUP1 DUP4 KECCAK256 SWAP4 SWAP1 SWAP5 AND DUP3 MSTORE SWAP2 SWAP1 SWAP2 MSTORE KECCAK256 SLOAD SWAP1 JUMP JUMPDEST CALLVALUE DUP1 ISZERO PUSH2 0x702 JUMPI PUSH1 0x0 DUP1 REVERT JUMPDEST POP PUSH2 0x328 PUSH1 0x9F SLOAD DUP2 JUMP JUMPDEST CALLVALUE DUP1 ISZERO PUSH2 0x718 JUMPI PUSH1 0x0 DUP1 REVERT JUMPDEST POP PUSH2 0x42E PUSH32 0x0 DUP2 JUMP JUMPDEST CALLVALUE DUP1 ISZERO PUSH2 0x74C JUMPI PUSH1 0x0 DUP1 REVERT JUMPDEST POP PUSH1 0x9E SLOAD PUSH2 0x42E SWAP1 PUSH1 0x1 PUSH1 0x1 PUSH1 0xA0 SHL SUB AND DUP2 JUMP JUMPDEST CALLVALUE DUP1 ISZERO PUSH2 0x76C JUMPI PUSH1 0x0 DUP1 REVERT JUMPDEST POP PUSH2 0x2D1 PUSH2 0x1E1E JUMP JUMPDEST CALLVALUE DUP1 ISZERO PUSH2 0x781 JUMPI PUSH1 0x0 DUP1 REVERT JUMPDEST POP PUSH1 0x97 SLOAD PUSH2 0x42E SWAP1 PUSH1 0x1 PUSH1 0x1 PUSH1 0xA0 SHL SUB AND DUP2 JUMP JUMPDEST PUSH1 0x60 PUSH1 0x36 DUP1 SLOAD PUSH2 0x7A4 SWAP1 PUSH2 0x3032 JUMP JUMPDEST DUP1 PUSH1 0x1F ADD PUSH1 0x20 DUP1 SWAP2 DIV MUL PUSH1 0x20 ADD PUSH1 0x40 MLOAD SWAP1 DUP2 ADD PUSH1 0x40 MSTORE DUP1 SWAP3 SWAP2 SWAP1 DUP2 DUP2 MSTORE PUSH1 0x20 ADD DUP3 DUP1 SLOAD PUSH2 0x7D0 SWAP1 PUSH2 0x3032 JUMP JUMPDEST DUP1 ISZERO PUSH2 0x81D JUMPI DUP1 PUSH1 0x1F LT PUSH2 0x7F2 JUMPI PUSH2 0x100 DUP1 DUP4 SLOAD DIV MUL DUP4 MSTORE SWAP2 PUSH1 0x20 ADD SWAP2 PUSH2 0x81D JUMP JUMPDEST DUP3 ADD SWAP2 SWAP1 PUSH1 0x0 MSTORE PUSH1 0x20 PUSH1 0x0 KECCAK256 SWAP1 JUMPDEST DUP2 SLOAD DUP2 MSTORE SWAP1 PUSH1 0x1 ADD SWAP1 PUSH1 0x20 ADD DUP1 DUP4 GT PUSH2 0x800 JUMPI DUP3 SWAP1 SUB PUSH1 0x1F AND DUP3 ADD SWAP2 JUMPDEST POP POP POP POP POP SWAP1 POP SWAP1 JUMP JUMPDEST PUSH1 0x0 PUSH2 0x834 CALLER DUP5 DUP5 PUSH2 0x1F9E JUMP JUMPDEST POP PUSH1 0x1 SWAP3 SWAP2 POP POP JUMP JUMPDEST PUSH1 0x9E SLOAD PUSH1 0x1 PUSH1 0x1 PUSH1 0xA0 SHL SUB AND CALLER EQ PUSH2 0x870 JUMPI PUSH1 0x40 MLOAD PUSH3 0x461BCD PUSH1 0xE5 SHL DUP2 MSTORE PUSH1 0x4 ADD PUSH2 0x867 SWAP1 PUSH2 0x306C JUMP JUMPDEST PUSH1 0x40 MLOAD DUP1 SWAP2 SUB SWAP1 REVERT JUMPDEST PUSH1 0x9E DUP1 SLOAD PUSH1 0x1 PUSH1 0x1 PUSH1 0xA0 SHL SUB NOT AND PUSH1 0x1 PUSH1 0x1 PUSH1 0xA0 SHL SUB SWAP3 SWAP1 SWAP3 AND SWAP2 SWAP1 SWAP2 OR SWAP1 SSTORE JUMP JUMPDEST PUSH1 0x1 PUSH1 0x9D SLOAD PUSH1 0x1 PUSH1 0xA0 SHL SWAP1 DIV PUSH1 0xFF AND PUSH1 0x3 DUP2 GT ISZERO PUSH2 0x8B2 JUMPI PUSH2 0x8B2 PUSH2 0x2FBB JUMP JUMPDEST EQ PUSH2 0x8FF JUMPI PUSH1 0x40 MLOAD PUSH3 0x461BCD PUSH1 0xE5 SHL DUP2 MSTORE PUSH1 0x20 PUSH1 0x4 DUP3 ADD MSTORE PUSH1 0x17 PUSH1 0x24 DUP3 ADD MSTORE PUSH32 0x6269643A61756374696F6E206973206E6F74206C697665000000000000000000 PUSH1 0x44 DUP3 ADD MSTORE PUSH1 0x64 ADD PUSH2 0x867 JUMP JUMPDEST PUSH1 0x0 PUSH32 0x0 PUSH1 0x1 PUSH1 0x1 PUSH1 0xA0 SHL SUB AND PUSH4 0x7C513C0F PUSH1 0x40 MLOAD DUP2 PUSH4 0xFFFFFFFF AND PUSH1 0xE0 SHL DUP2 MSTORE PUSH1 0x4 ADD PUSH1 0x20 PUSH1 0x40 MLOAD DUP1 DUP4 SUB DUP2 PUSH1 0x0 DUP8 GAS CALL ISZERO DUP1 ISZERO PUSH2 0x961 JUMPI RETURNDATASIZE PUSH1 0x0 DUP1 RETURNDATACOPY RETURNDATASIZE PUSH1 0x0 REVERT JUMPDEST POP POP POP POP PUSH1 0x40 MLOAD RETURNDATASIZE PUSH1 0x1F NOT PUSH1 0x1F DUP3 ADD AND DUP3 ADD DUP1 PUSH1 0x40 MSTORE POP DUP2 ADD SWAP1 PUSH2 0x985 SWAP2 SWAP1 PUSH2 0x3098 JUMP JUMPDEST PUSH2 0x991 SWAP1 PUSH2 0x3E8 PUSH2 0x30C7 JUMP JUMPDEST SWAP1 POP DUP1 PUSH1 0x9C SLOAD PUSH2 0x9A1 SWAP2 SWAP1 PUSH2 0x30DF JUMP JUMPDEST PUSH2 0x9AD CALLVALUE PUSH2 0x3E8 PUSH2 0x30DF JUMP JUMPDEST LT ISZERO PUSH2 0x9ED JUMPI PUSH1 0x40 MLOAD PUSH3 0x461BCD PUSH1 0xE5 SHL DUP2 MSTORE PUSH1 0x20 PUSH1 0x4 DUP3 ADD MSTORE PUSH1 0xF PUSH1 0x24 DUP3 ADD MSTORE PUSH15 0x189A590E9D1BDBC81B1BDDC8189A59 PUSH1 0x8A SHL PUSH1 0x44 DUP3 ADD MSTORE PUSH1 0x64 ADD PUSH2 0x867 JUMP JUMPDEST PUSH1 0x99 SLOAD TIMESTAMP LT PUSH2 0xA32 JUMPI PUSH1 0x40 MLOAD PUSH3 0x461BCD PUSH1 0xE5 SHL DUP2 MSTORE PUSH1 0x20 PUSH1 0x4 DUP3 ADD MSTORE PUSH1 0x11 PUSH1 0x24 DUP3 ADD MSTORE PUSH17 0x189A590E985D58DD1A5BDB88195B991959 PUSH1 0x7A SHL PUSH1 0x44 DUP3 ADD MSTORE PUSH1 0x64 ADD PUSH2 0x867 JUMP JUMPDEST PUSH2 0x384 TIMESTAMP PUSH1 0x99 SLOAD PUSH2 0xA43 SWAP2 SWAP1 PUSH2 0x30FE JUMP JUMPDEST GT PUSH2 0xA62 JUMPI PUSH2 0x384 PUSH1 0x99 PUSH1 0x0 DUP3 DUP3 SLOAD PUSH2 0xA5C SWAP2 SWAP1 PUSH2 0x30C7 JUMP JUMPDEST SWAP1 SWAP2 SSTORE POP POP JUMPDEST PUSH1 0x9D SLOAD PUSH1 0x9C SLOAD PUSH2 0xA7B SWAP2 PUSH1 0x1 PUSH1 0x1 PUSH1 0xA0 SHL SUB AND SWAP1 PUSH2 0x20C2 JUMP JUMPDEST CALLVALUE PUSH1 0x9C DUP2 SWAP1 SSTORE PUSH1 0x9D DUP1 SLOAD PUSH1 0x1 PUSH1 0x1 PUSH1 0xA0 SHL SUB NOT AND CALLER SWAP1 DUP2 OR SWAP1 SWAP2 SSTORE PUSH1 0x40 MLOAD SWAP2 DUP3 MSTORE SWAP1 PUSH32 0xE684A55F31B79ECA403DF938249029212A5925EC6BE8012E099B45BC1019E5D2 SWAP1 PUSH1 0x20 ADD PUSH1 0x40 MLOAD DUP1 SWAP2 SUB SWAP1 LOG2 POP JUMP JUMPDEST PUSH1 0x0 PUSH2 0xADA DUP5 DUP5 DUP5 PUSH2 0x21C4 JUMP JUMPDEST PUSH1 0x1 PUSH1 0x1 PUSH1 0xA0 SHL SUB DUP5 AND PUSH1 0x0 SWAP1 DUP2 MSTORE PUSH1 0x34 PUSH1 0x20 SWAP1 DUP2 MSTORE PUSH1 0x40 DUP1 DUP4 KECCAK256 CALLER DUP5 MSTORE SWAP1 SWAP2 MSTORE SWAP1 KECCAK256 SLOAD DUP3 DUP2 LT ISZERO PUSH2 0xB5F JUMPI PUSH1 0x40 MLOAD PUSH3 0x461BCD PUSH1 0xE5 SHL DUP2 MSTORE PUSH1 0x20 PUSH1 0x4 DUP3 ADD MSTORE PUSH1 0x28 PUSH1 0x24 DUP3 ADD MSTORE PUSH32 0x45524332303A207472616E7366657220616D6F756E7420657863656564732061 PUSH1 0x44 DUP3 ADD MSTORE PUSH8 0x6C6C6F77616E6365 PUSH1 0xC0 SHL PUSH1 0x64 DUP3 ADD MSTORE PUSH1 0x84 ADD PUSH2 0x867 JUMP JUMPDEST PUSH2 0xB6C DUP6 CALLER DUP6 DUP5 SUB PUSH2 0x1F9E JUMP JUMPDEST POP PUSH1 0x1 SWAP5 SWAP4 POP POP POP POP JUMP JUMPDEST PUSH32 0x0 PUSH1 0x1 PUSH1 0x1 PUSH1 0xA0 SHL SUB AND PUSH4 0x8DA5CB5B PUSH1 0x40 MLOAD DUP2 PUSH4 0xFFFFFFFF AND PUSH1 0xE0 SHL DUP2 MSTORE PUSH1 0x4 ADD PUSH1 0x20 PUSH1 0x40 MLOAD DUP1 DUP4 SUB DUP2 DUP7 GAS STATICCALL ISZERO DUP1 ISZERO PUSH2 0xBD5 JUMPI RETURNDATASIZE PUSH1 0x0 DUP1 RETURNDATACOPY RETURNDATASIZE PUSH1 0x0 REVERT JUMPDEST POP POP POP POP PUSH1 0x40 MLOAD RETURNDATASIZE PUSH1 0x1F NOT PUSH1 0x1F DUP3 ADD AND DUP3 ADD DUP1 PUSH1 0x40 MSTORE POP DUP2 ADD SWAP1 PUSH2 0xBF9 SWAP2 SWAP1 PUSH2 0x3115 JUMP JUMPDEST PUSH1 0x1 PUSH1 0x1 PUSH1 0xA0 SHL SUB AND CALLER PUSH1 0x1 PUSH1 0x1 PUSH1 0xA0 SHL SUB AND EQ PUSH2 0x870 JUMPI PUSH1 0x40 MLOAD PUSH3 0x461BCD PUSH1 0xE5 SHL DUP2 MSTORE PUSH1 0x20 PUSH1 0x4 DUP3 ADD MSTORE PUSH1 0xC PUSH1 0x24 DUP3 ADD MSTORE PUSH12 0x35B4B1B59D3737BA1033B7BB PUSH1 0xA1 SHL PUSH1 0x44 DUP3 ADD MSTORE PUSH1 0x64 ADD PUSH2 0x867 JUMP JUMPDEST PUSH1 0x9E SLOAD PUSH1 0x1 PUSH1 0x1 PUSH1 0xA0 SHL SUB AND CALLER EQ PUSH2 0xC72 JUMPI PUSH1 0x40 MLOAD PUSH3 0x461BCD PUSH1 0xE5 SHL DUP2 MSTORE PUSH1 0x4 ADD PUSH2 0x867 SWAP1 PUSH2 0x306C JUMP JUMPDEST PUSH32 0x0 PUSH1 0x1 PUSH1 0x1 PUSH1 0xA0 SHL SUB AND PUSH4 0xA0B335E3 PUSH1 0x40 MLOAD DUP2 PUSH4 0xFFFFFFFF AND PUSH1 0xE0 SHL DUP2 MSTORE PUSH1 0x4 ADD PUSH1 0x20 PUSH1 0x40 MLOAD DUP1 DUP4 SUB DUP2 PUSH1 0x0 DUP8 GAS CALL ISZERO DUP1 ISZERO PUSH2 0xCD2 JUMPI RETURNDATASIZE PUSH1 0x0 DUP1 RETURNDATACOPY RETURNDATASIZE PUSH1 0x0 REVERT JUMPDEST POP POP POP POP PUSH1 0x40 MLOAD RETURNDATASIZE PUSH1 0x1F NOT PUSH1 0x1F DUP3 ADD AND DUP3 ADD DUP1 PUSH1 0x40 MSTORE POP DUP2 ADD SWAP1 PUSH2 0xCF6 SWAP2 SWAP1 PUSH2 0x3098 JUMP JUMPDEST DUP2 LT ISZERO DUP1 ISZERO PUSH2 0xD88 JUMPI POP PUSH32 0x0 PUSH1 0x1 PUSH1 0x1 PUSH1 0xA0 SHL SUB AND PUSH4 0xE519EF9 PUSH1 0x40 MLOAD DUP2 PUSH4 0xFFFFFFFF AND PUSH1 0xE0 SHL DUP2 MSTORE PUSH1 0x4 ADD PUSH1 0x20 PUSH1 0x40 MLOAD DUP1 DUP4 SUB DUP2 PUSH1 0x0 DUP8 GAS CALL ISZERO DUP1 ISZERO PUSH2 0xD60 JUMPI RETURNDATASIZE PUSH1 0x0 DUP1 RETURNDATACOPY RETURNDATASIZE PUSH1 0x0 REVERT JUMPDEST POP POP POP POP PUSH1 0x40 MLOAD RETURNDATASIZE PUSH1 0x1F NOT PUSH1 0x1F DUP3 ADD AND DUP3 ADD DUP1 PUSH1 0x40 MSTORE POP DUP2 ADD SWAP1 PUSH2 0xD84 SWAP2 SWAP1 PUSH2 0x3098 JUMP JUMPDEST DUP2 GT ISZERO JUMPDEST PUSH2 0xDD4 JUMPI PUSH1 0x40 MLOAD PUSH3 0x461BCD PUSH1 0xE5 SHL DUP2 MSTORE PUSH1 0x20 PUSH1 0x4 DUP3 ADD MSTORE PUSH1 0x1D PUSH1 0x24 DUP3 ADD MSTORE PUSH32 0x7570646174653A696E76616C69642061756374696F6E206C656E677468000000 PUSH1 0x44 DUP3 ADD MSTORE PUSH1 0x64 ADD PUSH2 0x867 JUMP JUMPDEST PUSH1 0x9A DUP2 SWAP1 SSTORE PUSH1 0x40 MLOAD DUP2 DUP2 MSTORE PUSH32 0x4AB86AE701798277AA378943B9DFD155D3B19703CD57BE298908FADD32F7BF46 SWAP1 PUSH1 0x20 ADD JUMPDEST PUSH1 0x40 MLOAD DUP1 SWAP2 SUB SWAP1 LOG1 POP JUMP JUMPDEST CALLER PUSH1 0x0 DUP2 DUP2 MSTORE PUSH1 0x34 PUSH1 0x20 SWAP1 DUP2 MSTORE PUSH1 0x40 DUP1 DUP4 KECCAK256 PUSH1 0x1 PUSH1 0x1 PUSH1 0xA0 SHL SUB DUP8 AND DUP5 MSTORE SWAP1 SWAP2 MSTORE DUP2 KECCAK256 SLOAD SWAP1 SWAP2 PUSH2 0x834 SWAP2 DUP6 SWAP1 PUSH2 0xE47 SWAP1 DUP7 SWAP1 PUSH2 0x30C7 JUMP JUMPDEST PUSH2 0x1F9E JUMP JUMPDEST PUSH1 0x0 SLOAD PUSH2 0x100 SWAP1 DIV PUSH1 0xFF AND DUP1 PUSH2 0xE65 JUMPI POP PUSH1 0x0 SLOAD PUSH1 0xFF AND ISZERO JUMPDEST PUSH2 0xE81 JUMPI PUSH1 0x40 MLOAD PUSH3 0x461BCD PUSH1 0xE5 SHL DUP2 MSTORE PUSH1 0x4 ADD PUSH2 0x867 SWAP1 PUSH2 0x3132 JUMP JUMPDEST PUSH1 0x0 SLOAD PUSH2 0x100 SWAP1 DIV PUSH1 0xFF AND ISZERO DUP1 ISZERO PUSH2 0xEA3 JUMPI PUSH1 0x0 DUP1 SLOAD PUSH2 0xFFFF NOT AND PUSH2 0x101 OR SWAP1 SSTORE JUMPDEST PUSH2 0xEAD DUP4 DUP4 PUSH2 0x23A9 JUMP JUMPDEST PUSH2 0xEB5 PUSH2 0x2428 JUMP JUMPDEST PUSH1 0x97 DUP1 SLOAD PUSH1 0x1 PUSH1 0x1 PUSH1 0xA0 SHL SUB DUP11 DUP2 AND PUSH1 0x1 PUSH1 0x1 PUSH1 0xA0 SHL SUB NOT SWAP3 DUP4 AND OR SWAP1 SWAP3 SSTORE PUSH1 0x98 DUP10 SWAP1 SSTORE PUSH3 0x3F480 PUSH1 0x9A SSTORE PUSH1 0x9E DUP1 SLOAD SWAP3 DUP13 AND SWAP3 SWAP1 SWAP2 AND DUP3 OR SWAP1 SSTORE PUSH1 0x9F DUP6 SWAP1 SSTORE TIMESTAMP PUSH1 0xA0 SSTORE PUSH1 0x9D DUP1 SLOAD PUSH1 0xFF PUSH1 0xA0 SHL NOT AND SWAP1 SSTORE PUSH1 0x0 SWAP1 DUP2 MSTORE PUSH1 0xA3 PUSH1 0x20 MSTORE PUSH1 0x40 SWAP1 KECCAK256 DUP6 SWAP1 SSTORE PUSH2 0xF20 DUP10 DUP8 PUSH2 0x249C JUMP JUMPDEST DUP1 ISZERO PUSH2 0xF32 JUMPI PUSH1 0x0 DUP1 SLOAD PUSH2 0xFF00 NOT AND SWAP1 SSTORE JUMPDEST POP POP POP POP POP POP POP POP POP JUMP JUMPDEST PUSH1 0x0 PUSH1 0x9D SLOAD PUSH1 0x1 PUSH1 0xA0 SHL SWAP1 DIV PUSH1 0xFF AND PUSH1 0x3 DUP2 GT ISZERO PUSH2 0xF5D JUMPI PUSH2 0xF5D PUSH2 0x2FBB JUMP JUMPDEST EQ PUSH2 0xF7A JUMPI PUSH1 0x40 MLOAD PUSH3 0x461BCD PUSH1 0xE5 SHL DUP2 MSTORE PUSH1 0x4 ADD PUSH2 0x867 SWAP1 PUSH2 0x3180 JUMP JUMPDEST CALLER PUSH1 0x0 SWAP1 DUP2 MSTORE PUSH1 0xA3 PUSH1 0x20 MSTORE PUSH1 0x40 SWAP1 KECCAK256 SLOAD DUP1 DUP3 SUB PUSH2 0xFD0 JUMPI PUSH1 0x40 MLOAD PUSH3 0x461BCD PUSH1 0xE5 SHL DUP2 MSTORE PUSH1 0x20 PUSH1 0x4 DUP3 ADD MSTORE PUSH1 0x14 PUSH1 0x24 DUP3 ADD MSTORE PUSH20 0x7570646174653A6E6F7420616E20757064617465 PUSH1 0x60 SHL PUSH1 0x44 DUP3 ADD MSTORE PUSH1 0x64 ADD PUSH2 0x867 JUMP JUMPDEST CALLER PUSH1 0x0 SWAP1 DUP2 MSTORE PUSH1 0x33 PUSH1 0x20 MSTORE PUSH1 0x40 DUP2 KECCAK256 SLOAD PUSH1 0xA2 SLOAD SWAP1 SWAP2 SUB PUSH2 0x1001 JUMPI PUSH1 0xA2 DUP2 SWAP1 SSTORE PUSH2 0xFF9 DUP4 DUP3 PUSH2 0x30DF JUMP JUMPDEST PUSH1 0x9B SSTORE PUSH2 0x14E4 JUMP JUMPDEST PUSH1 0xA2 SLOAD DUP2 EQ DUP1 ISZERO PUSH2 0x1011 JUMPI POP DUP2 ISZERO ISZERO JUMPDEST ISZERO PUSH2 0x1020 JUMPI PUSH2 0xFF9 DUP4 DUP3 PUSH2 0x30DF JUMP JUMPDEST DUP2 PUSH1 0x0 SUB PUSH2 0x125B JUMPI PUSH1 0x0 PUSH1 0xA2 SLOAD PUSH1 0x9B SLOAD PUSH2 0x103A SWAP2 SWAP1 PUSH2 0x31C7 JUMP JUMPDEST SWAP1 POP PUSH1 0x0 PUSH2 0x3E8 PUSH32 0x0 PUSH1 0x1 PUSH1 0x1 PUSH1 0xA0 SHL SUB AND PUSH4 0x9990A96 PUSH1 0x40 MLOAD DUP2 PUSH4 0xFFFFFFFF AND PUSH1 0xE0 SHL DUP2 MSTORE PUSH1 0x4 ADD PUSH1 0x20 PUSH1 0x40 MLOAD DUP1 DUP4 SUB DUP2 PUSH1 0x0 DUP8 GAS CALL ISZERO DUP1 ISZERO PUSH2 0x10A1 JUMPI RETURNDATASIZE PUSH1 0x0 DUP1 RETURNDATACOPY RETURNDATASIZE PUSH1 0x0 REVERT JUMPDEST POP POP POP POP PUSH1 0x40 MLOAD RETURNDATASIZE PUSH1 0x1F NOT PUSH1 0x1F DUP3 ADD AND DUP3 ADD DUP1 PUSH1 0x40 MSTORE POP DUP2 ADD SWAP1 PUSH2 0x10C5 SWAP2 SWAP1 PUSH2 0x3098 JUMP JUMPDEST PUSH2 0x10CF SWAP1 DUP5 PUSH2 0x30DF JUMP JUMPDEST PUSH2 0x10D9 SWAP2 SWAP1 PUSH2 0x31C7 JUMP JUMPDEST SWAP1 POP DUP1 DUP6 LT ISZERO PUSH2 0x112B JUMPI PUSH1 0x40 MLOAD PUSH3 0x461BCD PUSH1 0xE5 SHL DUP2 MSTORE PUSH1 0x20 PUSH1 0x4 DUP3 ADD MSTORE PUSH1 0x1C PUSH1 0x24 DUP3 ADD MSTORE PUSH32 0x7570646174653A7265736572766520707269636520746F6F206C6F7700000000 PUSH1 0x44 DUP3 ADD MSTORE PUSH1 0x64 ADD PUSH2 0x867 JUMP JUMPDEST PUSH1 0x0 PUSH2 0x3E8 PUSH32 0x0 PUSH1 0x1 PUSH1 0x1 PUSH1 0xA0 SHL SUB AND PUSH4 0x5410BFC9 PUSH1 0x40 MLOAD DUP2 PUSH4 0xFFFFFFFF AND PUSH1 0xE0 SHL DUP2 MSTORE PUSH1 0x4 ADD PUSH1 0x20 PUSH1 0x40 MLOAD DUP1 DUP4 SUB DUP2 PUSH1 0x0 DUP8 GAS CALL ISZERO DUP1 ISZERO PUSH2 0x1190 JUMPI RETURNDATASIZE PUSH1 0x0 DUP1 RETURNDATACOPY RETURNDATASIZE PUSH1 0x0 REVERT JUMPDEST POP POP POP POP PUSH1 0x40 MLOAD RETURNDATASIZE PUSH1 0x1F NOT PUSH1 0x1F DUP3 ADD AND DUP3 ADD DUP1 PUSH1 0x40 MSTORE POP DUP2 ADD SWAP1 PUSH2 0x11B4 SWAP2 SWAP1 PUSH2 0x3098 JUMP JUMPDEST PUSH2 0x11BE SWAP1 DUP6 PUSH2 0x30DF JUMP JUMPDEST PUSH2 0x11C8 SWAP2 SWAP1 PUSH2 0x31C7 JUMP JUMPDEST SWAP1 POP DUP1 DUP7 GT ISZERO PUSH2 0x121A JUMPI PUSH1 0x40 MLOAD PUSH3 0x461BCD PUSH1 0xE5 SHL DUP2 MSTORE PUSH1 0x20 PUSH1 0x4 DUP3 ADD MSTORE PUSH1 0x1D PUSH1 0x24 DUP3 ADD MSTORE PUSH32 0x7570646174653A7265736572766520707269636520746F6F2068696768000000 PUSH1 0x44 DUP3 ADD MSTORE PUSH1 0x64 ADD PUSH2 0x867 JUMP JUMPDEST DUP4 PUSH1 0xA2 PUSH1 0x0 DUP3 DUP3 SLOAD PUSH2 0x122C SWAP2 SWAP1 PUSH2 0x30C7 JUMP JUMPDEST SWAP1 SWAP2 SSTORE POP PUSH2 0x123C SWAP1 POP DUP7 DUP6 PUSH2 0x30DF JUMP JUMPDEST PUSH1 0x9B PUSH1 0x0 DUP3 DUP3 SLOAD PUSH2 0x124D SWAP2 SWAP1 PUSH2 0x30C7 JUMP JUMPDEST SWAP1 SWAP2 SSTORE POP PUSH2 0x14E4 SWAP4 POP POP POP POP JUMP JUMPDEST DUP3 PUSH1 0x0 SUB PUSH2 0x12A1 JUMPI DUP1 PUSH1 0xA2 PUSH1 0x0 DUP3 DUP3 SLOAD PUSH2 0x1275 SWAP2 SWAP1 PUSH2 0x30FE JUMP JUMPDEST SWAP1 SWAP2 SSTORE POP PUSH2 0x1285 SWAP1 POP DUP3 DUP3 PUSH2 0x30DF JUMP JUMPDEST PUSH1 0x9B PUSH1 0x0 DUP3 DUP3 SLOAD PUSH2 0x1296 SWAP2 SWAP1 PUSH2 0x30FE JUMP JUMPDEST SWAP1 SWAP2 SSTORE POP PUSH2 0x14E4 SWAP1 POP JUMP JUMPDEST PUSH1 0x0 DUP2 PUSH1 0xA2 SLOAD PUSH2 0x12B1 SWAP2 SWAP1 PUSH2 0x30FE JUMP JUMPDEST PUSH2 0x12BB DUP4 DUP6 PUSH2 0x30DF JUMP JUMPDEST PUSH1 0x9B SLOAD PUSH2 0x12C8 SWAP2 SWAP1 PUSH2 0x30FE JUMP JUMPDEST PUSH2 0x12D2 SWAP2 SWAP1 PUSH2 0x31C7 JUMP JUMPDEST SWAP1 POP PUSH1 0x0 PUSH2 0x3E8 PUSH32 0x0 PUSH1 0x1 PUSH1 0x1 PUSH1 0xA0 SHL SUB AND PUSH4 0x9990A96 PUSH1 0x40 MLOAD DUP2 PUSH4 0xFFFFFFFF AND PUSH1 0xE0 SHL DUP2 MSTORE PUSH1 0x4 ADD PUSH1 0x20 PUSH1 0x40 MLOAD DUP1 DUP4 SUB DUP2 PUSH1 0x0 DUP8 GAS CALL ISZERO DUP1 ISZERO PUSH2 0x1339 JUMPI RETURNDATASIZE PUSH1 0x0 DUP1 RETURNDATACOPY RETURNDATASIZE PUSH1 0x0 REVERT JUMPDEST POP POP POP POP PUSH1 0x40 MLOAD RETURNDATASIZE PUSH1 0x1F NOT PUSH1 0x1F DUP3 ADD AND DUP3 ADD DUP1 PUSH1 0x40 MSTORE POP DUP2 ADD SWAP1 PUSH2 0x135D SWAP2 SWAP1 PUSH2 0x3098 JUMP JUMPDEST PUSH2 0x1367 SWAP1 DUP5 PUSH2 0x30DF JUMP JUMPDEST PUSH2 0x1371 SWAP2 SWAP1 PUSH2 0x31C7 JUMP JUMPDEST SWAP1 POP DUP1 DUP6 LT ISZERO PUSH2 0x13C3 JUMPI PUSH1 0x40 MLOAD PUSH3 0x461BCD PUSH1 0xE5 SHL DUP2 MSTORE PUSH1 0x20 PUSH1 0x4 DUP3 ADD MSTORE PUSH1 0x1C PUSH1 0x24 DUP3 ADD MSTORE PUSH32 0x7570646174653A7265736572766520707269636520746F6F206C6F7700000000 PUSH1 0x44 DUP3 ADD MSTORE PUSH1 0x64 ADD PUSH2 0x867 JUMP JUMPDEST PUSH1 0x0 PUSH2 0x3E8 PUSH32 0x0 PUSH1 0x1 PUSH1 0x1 PUSH1 0xA0 SHL SUB AND PUSH4 0x5410BFC9 PUSH1 0x40 MLOAD DUP2 PUSH4 0xFFFFFFFF AND PUSH1 0xE0 SHL DUP2 MSTORE PUSH1 0x4 ADD PUSH1 0x20 PUSH1 0x40 MLOAD DUP1 DUP4 SUB DUP2 PUSH1 0x0 DUP8 GAS CALL ISZERO DUP1 ISZERO PUSH2 0x1428 JUMPI RETURNDATASIZE PUSH1 0x0 DUP1 RETURNDATACOPY RETURNDATASIZE PUSH1 0x0 REVERT JUMPDEST POP POP POP POP PUSH1 0x40 MLOAD RETURNDATASIZE PUSH1 0x1F NOT PUSH1 0x1F DUP3 ADD AND DUP3 ADD DUP1 PUSH1 0x40 MSTORE POP DUP2 ADD SWAP1 PUSH2 0x144C SWAP2 SWAP1 PUSH2 0x3098 JUMP JUMPDEST PUSH2 0x1456 SWAP1 DUP6 PUSH2 0x30DF JUMP JUMPDEST PUSH2 0x1460 SWAP2 SWAP1 PUSH2 0x31C7 JUMP JUMPDEST SWAP1 POP DUP1 DUP7 GT ISZERO PUSH2 0x14B2 JUMPI PUSH1 0x40 MLOAD PUSH3 0x461BCD PUSH1 0xE5 SHL DUP2 MSTORE PUSH1 0x20 PUSH1 0x4 DUP3 ADD MSTORE PUSH1 0x1D PUSH1 0x24 DUP3 ADD MSTORE PUSH32 0x7570646174653A7265736572766520707269636520746F6F2068696768000000 PUSH1 0x44 DUP3 ADD MSTORE PUSH1 0x64 ADD PUSH2 0x867 JUMP JUMPDEST PUSH2 0x14BC DUP6 DUP6 PUSH2 0x30DF JUMP JUMPDEST PUSH2 0x14C6 DUP8 DUP7 PUSH2 0x30DF JUMP JUMPDEST PUSH1 0x9B SLOAD PUSH2 0x14D3 SWAP2 SWAP1 PUSH2 0x30C7 JUMP JUMPDEST PUSH2 0x14DD SWAP2 SWAP1 PUSH2 0x30FE JUMP JUMPDEST PUSH1 0x9B SSTORE POP POP POP JUMPDEST CALLER PUSH1 0x0 DUP2 DUP2 MSTORE PUSH1 0xA3 PUSH1 0x20 MSTORE PUSH1 0x40 SWAP1 DUP2 SWAP1 KECCAK256 DUP6 SWAP1 SSTORE MLOAD PUSH32 0x64E6E7BD72B853C4E62FD6CEACA05A104700C70A4CB567C75C7F2242BA7F037C SWAP1 PUSH2 0x1528 SWAP1 DUP7 DUP2 MSTORE PUSH1 0x20 ADD SWAP1 JUMP JUMPDEST PUSH1 0x40 MLOAD DUP1 SWAP2 SUB SWAP1 LOG2 POP POP POP JUMP JUMPDEST PUSH32 0x0 PUSH1 0x1 PUSH1 0x1 PUSH1 0xA0 SHL SUB AND PUSH4 0x8DA5CB5B PUSH1 0x40 MLOAD DUP2 PUSH4 0xFFFFFFFF AND PUSH1 0xE0 SHL DUP2 MSTORE PUSH1 0x4 ADD PUSH1 0x20 PUSH1 0x40 MLOAD DUP1 DUP4 SUB DUP2 DUP7 GAS STATICCALL ISZERO DUP1 ISZERO PUSH2 0x1593 JUMPI RETURNDATASIZE PUSH1 0x0 DUP1 RETURNDATACOPY RETURNDATASIZE PUSH1 0x0 REVERT JUMPDEST POP POP POP POP PUSH1 0x40 MLOAD RETURNDATASIZE PUSH1 0x1F NOT PUSH1 0x1F DUP3 ADD AND DUP3 ADD DUP1 PUSH1 0x40 MSTORE POP DUP2 ADD SWAP1 PUSH2 0x15B7 SWAP2 SWAP1 PUSH2 0x3115 JUMP JUMPDEST PUSH1 0x1 PUSH1 0x1 PUSH1 0xA0 SHL SUB AND CALLER PUSH1 0x1 PUSH1 0x1 PUSH1 0xA0 SHL SUB AND EQ PUSH2 0x1608 JUMPI PUSH1 0x40 MLOAD PUSH3 0x461BCD PUSH1 0xE5 SHL DUP2 MSTORE PUSH1 0x20 PUSH1 0x4 DUP3 ADD MSTORE PUSH1 0xE PUSH1 0x24 DUP3 ADD MSTORE PUSH14 0x3932B6B7BB329D3737BA1033B7BB PUSH1 0x91 SHL PUSH1 0x44 DUP3 ADD MSTORE PUSH1 0x64 ADD PUSH2 0x867 JUMP JUMPDEST PUSH1 0x0 PUSH1 0x9D SLOAD PUSH1 0x1 PUSH1 0xA0 SHL SWAP1 DIV PUSH1 0xFF AND PUSH1 0x3 DUP2 GT ISZERO PUSH2 0x1628 JUMPI PUSH2 0x1628 PUSH2 0x2FBB JUMP JUMPDEST EQ PUSH2 0x1645 JUMPI PUSH1 0x40 MLOAD PUSH3 0x461BCD PUSH1 0xE5 SHL DUP2 MSTORE PUSH1 0x4 ADD PUSH2 0x867 SWAP1 PUSH2 0x3180 JUMP JUMPDEST PUSH1 0x1 PUSH1 0x1 PUSH1 0xA0 SHL SUB DUP2 AND PUSH1 0x0 SWAP1 DUP2 MSTORE PUSH1 0xA3 PUSH1 0x20 MSTORE PUSH1 0x40 DUP2 KECCAK256 SLOAD SWAP1 DUP2 SWAP1 SUB PUSH2 0x16A5 JUMPI PUSH1 0x40 MLOAD PUSH3 0x461BCD PUSH1 0xE5 SHL DUP2 MSTORE PUSH1 0x20 PUSH1 0x4 DUP3 ADD MSTORE PUSH1 0x14 PUSH1 0x24 DUP3 ADD MSTORE PUSH20 0x7570646174653A6E6F7420616E20757064617465 PUSH1 0x60 SHL PUSH1 0x44 DUP3 ADD MSTORE PUSH1 0x64 ADD PUSH2 0x867 JUMP JUMPDEST PUSH1 0x1 PUSH1 0x1 PUSH1 0xA0 SHL SUB DUP3 AND PUSH1 0x0 SWAP1 DUP2 MSTORE PUSH1 0x33 PUSH1 0x20 MSTORE PUSH1 0x40 DUP2 KECCAK256 SLOAD SWAP1 POP DUP1 PUSH1 0xA2 PUSH1 0x0 DUP3 DUP3 SLOAD PUSH2 0x16D2 SWAP2 SWAP1 PUSH2 0x30FE JUMP JUMPDEST SWAP1 SWAP2 SSTORE POP PUSH2 0x16E2 SWAP1 POP DUP3 DUP3 PUSH2 0x30DF JUMP JUMPDEST PUSH1 0x9B PUSH1 0x0 DUP3 DUP3 SLOAD PUSH2 0x16F3 SWAP2 SWAP1 PUSH2 0x30FE JUMP JUMPDEST SWAP1 SWAP2 SSTORE POP POP PUSH1 0x1 PUSH1 0x1 PUSH1 0xA0 SHL SUB DUP4 AND PUSH1 0x0 DUP2 DUP2 MSTORE PUSH1 0xA3 PUSH1 0x20 SWAP1 DUP2 MSTORE PUSH1 0x40 DUP1 DUP4 KECCAK256 DUP4 SWAP1 SSTORE MLOAD SWAP2 DUP3 MSTORE PUSH32 0x64E6E7BD72B853C4E62FD6CEACA05A104700C70A4CB567C75C7F2242BA7F037C SWAP2 ADD PUSH2 0x1528 JUMP JUMPDEST PUSH1 0x9E SLOAD PUSH1 0x1 PUSH1 0x1 PUSH1 0xA0 SHL SUB AND CALLER EQ PUSH2 0x176C JUMPI PUSH1 0x40 MLOAD PUSH3 0x461BCD PUSH1 0xE5 SHL DUP2 MSTORE PUSH1 0x4 ADD PUSH2 0x867 SWAP1 PUSH2 0x306C JUMP JUMPDEST PUSH1 0x9F SLOAD DUP2 LT PUSH2 0x17B2 JUMPI PUSH1 0x40 MLOAD PUSH3 0x461BCD PUSH1 0xE5 SHL DUP2 MSTORE PUSH1 0x20 PUSH1 0x4 DUP3 ADD MSTORE PUSH1 0x12 PUSH1 0x24 DUP3 ADD MSTORE PUSH18 0x7570646174653A63616E2774207261697365 PUSH1 0x70 SHL PUSH1 0x44 DUP3 ADD MSTORE PUSH1 0x64 ADD PUSH2 0x867 JUMP JUMPDEST PUSH32 0x0 PUSH1 0x1 PUSH1 0x1 PUSH1 0xA0 SHL SUB AND PUSH4 0x8A364BC1 PUSH1 0x40 MLOAD DUP2 PUSH4 0xFFFFFFFF AND PUSH1 0xE0 SHL DUP2 MSTORE PUSH1 0x4 ADD PUSH1 0x20 PUSH1 0x40 MLOAD DUP1 DUP4 SUB DUP2 PUSH1 0x0 DUP8 GAS CALL ISZERO DUP1 ISZERO PUSH2 0x1812 JUMPI RETURNDATASIZE PUSH1 0x0 DUP1 RETURNDATACOPY RETURNDATASIZE PUSH1 0x0 REVERT JUMPDEST POP POP POP POP PUSH1 0x40 MLOAD RETURNDATASIZE PUSH1 0x1F NOT PUSH1 0x1F DUP3 ADD AND DUP3 ADD DUP1 PUSH1 0x40 MSTORE POP DUP2 ADD SWAP1 PUSH2 0x1836 SWAP2 SWAP1 PUSH2 0x3098 JUMP JUMPDEST DUP2 GT ISZERO PUSH2 0x1891 JUMPI PUSH1 0x40 MLOAD PUSH3 0x461BCD PUSH1 0xE5 SHL DUP2 MSTORE PUSH1 0x20 PUSH1 0x4 DUP3 ADD MSTORE PUSH1 0x24 DUP1 DUP3 ADD MSTORE PUSH32 0x7570646174653A63616E6E6F7420696E63726561736520666565207468697320 PUSH1 0x44 DUP3 ADD MSTORE PUSH4 0xD0D2CED PUSH1 0xE3 SHL PUSH1 0x64 DUP3 ADD MSTORE PUSH1 0x84 ADD PUSH2 0x867 JUMP JUMPDEST PUSH2 0x1899 PUSH2 0x258F JUMP JUMPDEST PUSH1 0x9F DUP2 SWAP1 SSTORE PUSH1 0x40 MLOAD DUP2 DUP2 MSTORE PUSH32 0x2D1DAE59A9E9EC0BC2AB19D45B7D10C8C55304FA08B40A7998E9F67F03223D04 SWAP1 PUSH1 0x20 ADD PUSH2 0xE05 JUMP JUMPDEST PUSH1 0x60 PUSH1 0x37 DUP1 SLOAD PUSH2 0x7A4 SWAP1 PUSH2 0x3032 JUMP JUMPDEST PUSH1 0x2 PUSH1 0x9D SLOAD PUSH1 0x1 PUSH1 0xA0 SHL SWAP1 DIV PUSH1 0xFF AND PUSH1 0x3 DUP2 GT ISZERO PUSH2 0x18FD JUMPI PUSH2 0x18FD PUSH2 0x2FBB JUMP JUMPDEST EQ PUSH2 0x194A JUMPI PUSH1 0x40 MLOAD PUSH3 0x461BCD PUSH1 0xE5 SHL DUP2 MSTORE PUSH1 0x20 PUSH1 0x4 DUP3 ADD MSTORE PUSH1 0x19 PUSH1 0x24 DUP3 ADD MSTORE PUSH32 0x636173683A7661756C74206E6F7420636C6F7365642079657400000000000000 PUSH1 0x44 DUP3 ADD MSTORE PUSH1 0x64 ADD PUSH2 0x867 JUMP JUMPDEST CALLER PUSH1 0x0 SWAP1 DUP2 MSTORE PUSH1 0x33 PUSH1 0x20 MSTORE PUSH1 0x40 SWAP1 KECCAK256 SLOAD DUP1 PUSH2 0x19A7 JUMPI PUSH1 0x40 MLOAD PUSH3 0x461BCD PUSH1 0xE5 SHL DUP2 MSTORE PUSH1 0x20 PUSH1 0x4 DUP3 ADD MSTORE PUSH1 0x1A PUSH1 0x24 DUP3 ADD MSTORE PUSH32 0x636173683A6E6F20746F6B656E7320746F2063617368206F7574000000000000 PUSH1 0x44 DUP3 ADD MSTORE PUSH1 0x64 ADD PUSH2 0x867 JUMP JUMPDEST PUSH1 0x0 PUSH2 0x19B2 PUSH1 0x35 SLOAD SWAP1 JUMP JUMPDEST PUSH2 0x19BC SELFBALANCE DUP5 PUSH2 0x30DF JUMP JUMPDEST PUSH2 0x19C6 SWAP2 SWAP1 PUSH2 0x31C7 JUMP JUMPDEST SWAP1 POP PUSH2 0x19D2 CALLER DUP4 PUSH2 0x2869 JUMP JUMPDEST PUSH2 0x19DC CALLER DUP3 PUSH2 0x20C2 JUMP JUMPDEST PUSH1 0x40 MLOAD DUP2 DUP2 MSTORE CALLER SWAP1 PUSH32 0x730831A1E4AA2D187DDD8E03D7BEEAC760A3927DA5F112D645E0F8DF7494B367 SWAP1 PUSH1 0x20 ADD PUSH1 0x40 MLOAD DUP1 SWAP2 SUB SWAP1 LOG2 POP POP JUMP JUMPDEST CALLER PUSH1 0x0 SWAP1 DUP2 MSTORE PUSH1 0x34 PUSH1 0x20 SWAP1 DUP2 MSTORE PUSH1 0x40 DUP1 DUP4 KECCAK256 PUSH1 0x1 PUSH1 0x1 PUSH1 0xA0 SHL SUB DUP7 AND DUP5 MSTORE SWAP1 SWAP2 MSTORE DUP2 KECCAK256 SLOAD DUP3 DUP2 LT ISZERO PUSH2 0x1A97 JUMPI PUSH1 0x40 MLOAD PUSH3 0x461BCD PUSH1 0xE5 SHL DUP2 MSTORE PUSH1 0x20 PUSH1 0x4 DUP3 ADD MSTORE PUSH1 0x25 PUSH1 0x24 DUP3 ADD MSTORE PUSH32 0x45524332303A2064656372656173656420616C6C6F77616E63652062656C6F77 PUSH1 0x44 DUP3 ADD MSTORE PUSH5 0x207A65726F PUSH1 0xD8 SHL PUSH1 0x64 DUP3 ADD MSTORE PUSH1 0x84 ADD PUSH2 0x867 JUMP JUMPDEST PUSH2 0x1AA4 CALLER DUP6 DUP6 DUP5 SUB PUSH2 0x1F9E JUMP JUMPDEST POP PUSH1 0x1 SWAP4 SWAP3 POP POP POP JUMP JUMPDEST PUSH1 0x0 PUSH2 0x834 CALLER DUP5 DUP5 PUSH2 0x21C4 JUMP JUMPDEST PUSH1 0x0 PUSH1 0x9D SLOAD PUSH1 0x1 PUSH1 0xA0 SHL SWAP1 DIV PUSH1 0xFF AND PUSH1 0x3 DUP2 GT ISZERO PUSH2 0x1ADB JUMPI PUSH2 0x1ADB PUSH2 0x2FBB JUMP JUMPDEST EQ PUSH2 0x1B1E JUMPI PUSH1 0x40 MLOAD PUSH3 0x461BCD PUSH1 0xE5 SHL DUP2 MSTORE PUSH1 0x20 PUSH1 0x4 DUP3 ADD MSTORE PUSH1 0x13 PUSH1 0x24 DUP3 ADD MSTORE PUSH19 0x72656465656D3A6E6F2072656465656D696E67 PUSH1 0x68 SHL PUSH1 0x44 DUP3 ADD MSTORE PUSH1 0x64 ADD PUSH2 0x867 JUMP JUMPDEST PUSH2 0x1B30 CALLER PUSH2 0x1B2B PUSH1 0x35 SLOAD SWAP1 JUMP JUMPDEST PUSH2 0x2869 JUMP JUMPDEST PUSH1 0x97 SLOAD PUSH1 0x98 SLOAD PUSH1 0x40 MLOAD PUSH4 0x23B872DD PUSH1 0xE0 SHL DUP2 MSTORE ADDRESS PUSH1 0x4 DUP3 ADD MSTORE CALLER PUSH1 0x24 DUP3 ADD MSTORE PUSH1 0x44 DUP2 ADD SWAP2 SWAP1 SWAP2 MSTORE PUSH1 0x1 PUSH1 0x1 PUSH1 0xA0 SHL SUB SWAP1 SWAP2 AND SWAP1 PUSH4 0x23B872DD SWAP1 PUSH1 0x64 ADD PUSH1 0x0 PUSH1 0x40 MLOAD DUP1 DUP4 SUB DUP2 PUSH1 0x0 DUP8 DUP1 EXTCODESIZE ISZERO DUP1 ISZERO PUSH2 0x1B86 JUMPI PUSH1 0x0 DUP1 REVERT JUMPDEST POP GAS CALL ISZERO DUP1 ISZERO PUSH2 0x1B9A JUMPI RETURNDATASIZE PUSH1 0x0 DUP1 RETURNDATACOPY RETURNDATASIZE PUSH1 0x0 REVERT JUMPDEST POP POP PUSH1 0x9D DUP1 SLOAD PUSH1 0xFF PUSH1 0xA0 SHL NOT AND PUSH1 0x3 PUSH1 0xA0 SHL OR SWAP1 SSTORE POP POP PUSH1 0x40 MLOAD CALLER SWAP1 PUSH32 0xD1B5EA7FE0F1C2FA09D49C2AA9B2200664BA57A734F1D95481D95B7F99AF991C SWAP1 PUSH1 0x0 SWAP1 LOG2 JUMP JUMPDEST PUSH1 0x0 PUSH1 0x9D SLOAD PUSH1 0x1 PUSH1 0xA0 SHL SWAP1 DIV PUSH1 0xFF AND PUSH1 0x3 DUP2 GT ISZERO PUSH2 0x1BFE JUMPI PUSH2 0x1BFE PUSH2 0x2FBB JUMP JUMPDEST EQ PUSH2 0x1C4B JUMPI PUSH1 0x40 MLOAD PUSH3 0x461BCD PUSH1 0xE5 SHL DUP2 MSTORE PUSH1 0x20 PUSH1 0x4 DUP3 ADD MSTORE PUSH1 0x17 PUSH1 0x24 DUP3 ADD MSTORE PUSH32 0x73746172743A6E6F2061756374696F6E20737461727473000000000000000000 PUSH1 0x44 DUP3 ADD MSTORE PUSH1 0x64 ADD PUSH2 0x867 JUMP JUMPDEST PUSH2 0x1C53 PUSH2 0x1DF7 JUMP JUMPDEST CALLVALUE LT ISZERO PUSH2 0x1C96 JUMPI PUSH1 0x40 MLOAD PUSH3 0x461BCD PUSH1 0xE5 SHL DUP2 MSTORE PUSH1 0x20 PUSH1 0x4 DUP3 ADD MSTORE PUSH1 0x11 PUSH1 0x24 DUP3 ADD MSTORE PUSH17 0x1CDD185C9D0E9D1BDBC81B1BDDC8189A59 PUSH1 0x7A SHL PUSH1 0x44 DUP3 ADD MSTORE PUSH1 0x64 ADD PUSH2 0x867 JUMP JUMPDEST PUSH1 0x35 SLOAD PUSH32 0x0 PUSH1 0x1 PUSH1 0x1 PUSH1 0xA0 SHL SUB AND PUSH4 0x32977C73 PUSH1 0x40 MLOAD DUP2 PUSH4 0xFFFFFFFF AND PUSH1 0xE0 SHL DUP2 MSTORE PUSH1 0x4 ADD PUSH1 0x20 PUSH1 0x40 MLOAD DUP1 DUP4 SUB DUP2 PUSH1 0x0 DUP8 GAS CALL ISZERO DUP1 ISZERO PUSH2 0x1CF9 JUMPI RETURNDATASIZE PUSH1 0x0 DUP1 RETURNDATACOPY RETURNDATASIZE PUSH1 0x0 REVERT JUMPDEST POP POP POP POP PUSH1 0x40 MLOAD RETURNDATASIZE PUSH1 0x1F NOT PUSH1 0x1F DUP3 ADD AND DUP3 ADD DUP1 PUSH1 0x40 MSTORE POP DUP2 ADD SWAP1 PUSH2 0x1D1D SWAP2 SWAP1 PUSH2 0x3098 JUMP JUMPDEST PUSH2 0x1D27 SWAP2 SWAP1 PUSH2 0x30DF JUMP JUMPDEST PUSH1 0xA2 SLOAD PUSH2 0x1D36 SWAP1 PUSH2 0x3E8 PUSH2 0x30DF JUMP JUMPDEST LT ISZERO PUSH2 0x1D84 JUMPI PUSH1 0x40 MLOAD PUSH3 0x461BCD PUSH1 0xE5 SHL DUP2 MSTORE PUSH1 0x20 PUSH1 0x4 DUP3 ADD MSTORE PUSH1 0x17 PUSH1 0x24 DUP3 ADD MSTORE PUSH32 0x73746172743A6E6F7420656E6F75676820766F74657273000000000000000000 PUSH1 0x44 DUP3 ADD MSTORE PUSH1 0x64 ADD PUSH2 0x867 JUMP JUMPDEST PUSH1 0x9A SLOAD PUSH2 0x1D91 SWAP1 TIMESTAMP PUSH2 0x30C7 JUMP JUMPDEST PUSH1 0x99 SSTORE PUSH1 0x9D DUP1 SLOAD CALLVALUE PUSH1 0x9C DUP2 SWAP1 SSTORE PUSH1 0x1 PUSH1 0x1 PUSH1 0xA8 SHL SUB NOT SWAP1 SWAP2 AND CALLER SWAP1 DUP2 OR PUSH1 0x1 PUSH1 0xA0 SHL OR SWAP1 SWAP3 SSTORE PUSH1 0x40 MLOAD SWAP1 DUP2 MSTORE PUSH32 0xCFB9C5312B25EC7B809D61E638DF25F749EAE5D5C25399E1C93D1D319BFD5821 SWAP1 PUSH1 0x20 ADD JUMPDEST PUSH1 0x40 MLOAD DUP1 SWAP2 SUB SWAP1 LOG2 JUMP JUMPDEST PUSH2 0x1DF5 PUSH2 0x258F JUMP JUMPDEST JUMP JUMPDEST PUSH1 0x0 PUSH1 0xA2 SLOAD PUSH1 0x0 EQ PUSH2 0x1E18 JUMPI PUSH1 0xA2 SLOAD PUSH1 0x9B SLOAD PUSH2 0x1E13 SWAP2 SWAP1 PUSH2 0x31C7 JUMP JUMPDEST SWAP1 POP SWAP1 JUMP JUMPDEST POP PUSH1 0x0 SWAP1 JUMP JUMPDEST PUSH1 0x1 PUSH1 0x9D SLOAD PUSH1 0x1 PUSH1 0xA0 SHL SWAP1 DIV PUSH1 0xFF AND PUSH1 0x3 DUP2 GT ISZERO PUSH2 0x1E3E JUMPI PUSH2 0x1E3E PUSH2 0x2FBB JUMP JUMPDEST EQ PUSH2 0x1E8B JUMPI PUSH1 0x40 MLOAD PUSH3 0x461BCD PUSH1 0xE5 SHL DUP2 MSTORE PUSH1 0x20 PUSH1 0x4 DUP3 ADD MSTORE PUSH1 0x1C PUSH1 0x24 DUP3 ADD MSTORE PUSH32 0x656E643A7661756C742068617320616C726561647920636C6F73656400000000 PUSH1 0x44 DUP3 ADD MSTORE PUSH1 0x64 ADD PUSH2 0x867 JUMP JUMPDEST PUSH1 0x99 SLOAD TIMESTAMP LT ISZERO PUSH2 0x1ED0 JUMPI PUSH1 0x40 MLOAD PUSH3 0x461BCD PUSH1 0xE5 SHL DUP2 MSTORE PUSH1 0x20 PUSH1 0x4 DUP3 ADD MSTORE PUSH1 0x10 PUSH1 0x24 DUP3 ADD MSTORE PUSH16 0x656E643A61756374696F6E206C697665 PUSH1 0x80 SHL PUSH1 0x44 DUP3 ADD MSTORE PUSH1 0x64 ADD PUSH2 0x867 JUMP JUMPDEST PUSH2 0x1ED8 PUSH2 0x258F JUMP JUMPDEST PUSH1 0x97 SLOAD PUSH1 0x9D SLOAD PUSH1 0x98 SLOAD PUSH1 0x40 MLOAD PUSH4 0x23B872DD PUSH1 0xE0 SHL DUP2 MSTORE ADDRESS PUSH1 0x4 DUP3 ADD MSTORE PUSH1 0x1 PUSH1 0x1 PUSH1 0xA0 SHL SUB SWAP3 DUP4 AND PUSH1 0x24 DUP3 ADD MSTORE PUSH1 0x44 DUP2 ADD SWAP2 SWAP1 SWAP2 MSTORE SWAP2 AND SWAP1 PUSH4 0x23B872DD SWAP1 PUSH1 0x64 ADD PUSH1 0x0 PUSH1 0x40 MLOAD DUP1 DUP4 SUB DUP2 PUSH1 0x0 DUP8 DUP1 EXTCODESIZE ISZERO DUP1 ISZERO PUSH2 0x1F32 JUMPI PUSH1 0x0 DUP1 REVERT JUMPDEST POP GAS CALL ISZERO DUP1 ISZERO PUSH2 0x1F46 JUMPI RETURNDATASIZE PUSH1 0x0 DUP1 RETURNDATACOPY RETURNDATASIZE PUSH1 0x0 REVERT JUMPDEST POP POP PUSH1 0x9D DUP1 SLOAD PUSH1 0x1 PUSH1 0xA1 SHL PUSH1 0xFF PUSH1 0xA0 SHL NOT DUP3 AND OR SWAP1 SWAP2 SSTORE PUSH1 0x9C SLOAD PUSH1 0x40 MLOAD SWAP1 DUP2 MSTORE PUSH1 0x1 PUSH1 0x1 PUSH1 0xA0 SHL SUB SWAP1 SWAP2 AND SWAP3 POP PUSH32 0x8B01F9DD0400D6A1E84369A5FB8F6033934856FFA8EBADD707DCA302AB551695 SWAP2 POP PUSH1 0x20 ADD PUSH2 0x1DE3 JUMP JUMPDEST PUSH1 0x1 PUSH1 0x1 PUSH1 0xA0 SHL SUB DUP4 AND PUSH2 0x2000 JUMPI PUSH1 0x40 MLOAD PUSH3 0x461BCD PUSH1 0xE5 SHL DUP2 MSTORE PUSH1 0x20 PUSH1 0x4 DUP3 ADD MSTORE PUSH1 0x24 DUP1 DUP3 ADD MSTORE PUSH32 0x45524332303A20617070726F76652066726F6D20746865207A65726F20616464 PUSH1 0x44 DUP3 ADD MSTORE PUSH4 0x72657373 PUSH1 0xE0 SHL PUSH1 0x64 DUP3 ADD MSTORE PUSH1 0x84 ADD PUSH2 0x867 JUMP JUMPDEST PUSH1 0x1 PUSH1 0x1 PUSH1 0xA0 SHL SUB DUP3 AND PUSH2 0x2061 JUMPI PUSH1 0x40 MLOAD PUSH3 0x461BCD PUSH1 0xE5 SHL DUP2 MSTORE PUSH1 0x20 PUSH1 0x4 DUP3 ADD MSTORE PUSH1 0x22 PUSH1 0x24 DUP3 ADD MSTORE PUSH32 0x45524332303A20617070726F766520746F20746865207A65726F206164647265 PUSH1 0x44 DUP3 ADD MSTORE PUSH2 0x7373 PUSH1 0xF0 SHL PUSH1 0x64 DUP3 ADD MSTORE PUSH1 0x84 ADD PUSH2 0x867 JUMP JUMPDEST PUSH1 0x1 PUSH1 0x1 PUSH1 0xA0 SHL SUB DUP4 DUP2 AND PUSH1 0x0 DUP2 DUP2 MSTORE PUSH1 0x34 PUSH1 0x20 SWAP1 DUP2 MSTORE PUSH1 0x40 DUP1 DUP4 KECCAK256 SWAP5 DUP8 AND DUP1 DUP5 MSTORE SWAP5 DUP3 MSTORE SWAP2 DUP3 SWAP1 KECCAK256 DUP6 SWAP1 SSTORE SWAP1 MLOAD DUP5 DUP2 MSTORE PUSH32 0x8C5BE1E5EBEC7D5BD14F71427D1E84F3DD0314C0F7B2291E5B200AC8C7C3B925 SWAP2 ADD PUSH1 0x40 MLOAD DUP1 SWAP2 SUB SWAP1 LOG3 POP POP POP JUMP JUMPDEST PUSH2 0x20CC DUP3 DUP3 PUSH2 0x29CA JUMP JUMPDEST PUSH2 0x21C0 JUMPI PUSH20 0xC02AAA39B223FE8D0A0E5C4F27EAD9083C756CC2 PUSH1 0x1 PUSH1 0x1 PUSH1 0xA0 SHL SUB AND PUSH4 0xD0E30DB0 DUP3 PUSH1 0x40 MLOAD DUP3 PUSH4 0xFFFFFFFF AND PUSH1 0xE0 SHL DUP2 MSTORE PUSH1 0x4 ADD PUSH1 0x0 PUSH1 0x40 MLOAD DUP1 DUP4 SUB DUP2 DUP6 DUP9 DUP1 EXTCODESIZE ISZERO DUP1 ISZERO PUSH2 0x211F JUMPI PUSH1 0x0 DUP1 REVERT JUMPDEST POP GAS CALL ISZERO DUP1 ISZERO PUSH2 0x2133 JUMPI RETURNDATASIZE PUSH1 0x0 DUP1 RETURNDATACOPY RETURNDATASIZE PUSH1 0x0 REVERT JUMPDEST POP POP PUSH1 0x40 MLOAD PUSH4 0xA9059CBB PUSH1 0xE0 SHL DUP2 MSTORE PUSH1 0x1 PUSH1 0x1 PUSH1 0xA0 SHL SUB DUP7 AND PUSH1 0x4 DUP3 ADD MSTORE PUSH1 0x24 DUP2 ADD DUP6 SWAP1 MSTORE PUSH20 0xC02AAA39B223FE8D0A0E5C4F27EAD9083C756CC2 SWAP4 POP PUSH4 0xA9059CBB SWAP3 POP PUSH1 0x44 ADD SWAP1 POP PUSH1 0x20 PUSH1 0x40 MLOAD DUP1 DUP4 SUB DUP2 PUSH1 0x0 DUP8 GAS CALL ISZERO DUP1 ISZERO PUSH2 0x219A JUMPI RETURNDATASIZE PUSH1 0x0 DUP1 RETURNDATACOPY RETURNDATASIZE PUSH1 0x0 REVERT JUMPDEST POP POP POP POP PUSH1 0x40 MLOAD RETURNDATASIZE PUSH1 0x1F NOT PUSH1 0x1F DUP3 ADD AND DUP3 ADD DUP1 PUSH1 0x40 MSTORE POP DUP2 ADD SWAP1 PUSH2 0x21BE SWAP2 SWAP1 PUSH2 0x31E9 JUMP JUMPDEST POP JUMPDEST POP POP JUMP JUMPDEST PUSH1 0x1 PUSH1 0x1 PUSH1 0xA0 SHL SUB DUP4 AND PUSH2 0x2228 JUMPI PUSH1 0x40 MLOAD PUSH3 0x461BCD PUSH1 0xE5 SHL DUP2 MSTORE PUSH1 0x20 PUSH1 0x4 DUP3 ADD MSTORE PUSH1 0x25 PUSH1 0x24 DUP3 ADD MSTORE PUSH32 0x45524332303A207472616E736665722066726F6D20746865207A65726F206164 PUSH1 0x44 DUP3 ADD MSTORE PUSH5 0x6472657373 PUSH1 0xD8 SHL PUSH1 0x64 DUP3 ADD MSTORE PUSH1 0x84 ADD PUSH2 0x867 JUMP JUMPDEST PUSH1 0x1 PUSH1 0x1 PUSH1 0xA0 SHL SUB DUP3 AND PUSH2 0x228A JUMPI PUSH1 0x40 MLOAD PUSH3 0x461BCD PUSH1 0xE5 SHL DUP2 MSTORE PUSH1 0x20 PUSH1 0x4 DUP3 ADD MSTORE PUSH1 0x23 PUSH1 0x24 DUP3 ADD MSTORE PUSH32 0x45524332303A207472616E7366657220746F20746865207A65726F2061646472 PUSH1 0x44 DUP3 ADD MSTORE PUSH3 0x657373 PUSH1 0xE8 SHL PUSH1 0x64 DUP3 ADD MSTORE PUSH1 0x84 ADD PUSH2 0x867 JUMP JUMPDEST PUSH2 0x2295 DUP4 DUP4 DUP4 PUSH2 0x2A2D JUMP JUMPDEST PUSH1 0x1 PUSH1 0x1 PUSH1 0xA0 SHL SUB DUP4 AND PUSH1 0x0 SWAP1 DUP2 MSTORE PUSH1 0x33 PUSH1 0x20 MSTORE PUSH1 0x40 SWAP1 KECCAK256 SLOAD DUP2 DUP2 LT ISZERO PUSH2 0x230D JUMPI PUSH1 0x40 MLOAD PUSH3 0x461BCD PUSH1 0xE5 SHL DUP2 MSTORE PUSH1 0x20 PUSH1 0x4 DUP3 ADD MSTORE PUSH1 0x26 PUSH1 0x24 DUP3 ADD MSTORE PUSH32 0x45524332303A207472616E7366657220616D6F756E7420657863656564732062 PUSH1 0x44 DUP3 ADD MSTORE PUSH6 0x616C616E6365 PUSH1 0xD0 SHL PUSH1 0x64 DUP3 ADD MSTORE PUSH1 0x84 ADD PUSH2 0x867 JUMP JUMPDEST PUSH1 0x1 PUSH1 0x1 PUSH1 0xA0 SHL SUB DUP1 DUP6 AND PUSH1 0x0 SWAP1 DUP2 MSTORE PUSH1 0x33 PUSH1 0x20 MSTORE PUSH1 0x40 DUP1 DUP3 KECCAK256 DUP6 DUP6 SUB SWAP1 SSTORE SWAP2 DUP6 AND DUP2 MSTORE SWAP1 DUP2 KECCAK256 DUP1 SLOAD DUP5 SWAP3 SWAP1 PUSH2 0x2344 SWAP1 DUP5 SWAP1 PUSH2 0x30C7 JUMP JUMPDEST SWAP3 POP POP DUP2 SWAP1 SSTORE POP DUP3 PUSH1 0x1 PUSH1 0x1 PUSH1 0xA0 SHL SUB AND DUP5 PUSH1 0x1 PUSH1 0x1 PUSH1 0xA0 SHL SUB AND PUSH32 0xDDF252AD1BE2C89B69C2B068FC378DAA952BA7F163C4A11628F55A4DF523B3EF DUP5 PUSH1 0x40 MLOAD PUSH2 0x2390 SWAP2 DUP2 MSTORE PUSH1 0x20 ADD SWAP1 JUMP JUMPDEST PUSH1 0x40 MLOAD DUP1 SWAP2 SUB SWAP1 LOG3 PUSH2 0x23A3 DUP5 DUP5 DUP5 PUSH2 0x21BE JUMP JUMPDEST POP POP POP POP JUMP JUMPDEST PUSH1 0x0 SLOAD PUSH2 0x100 SWAP1 DIV PUSH1 0xFF AND DUP1 PUSH2 0x23C2 JUMPI POP PUSH1 0x0 SLOAD PUSH1 0xFF AND ISZERO JUMPDEST PUSH2 0x23DE JUMPI PUSH1 0x40 MLOAD PUSH3 0x461BCD PUSH1 0xE5 SHL DUP2 MSTORE PUSH1 0x4 ADD PUSH2 0x867 SWAP1 PUSH2 0x3132 JUMP JUMPDEST PUSH1 0x0 SLOAD PUSH2 0x100 SWAP1 DIV PUSH1 0xFF AND ISZERO DUP1 ISZERO PUSH2 0x2400 JUMPI PUSH1 0x0 DUP1 SLOAD PUSH2 0xFFFF NOT AND PUSH2 0x101 OR SWAP1 SSTORE JUMPDEST PUSH2 0x2408 PUSH2 0x2B33 JUMP JUMPDEST PUSH2 0x2412 DUP4 DUP4 PUSH2 0x2B9D JUMP JUMPDEST DUP1 ISZERO PUSH2 0x21BE JUMPI PUSH1 0x0 DUP1 SLOAD PUSH2 0xFF00 NOT AND SWAP1 SSTORE POP POP POP JUMP JUMPDEST PUSH1 0x0 SLOAD PUSH2 0x100 SWAP1 DIV PUSH1 0xFF AND DUP1 PUSH2 0x2441 JUMPI POP PUSH1 0x0 SLOAD PUSH1 0xFF AND ISZERO JUMPDEST PUSH2 0x245D JUMPI PUSH1 0x40 MLOAD PUSH3 0x461BCD PUSH1 0xE5 SHL DUP2 MSTORE PUSH1 0x4 ADD PUSH2 0x867 SWAP1 PUSH2 0x3132 JUMP JUMPDEST PUSH1 0x0 SLOAD PUSH2 0x100 SWAP1 DIV PUSH1 0xFF AND ISZERO DUP1 ISZERO PUSH2 0x247F JUMPI PUSH1 0x0 DUP1 SLOAD PUSH2 0xFFFF NOT AND PUSH2 0x101 OR SWAP1 SSTORE JUMPDEST PUSH2 0x2487 PUSH2 0x2B33 JUMP JUMPDEST DUP1 ISZERO PUSH2 0x2499 JUMPI PUSH1 0x0 DUP1 SLOAD PUSH2 0xFF00 NOT AND SWAP1 SSTORE JUMPDEST POP JUMP JUMPDEST PUSH1 0x1 PUSH1 0x1 PUSH1 0xA0 SHL SUB DUP3 AND PUSH2 0x24F2 JUMPI PUSH1 0x40 MLOAD PUSH3 0x461BCD PUSH1 0xE5 SHL DUP2 MSTORE PUSH1 0x20 PUSH1 0x4 DUP3 ADD MSTORE PUSH1 0x1F PUSH1 0x24 DUP3 ADD MSTORE PUSH32 0x45524332303A206D696E7420746F20746865207A65726F206164647265737300 PUSH1 0x44 DUP3 ADD MSTORE PUSH1 0x64 ADD PUSH2 0x867 JUMP JUMPDEST PUSH2 0x24FE PUSH1 0x0 DUP4 DUP4 PUSH2 0x2A2D JUMP JUMPDEST DUP1 PUSH1 0x35 PUSH1 0x0 DUP3 DUP3 SLOAD PUSH2 0x2510 SWAP2 SWAP1 PUSH2 0x30C7 JUMP JUMPDEST SWAP1 SWAP2 SSTORE POP POP PUSH1 0x1 PUSH1 0x1 PUSH1 0xA0 SHL SUB DUP3 AND PUSH1 0x0 SWAP1 DUP2 MSTORE PUSH1 0x33 PUSH1 0x20 MSTORE PUSH1 0x40 DUP2 KECCAK256 DUP1 SLOAD DUP4 SWAP3 SWAP1 PUSH2 0x253D SWAP1 DUP5 SWAP1 PUSH2 0x30C7 JUMP JUMPDEST SWAP1 SWAP2 SSTORE POP POP PUSH1 0x40 MLOAD DUP2 DUP2 MSTORE PUSH1 0x1 PUSH1 0x1 PUSH1 0xA0 SHL SUB DUP4 AND SWAP1 PUSH1 0x0 SWAP1 PUSH32 0xDDF252AD1BE2C89B69C2B068FC378DAA952BA7F163C4A11628F55A4DF523B3EF SWAP1 PUSH1 0x20 ADD PUSH1 0x40 MLOAD DUP1 SWAP2 SUB SWAP1 LOG3 PUSH2 0x21C0 PUSH1 0x0 DUP4 DUP4 PUSH2 0x21BE JUMP JUMPDEST PUSH1 0x2 PUSH1 0x9D SLOAD PUSH1 0x1 PUSH1 0xA0 SHL SWAP1 DIV PUSH1 0xFF AND PUSH1 0x3 DUP2 GT ISZERO PUSH2 0x25AF JUMPI PUSH2 0x25AF PUSH2 0x2FBB JUMP JUMPDEST SUB PUSH2 0x260A JUMPI PUSH1 0x40 MLOAD PUSH3 0x461BCD PUSH1 0xE5 SHL DUP2 MSTORE PUSH1 0x20 PUSH1 0x4 DUP3 ADD MSTORE PUSH1 0x25 PUSH1 0x24 DUP3 ADD MSTORE PUSH32 0x636C61696D3A63616E6E6F7420636C61696D2061667465722061756374696F6E PUSH1 0x44 DUP3 ADD MSTORE PUSH5 0x20656E6473 PUSH1 0xD8 SHL PUSH1 0x64 DUP3 ADD MSTORE PUSH1 0x84 ADD PUSH2 0x867 JUMP JUMPDEST PUSH1 0x0 PUSH2 0x3E8 PUSH2 0x2618 PUSH1 0x35 SLOAD SWAP1 JUMP JUMPDEST PUSH1 0x9F SLOAD PUSH2 0x2625 SWAP2 SWAP1 PUSH2 0x30DF JUMP JUMPDEST PUSH2 0x262F SWAP2 SWAP1 PUSH2 0x31C7 JUMP JUMPDEST SWAP1 POP PUSH1 0x0 PUSH2 0x2641 PUSH4 0x1E13380 DUP4 PUSH2 0x31C7 JUMP JUMPDEST SWAP1 POP PUSH1 0x0 PUSH1 0xA0 SLOAD TIMESTAMP PUSH2 0x2653 SWAP2 SWAP1 PUSH2 0x30FE JUMP JUMPDEST SWAP1 POP PUSH1 0x0 PUSH2 0x2661 DUP4 DUP4 PUSH2 0x30DF JUMP JUMPDEST SWAP1 POP PUSH1 0x0 PUSH32 0x0 PUSH1 0x1 PUSH1 0x1 PUSH1 0xA0 SHL SUB AND PUSH4 0xB3F00674 PUSH1 0x40 MLOAD DUP2 PUSH4 0xFFFFFFFF AND PUSH1 0xE0 SHL DUP2 MSTORE PUSH1 0x4 ADD PUSH1 0x20 PUSH1 0x40 MLOAD DUP1 DUP4 SUB DUP2 PUSH1 0x0 DUP8 GAS CALL ISZERO DUP1 ISZERO PUSH2 0x26C5 JUMPI RETURNDATASIZE PUSH1 0x0 DUP1 RETURNDATACOPY RETURNDATASIZE PUSH1 0x0 REVERT JUMPDEST POP POP POP POP PUSH1 0x40 MLOAD RETURNDATASIZE PUSH1 0x1F NOT PUSH1 0x1F DUP3 ADD AND DUP3 ADD DUP1 PUSH1 0x40 MSTORE POP DUP2 ADD SWAP1 PUSH2 0x26E9 SWAP2 SWAP1 PUSH2 0x3115 JUMP JUMPDEST SWAP1 POP PUSH1 0x0 PUSH32 0x0 PUSH1 0x1 PUSH1 0x1 PUSH1 0xA0 SHL SUB AND PUSH4 0xEA90A12 PUSH1 0x40 MLOAD DUP2 PUSH4 0xFFFFFFFF AND PUSH1 0xE0 SHL DUP2 MSTORE PUSH1 0x4 ADD PUSH1 0x20 PUSH1 0x40 MLOAD DUP1 DUP4 SUB DUP2 PUSH1 0x0 DUP8 GAS CALL ISZERO DUP1 ISZERO PUSH2 0x274D JUMPI RETURNDATASIZE PUSH1 0x0 DUP1 RETURNDATACOPY RETURNDATASIZE PUSH1 0x0 REVERT JUMPDEST POP POP POP POP PUSH1 0x40 MLOAD RETURNDATASIZE PUSH1 0x1F NOT PUSH1 0x1F DUP3 ADD AND DUP3 ADD DUP1 PUSH1 0x40 MSTORE POP DUP2 ADD SWAP1 PUSH2 0x2771 SWAP2 SWAP1 PUSH2 0x3098 JUMP JUMPDEST SWAP1 POP PUSH2 0x3E8 PUSH2 0x277F PUSH1 0x35 SLOAD SWAP1 JUMP JUMPDEST PUSH2 0x2789 SWAP1 DUP4 PUSH2 0x30DF JUMP JUMPDEST PUSH2 0x2793 SWAP2 SWAP1 PUSH2 0x31C7 JUMP JUMPDEST SWAP6 POP PUSH2 0x27A3 PUSH4 0x1E13380 DUP8 PUSH2 0x31C7 JUMP JUMPDEST SWAP5 POP PUSH1 0x0 PUSH2 0x27B1 DUP7 DUP7 PUSH2 0x30DF JUMP JUMPDEST TIMESTAMP PUSH1 0xA0 SSTORE PUSH1 0x9E SLOAD SWAP1 SWAP2 POP PUSH1 0x1 PUSH1 0x1 PUSH1 0xA0 SHL SUB AND ISZERO PUSH2 0x2813 JUMPI PUSH1 0x9E SLOAD PUSH2 0x27DF SWAP1 PUSH1 0x1 PUSH1 0x1 PUSH1 0xA0 SHL SUB AND DUP6 PUSH2 0x249C JUMP JUMPDEST PUSH1 0x40 MLOAD DUP5 DUP2 MSTORE PUSH32 0x62B10E3FF3D45B5FF546E740B893897FACB1680285F989A64AE932D62C5388E1 SWAP1 PUSH1 0x20 ADD PUSH1 0x40 MLOAD DUP1 SWAP2 SUB SWAP1 LOG1 JUMPDEST PUSH1 0x1 PUSH1 0x1 PUSH1 0xA0 SHL SUB DUP4 AND ISZERO PUSH2 0x2860 JUMPI PUSH2 0x282C DUP4 DUP3 PUSH2 0x249C JUMP JUMPDEST PUSH1 0x40 MLOAD DUP2 DUP2 MSTORE PUSH32 0x62B10E3FF3D45B5FF546E740B893897FACB1680285F989A64AE932D62C5388E1 SWAP1 PUSH1 0x20 ADD PUSH1 0x40 MLOAD DUP1 SWAP2 SUB SWAP1 LOG1 JUMPDEST POP POP POP POP POP POP POP JUMP JUMPDEST PUSH1 0x1 PUSH1 0x1 PUSH1 0xA0 SHL SUB DUP3 AND PUSH2 0x28C9 JUMPI PUSH1 0x40 MLOAD PUSH3 0x461BCD PUSH1 0xE5 SHL DUP2 MSTORE PUSH1 0x20 PUSH1 0x4 DUP3 ADD MSTORE PUSH1 0x21 PUSH1 0x24 DUP3 ADD MSTORE PUSH32 0x45524332303A206275726E2066726F6D20746865207A65726F20616464726573 PUSH1 0x44 DUP3 ADD MSTORE PUSH1 0x73 PUSH1 0xF8 SHL PUSH1 0x64 DUP3 ADD MSTORE PUSH1 0x84 ADD PUSH2 0x867 JUMP JUMPDEST PUSH2 0x28D5 DUP3 PUSH1 0x0 DUP4 PUSH2 0x2A2D JUMP JUMPDEST PUSH1 0x1 PUSH1 0x1 PUSH1 0xA0 SHL SUB DUP3 AND PUSH1 0x0 SWAP1 DUP2 MSTORE PUSH1 0x33 PUSH1 0x20 MSTORE PUSH1 0x40 SWAP1 KECCAK256 SLOAD DUP2 DUP2 LT ISZERO PUSH2 0x2949 JUMPI PUSH1 0x40 MLOAD PUSH3 0x461BCD PUSH1 0xE5 SHL DUP2 MSTORE PUSH1 0x20 PUSH1 0x4 DUP3 ADD MSTORE PUSH1 0x22 PUSH1 0x24 DUP3 ADD MSTORE PUSH32 0x45524332303A206275726E20616D6F756E7420657863656564732062616C616E PUSH1 0x44 DUP3 ADD MSTORE PUSH2 0x6365 PUSH1 0xF0 SHL PUSH1 0x64 DUP3 ADD MSTORE PUSH1 0x84 ADD PUSH2 0x867 JUMP JUMPDEST PUSH1 0x1 PUSH1 0x1 PUSH1 0xA0 SHL SUB DUP4 AND PUSH1 0x0 SWAP1 DUP2 MSTORE PUSH1 0x33 PUSH1 0x20 MSTORE PUSH1 0x40 DUP2 KECCAK256 DUP4 DUP4 SUB SWAP1 SSTORE PUSH1 0x35 DUP1 SLOAD DUP5 SWAP3 SWAP1 PUSH2 0x2978 SWAP1 DUP5 SWAP1 PUSH2 0x30FE JUMP JUMPDEST SWAP1 SWAP2 SSTORE POP POP PUSH1 0x40 MLOAD DUP3 DUP2 MSTORE PUSH1 0x0 SWAP1 PUSH1 0x1 PUSH1 0x1 PUSH1 0xA0 SHL SUB DUP6 AND SWAP1 PUSH32 0xDDF252AD1BE2C89B69C2B068FC378DAA952BA7F163C4A11628F55A4DF523B3EF SWAP1 PUSH1 0x20 ADD PUSH1 0x40 MLOAD DUP1 SWAP2 SUB SWAP1 LOG3 PUSH2 0x21BE DUP4 PUSH1 0x0 DUP5 PUSH2 0x21BE JUMP JUMPDEST PUSH1 0x0 DUP1 DUP4 PUSH1 0x1 PUSH1 0x1 PUSH1 0xA0 SHL SUB AND DUP4 PUSH2 0x7530 SWAP1 PUSH1 0x40 MLOAD PUSH1 0x0 PUSH1 0x40 MLOAD DUP1 DUP4 SUB DUP2 DUP6 DUP9 DUP9 CALL SWAP4 POP POP POP POP RETURNDATASIZE DUP1 PUSH1 0x0 DUP2 EQ PUSH2 0x2A1D JUMPI PUSH1 0x40 MLOAD SWAP2 POP PUSH1 0x1F NOT PUSH1 0x3F RETURNDATASIZE ADD AND DUP3 ADD PUSH1 0x40 MSTORE RETURNDATASIZE DUP3 MSTORE RETURNDATASIZE PUSH1 0x0 PUSH1 0x20 DUP5 ADD RETURNDATACOPY PUSH2 0x2A22 JUMP JUMPDEST PUSH1 0x60 SWAP2 POP JUMPDEST POP SWAP1 SWAP6 SWAP5 POP POP POP POP POP JUMP JUMPDEST PUSH1 0x0 PUSH1 0x9D SLOAD PUSH1 0x1 PUSH1 0xA0 SHL SWAP1 DIV PUSH1 0xFF AND PUSH1 0x3 DUP2 GT ISZERO PUSH2 0x2A4D JUMPI PUSH2 0x2A4D PUSH2 0x2FBB JUMP JUMPDEST SUB PUSH2 0x21BE JUMPI PUSH1 0x1 PUSH1 0x1 PUSH1 0xA0 SHL SUB DUP1 DUP5 AND PUSH1 0x0 SWAP1 DUP2 MSTORE PUSH1 0xA3 PUSH1 0x20 MSTORE PUSH1 0x40 DUP1 DUP3 KECCAK256 SLOAD SWAP3 DUP6 AND DUP3 MSTORE SWAP1 KECCAK256 SLOAD DUP1 DUP3 EQ PUSH2 0x2B2C JUMPI DUP1 PUSH1 0x0 SUB PUSH2 0x2AC2 JUMPI DUP3 PUSH1 0xA2 PUSH1 0x0 DUP3 DUP3 SLOAD PUSH2 0x2A96 SWAP2 SWAP1 PUSH2 0x30FE JUMP JUMPDEST SWAP1 SWAP2 SSTORE POP PUSH2 0x2AA6 SWAP1 POP DUP3 DUP5 PUSH2 0x30DF JUMP JUMPDEST PUSH1 0x9B PUSH1 0x0 DUP3 DUP3 SLOAD PUSH2 0x2AB7 SWAP2 SWAP1 PUSH2 0x30FE JUMP JUMPDEST SWAP1 SWAP2 SSTORE POP PUSH2 0x2B2C SWAP1 POP JUMP JUMPDEST DUP2 PUSH1 0x0 SUB PUSH2 0x2AFD JUMPI DUP3 PUSH1 0xA2 PUSH1 0x0 DUP3 DUP3 SLOAD PUSH2 0x2ADC SWAP2 SWAP1 PUSH2 0x30C7 JUMP JUMPDEST SWAP1 SWAP2 SSTORE POP PUSH2 0x2AEC SWAP1 POP DUP2 DUP5 PUSH2 0x30DF JUMP JUMPDEST PUSH1 0x9B PUSH1 0x0 DUP3 DUP3 SLOAD PUSH2 0x2AB7 SWAP2 SWAP1 PUSH2 0x30C7 JUMP JUMPDEST PUSH2 0x2B07 DUP3 DUP5 PUSH2 0x30DF JUMP JUMPDEST PUSH2 0x2B11 DUP3 DUP6 PUSH2 0x30DF JUMP JUMPDEST PUSH1 0x9B SLOAD PUSH2 0x2B1E SWAP2 SWAP1 PUSH2 0x30C7 JUMP JUMPDEST PUSH2 0x2B28 SWAP2 SWAP1 PUSH2 0x30FE JUMP JUMPDEST PUSH1 0x9B SSTORE JUMPDEST POP POP POP POP POP JUMP JUMPDEST PUSH1 0x0 SLOAD PUSH2 0x100 SWAP1 DIV PUSH1 0xFF AND DUP1 PUSH2 0x2B4C JUMPI POP PUSH1 0x0 SLOAD PUSH1 0xFF AND ISZERO JUMPDEST PUSH2 0x2B68 JUMPI PUSH1 0x40 MLOAD PUSH3 0x461BCD PUSH1 0xE5 SHL DUP2 MSTORE PUSH1 0x4 ADD PUSH2 0x867 SWAP1 PUSH2 0x3132 JUMP JUMPDEST PUSH1 0x0 SLOAD PUSH2 0x100 SWAP1 DIV PUSH1 0xFF AND ISZERO DUP1 ISZERO PUSH2 0x2487 JUMPI PUSH1 0x0 DUP1 SLOAD PUSH2 0xFFFF NOT AND PUSH2 0x101 OR SWAP1 SSTORE DUP1 ISZERO PUSH2 0x2499 JUMPI PUSH1 0x0 DUP1 SLOAD PUSH2 0xFF00 NOT AND SWAP1 SSTORE POP JUMP JUMPDEST PUSH1 0x0 SLOAD PUSH2 0x100 SWAP1 DIV PUSH1 0xFF AND DUP1 PUSH2 0x2BB6 JUMPI POP PUSH1 0x0 SLOAD PUSH1 0xFF AND ISZERO JUMPDEST PUSH2 0x2BD2 JUMPI PUSH1 0x40 MLOAD PUSH3 0x461BCD PUSH1 0xE5 SHL DUP2 MSTORE PUSH1 0x4 ADD PUSH2 0x867 SWAP1 PUSH2 0x3132 JUMP JUMPDEST PUSH1 0x0 SLOAD PUSH2 0x100 SWAP1 DIV PUSH1 0xFF AND ISZERO DUP1 ISZERO PUSH2 0x2BF4 JUMPI PUSH1 0x0 DUP1 SLOAD PUSH2 0xFFFF NOT AND PUSH2 0x101 OR SWAP1 SSTORE JUMPDEST DUP3 MLOAD PUSH2 0x2C07 SWAP1 PUSH1 0x36 SWAP1 PUSH1 0x20 DUP7 ADD SWAP1 PUSH2 0x2C32 JUMP JUMPDEST POP DUP2 MLOAD PUSH2 0x2C1B SWAP1 PUSH1 0x37 SWAP1 PUSH1 0x20 DUP6 ADD SWAP1 PUSH2 0x2C32 JUMP JUMPDEST POP DUP1 ISZERO PUSH2 0x21BE JUMPI PUSH1 0x0 DUP1 SLOAD PUSH2 0xFF00 NOT AND SWAP1 SSTORE POP POP POP JUMP JUMPDEST DUP3 DUP1 SLOAD PUSH2 0x2C3E SWAP1 PUSH2 0x3032 JUMP JUMPDEST SWAP1 PUSH1 0x0 MSTORE PUSH1 0x20 PUSH1 0x0 KECCAK256 SWAP1 PUSH1 0x1F ADD PUSH1 0x20 SWAP1 DIV DUP2 ADD SWAP3 DUP3 PUSH2 0x2C60 JUMPI PUSH1 0x0 DUP6 SSTORE PUSH2 0x2CA6 JUMP JUMPDEST DUP3 PUSH1 0x1F LT PUSH2 0x2C79 JUMPI DUP1 MLOAD PUSH1 0xFF NOT AND DUP4 DUP1 ADD OR DUP6 SSTORE PUSH2 0x2CA6 JUMP JUMPDEST DUP3 DUP1 ADD PUSH1 0x1 ADD DUP6 SSTORE DUP3 ISZERO PUSH2 0x2CA6 JUMPI SWAP2 DUP3 ADD JUMPDEST DUP3 DUP2 GT ISZERO PUSH2 0x2CA6 JUMPI DUP3 MLOAD DUP3 SSTORE SWAP2 PUSH1 0x20 ADD SWAP2 SWAP1 PUSH1 0x1 ADD SWAP1 PUSH2 0x2C8B JUMP JUMPDEST POP PUSH2 0x2CB2 SWAP3 SWAP2 POP PUSH2 0x2CB6 JUMP JUMPDEST POP SWAP1 JUMP JUMPDEST JUMPDEST DUP1 DUP3 GT ISZERO PUSH2 0x2CB2 JUMPI PUSH1 0x0 DUP2 SSTORE PUSH1 0x1 ADD PUSH2 0x2CB7 JUMP JUMPDEST PUSH1 0x0 PUSH1 0x20 DUP1 DUP4 MSTORE DUP4 MLOAD DUP1 DUP3 DUP6 ADD MSTORE PUSH1 0x0 JUMPDEST DUP2 DUP2 LT ISZERO PUSH2 0x2CF8 JUMPI DUP6 DUP2 ADD DUP4 ADD MLOAD DUP6 DUP3 ADD PUSH1 0x40 ADD MSTORE DUP3 ADD PUSH2 0x2CDC JUMP JUMPDEST DUP2 DUP2 GT ISZERO PUSH2 0x2D0A JUMPI PUSH1 0x0 PUSH1 0x40 DUP4 DUP8 ADD ADD MSTORE JUMPDEST POP PUSH1 0x1F ADD PUSH1 0x1F NOT AND SWAP3 SWAP1 SWAP3 ADD PUSH1 0x40 ADD SWAP4 SWAP3 POP POP POP JUMP JUMPDEST PUSH1 0x1 PUSH1 0x1 PUSH1 0xA0 SHL SUB DUP2 AND DUP2 EQ PUSH2 0x2499 JUMPI PUSH1 0x0 DUP1 REVERT JUMPDEST PUSH1 0x0 DUP1 PUSH1 0x40 DUP4 DUP6 SUB SLT ISZERO PUSH2 0x2D48 JUMPI PUSH1 0x0 DUP1 REVERT JUMPDEST DUP3 CALLDATALOAD PUSH2 0x2D53 DUP2 PUSH2 0x2D20 JUMP JUMPDEST SWAP5 PUSH1 0x20 SWAP4 SWAP1 SWAP4 ADD CALLDATALOAD SWAP4 POP POP POP JUMP JUMPDEST PUSH1 0x0 PUSH1 0x20 DUP3 DUP5 SUB SLT ISZERO PUSH2 0x2D73 JUMPI PUSH1 0x0 DUP1 REVERT JUMPDEST DUP2 CALLDATALOAD PUSH2 0x2D7E DUP2 PUSH2 0x2D20 JUMP JUMPDEST SWAP4 SWAP3 POP POP POP JUMP JUMPDEST PUSH4 0x4E487B71 PUSH1 0xE0 SHL PUSH1 0x0 MSTORE PUSH1 0x41 PUSH1 0x4 MSTORE PUSH1 0x24 PUSH1 0x0 REVERT JUMPDEST PUSH1 0x0 PUSH8 0xFFFFFFFFFFFFFFFF DUP1 DUP5 GT ISZERO PUSH2 0x2DB6 JUMPI PUSH2 0x2DB6 PUSH2 0x2D85 JUMP JUMPDEST PUSH1 0x40 MLOAD PUSH1 0x1F DUP6 ADD PUSH1 0x1F NOT SWAP1 DUP2 AND PUSH1 0x3F ADD AND DUP2 ADD SWAP1 DUP3 DUP3 GT DUP2 DUP4 LT OR ISZERO PUSH2 0x2DDE JUMPI PUSH2 0x2DDE PUSH2 0x2D85 JUMP JUMPDEST DUP2 PUSH1 0x40 MSTORE DUP1 SWAP4 POP DUP6 DUP2 MSTORE DUP7 DUP7 DUP7 ADD GT ISZERO PUSH2 0x2DF7 JUMPI PUSH1 0x0 DUP1 REVERT JUMPDEST DUP6 DUP6 PUSH1 0x20 DUP4 ADD CALLDATACOPY PUSH1 0x0 PUSH1 0x20 DUP8 DUP4 ADD ADD MSTORE POP POP POP SWAP4 SWAP3 POP POP POP JUMP JUMPDEST PUSH1 0x0 DUP1 PUSH1 0x0 DUP1 PUSH1 0x80 DUP6 DUP8 SUB SLT ISZERO PUSH2 0x2E27 JUMPI PUSH1 0x0 DUP1 REVERT JUMPDEST DUP5 CALLDATALOAD PUSH2 0x2E32 DUP2 PUSH2 0x2D20 JUMP JUMPDEST SWAP4 POP PUSH1 0x20 DUP6 ADD CALLDATALOAD PUSH2 0x2E42 DUP2 PUSH2 0x2D20 JUMP JUMPDEST SWAP3 POP PUSH1 0x40 DUP6 ADD CALLDATALOAD SWAP2 POP PUSH1 0x60 DUP6 ADD CALLDATALOAD PUSH8 0xFFFFFFFFFFFFFFFF DUP2 GT ISZERO PUSH2 0x2E65 JUMPI PUSH1 0x0 DUP1 REVERT JUMPDEST DUP6 ADD PUSH1 0x1F DUP2 ADD DUP8 SGT PUSH2 0x2E76 JUMPI PUSH1 0x0 DUP1 REVERT JUMPDEST PUSH2 0x2E85 DUP8 DUP3 CALLDATALOAD PUSH1 0x20 DUP5 ADD PUSH2 0x2D9B JUMP JUMPDEST SWAP2 POP POP SWAP3 SWAP6 SWAP2 SWAP5 POP SWAP3 POP JUMP JUMPDEST PUSH1 0x0 DUP1 PUSH1 0x0 PUSH1 0x60 DUP5 DUP7 SUB SLT ISZERO PUSH2 0x2EA6 JUMPI PUSH1 0x0 DUP1 REVERT JUMPDEST DUP4 CALLDATALOAD PUSH2 0x2EB1 DUP2 PUSH2 0x2D20 JUMP JUMPDEST SWAP3 POP PUSH1 0x20 DUP5 ADD CALLDATALOAD PUSH2 0x2EC1 DUP2 PUSH2 0x2D20 JUMP JUMPDEST SWAP3 SWAP6 SWAP3 SWAP5 POP POP POP PUSH1 0x40 SWAP2 SWAP1 SWAP2 ADD CALLDATALOAD SWAP1 JUMP JUMPDEST PUSH1 0x0 PUSH1 0x20 DUP3 DUP5 SUB SLT ISZERO PUSH2 0x2EE4 JUMPI PUSH1 0x0 DUP1 REVERT JUMPDEST POP CALLDATALOAD SWAP2 SWAP1 POP JUMP JUMPDEST PUSH1 0x0 DUP3 PUSH1 0x1F DUP4 ADD SLT PUSH2 0x2EFC JUMPI PUSH1 0x0 DUP1 REVERT JUMPDEST PUSH2 0x2D7E DUP4 DUP4 CALLDATALOAD PUSH1 0x20 DUP6 ADD PUSH2 0x2D9B JUMP JUMPDEST PUSH1 0x0 DUP1 PUSH1 0x0 DUP1 PUSH1 0x0 DUP1 PUSH1 0x0 DUP1 PUSH2 0x100 DUP10 DUP12 SUB SLT ISZERO PUSH2 0x2F28 JUMPI PUSH1 0x0 DUP1 REVERT JUMPDEST DUP9 CALLDATALOAD PUSH2 0x2F33 DUP2 PUSH2 0x2D20 JUMP JUMPDEST SWAP8 POP PUSH1 0x20 DUP10 ADD CALLDATALOAD PUSH2 0x2F43 DUP2 PUSH2 0x2D20 JUMP JUMPDEST SWAP7 POP PUSH1 0x40 DUP10 ADD CALLDATALOAD SWAP6 POP PUSH1 0x60 DUP10 ADD CALLDATALOAD SWAP5 POP PUSH1 0x80 DUP10 ADD CALLDATALOAD SWAP4 POP PUSH1 0xA0 DUP10 ADD CALLDATALOAD SWAP3 POP PUSH1 0xC0 DUP10 ADD CALLDATALOAD PUSH8 0xFFFFFFFFFFFFFFFF DUP1 DUP3 GT ISZERO PUSH2 0x2F7C JUMPI PUSH1 0x0 DUP1 REVERT JUMPDEST PUSH2 0x2F88 DUP13 DUP4 DUP14 ADD PUSH2 0x2EEB JUMP JUMPDEST SWAP4 POP PUSH1 0xE0 DUP12 ADD CALLDATALOAD SWAP2 POP DUP1 DUP3 GT ISZERO PUSH2 0x2F9E JUMPI PUSH1 0x0 DUP1 REVERT JUMPDEST POP PUSH2 0x2FAB DUP12 DUP3 DUP13 ADD PUSH2 0x2EEB JUMP JUMPDEST SWAP2 POP POP SWAP3 SWAP6 SWAP9 POP SWAP3 SWAP6 SWAP9 SWAP1 SWAP4 SWAP7 POP JUMP JUMPDEST PUSH4 0x4E487B71 PUSH1 0xE0 SHL PUSH1 0x0 MSTORE PUSH1 0x21 PUSH1 0x4 MSTORE PUSH1 0x24 PUSH1 0x0 REVERT JUMPDEST PUSH1 0x20 DUP2 ADD PUSH1 0x4 DUP4 LT PUSH2 0x2FF3 JUMPI PUSH4 0x4E487B71 PUSH1 0xE0 SHL PUSH1 0x0 MSTORE PUSH1 0x21 PUSH1 0x4 MSTORE PUSH1 0x24 PUSH1 0x0 REVERT JUMPDEST SWAP2 SWAP1 MSTORE SWAP1 JUMP JUMPDEST PUSH1 0x0 DUP1 PUSH1 0x40 DUP4 DUP6 SUB SLT ISZERO PUSH2 0x300C JUMPI PUSH1 0x0 DUP1 REVERT JUMPDEST DUP3 CALLDATALOAD PUSH2 0x3017 DUP2 PUSH2 0x2D20 JUMP JUMPDEST SWAP2 POP PUSH1 0x20 DUP4 ADD CALLDATALOAD PUSH2 0x3027 DUP2 PUSH2 0x2D20 JUMP JUMPDEST DUP1 SWAP2 POP POP SWAP3 POP SWAP3 SWAP1 POP JUMP JUMPDEST PUSH1 0x1 DUP2 DUP2 SHR SWAP1 DUP3 AND DUP1 PUSH2 0x3046 JUMPI PUSH1 0x7F DUP3 AND SWAP2 POP JUMPDEST PUSH1 0x20 DUP3 LT DUP2 SUB PUSH2 0x3066 JUMPI PUSH4 0x4E487B71 PUSH1 0xE0 SHL PUSH1 0x0 MSTORE PUSH1 0x22 PUSH1 0x4 MSTORE PUSH1 0x24 PUSH1 0x0 REVERT JUMPDEST POP SWAP2 SWAP1 POP JUMP JUMPDEST PUSH1 0x20 DUP1 DUP3 MSTORE PUSH1 0x12 SWAP1 DUP3 ADD MSTORE PUSH18 0x3AB83230BA329D3737BA1031BAB930BA37B9 PUSH1 0x71 SHL PUSH1 0x40 DUP3 ADD MSTORE PUSH1 0x60 ADD SWAP1 JUMP JUMPDEST PUSH1 0x0 PUSH1 0x20 DUP3 DUP5 SUB SLT ISZERO PUSH2 0x30AA JUMPI PUSH1 0x0 DUP1 REVERT JUMPDEST POP MLOAD SWAP2 SWAP1 POP JUMP JUMPDEST PUSH4 0x4E487B71 PUSH1 0xE0 SHL PUSH1 0x0 MSTORE PUSH1 0x11 PUSH1 0x4 MSTORE PUSH1 0x24 PUSH1 0x0 REVERT JUMPDEST PUSH1 0x0 DUP3 NOT DUP3 GT ISZERO PUSH2 0x30DA JUMPI PUSH2 0x30DA PUSH2 0x30B1 JUMP JUMPDEST POP ADD SWAP1 JUMP JUMPDEST PUSH1 0x0 DUP2 PUSH1 0x0 NOT DIV DUP4 GT DUP3 ISZERO ISZERO AND ISZERO PUSH2 0x30F9 JUMPI PUSH2 0x30F9 PUSH2 0x30B1 JUMP JUMPDEST POP MUL SWAP1 JUMP JUMPDEST PUSH1 0x0 DUP3 DUP3 LT ISZERO PUSH2 0x3110 JUMPI PUSH2 0x3110 PUSH2 0x30B1 JUMP JUMPDEST POP SUB SWAP1 JUMP JUMPDEST PUSH1 0x0 PUSH1 0x20 DUP3 DUP5 SUB SLT ISZERO PUSH2 0x3127 JUMPI PUSH1 0x0 DUP1 REVERT JUMPDEST DUP2 MLOAD PUSH2 0x2D7E DUP2 PUSH2 0x2D20 JUMP JUMPDEST PUSH1 0x20 DUP1 DUP3 MSTORE PUSH1 0x2E SWAP1 DUP3 ADD MSTORE PUSH32 0x496E697469616C697A61626C653A20636F6E747261637420697320616C726561 PUSH1 0x40 DUP3 ADD MSTORE PUSH14 0x191E481A5B9A5D1A585B1A5E9959 PUSH1 0x92 SHL PUSH1 0x60 DUP3 ADD MSTORE PUSH1 0x80 ADD SWAP1 JUMP JUMPDEST PUSH1 0x20 DUP1 DUP3 MSTORE PUSH1 0x27 SWAP1 DUP3 ADD MSTORE PUSH32 0x7570646174653A61756374696F6E206C6976652063616E6E6F74207570646174 PUSH1 0x40 DUP3 ADD MSTORE PUSH7 0x65207072696365 PUSH1 0xC8 SHL PUSH1 0x60 DUP3 ADD MSTORE PUSH1 0x80 ADD SWAP1 JUMP JUMPDEST PUSH1 0x0 DUP3 PUSH2 0x31E4 JUMPI PUSH4 0x4E487B71 PUSH1 0xE0 SHL PUSH1 0x0 MSTORE PUSH1 0x12 PUSH1 0x4 MSTORE PUSH1 0x24 PUSH1 0x0 REVERT JUMPDEST POP DIV SWAP1 JUMP JUMPDEST PUSH1 0x0 PUSH1 0x20 DUP3 DUP5 SUB SLT ISZERO PUSH2 0x31FB JUMPI PUSH1 0x0 DUP1 REVERT JUMPDEST DUP2 MLOAD DUP1 ISZERO ISZERO DUP2 EQ PUSH2 0x2D7E JUMPI PUSH1 0x0 DUP1 REVERT INVALID LOG2 PUSH5 0x6970667358 0x22 SLT KECCAK256 0xD7 SWAP16 0xDC 0xFB 0xEC MSTORE8 PUSH7 0xB8DA582AADC2B9 DUP9 REVERT BLOCKHASH 0xC3 RETURNDATASIZE 0xBC 0xE4 0x4E DIV DUP16 PUSH32 0xB657089B398EBF64736F6C634300080D00330000000000000000000000000000 ",
  "sha1": "7871f3238a7774387a1d4e204e7412008806bc97",
  "source": "//SPDX-License-Identifier: MIT\npragma solidity ^0.8.0;\n\nimport \"./Settings.sol\";\nimport \"../Interfaces/IWETH.sol\";\nimport \"../openZeppelin/token/ERC721/ERC721.sol\";\nimport \"../openZeppelin/upgradeable/token/ERC20/ERC20Upgradeable.sol\";\nimport \"../openZeppelin/upgradeable/token/ERC721/utils/ERC721HolderUpgradeable.sol\";\n\ncontract TokenVault is ERC20Upgradeable, ERC721HolderUpgradeable {\n    using Address for address;\n\n    /// -----------------------------------\n    /// -------- BASIC INFORMATION --------\n    /// -----------------------------------\n\n    /// @notice weth address\n    address public constant weth = 0xC02aaA39b223FE8D0A0e5C4F27eAD9083C756Cc2;\n\n    /// -----------------------------------\n    /// -------- TOKEN INFORMATION --------\n    /// -----------------------------------\n\n    /// @notice the ERC721 token address of the vault's token\n    address public token;\n\n    /// @notice the ERC721 token ID of the vault's token\n    uint256 public id;\n\n    /// -------------------------------------\n    /// -------- AUCTION INFORMATION --------\n    /// -------------------------------------\n\n    /// @notice the unix timestamp end time of the token auction\n    uint256 public auctionEnd;\n\n    /// @notice the length of auctions\n    uint256 public auctionLength;\n\n    /// @notice reservePrice * votingTokens\n    uint256 public reserveTotal;\n\n    /// @notice the current price of the token during an auction\n    uint256 public livePrice;\n\n    /// @notice the current user winning the token auction\n    address payable public winning;\n\n    enum State { inactive, live, ended, redeemed }\n\n    State public auctionState;\n\n    /// -----------------------------------\n    /// -------- VAULT INFORMATION --------\n    /// -----------------------------------\n\n    /// @notice the governance contract which gets paid in ETH\n    address public immutable settings;\n\n    /// @notice the address who initially deposited the NFT\n    address public curator;\n\n    /// @notice the AUM fee paid to the curator yearly. 3 decimals. ie. 100 = 10%\n    uint256 public fee;\n\n    /// @notice the last timestamp where fees were claimed\n    uint256 public lastClaimed;\n\n    /// @notice a boolean to indicate if the vault has closed\n    bool public vaultClosed;\n\n    /// @notice the number of ownership tokens voting on the reserve price at any given time\n    uint256 public votingTokens;\n\n    /// @notice a mapping of users to their desired token price\n    mapping(address => uint256) public userPrices;\n\n    /// ------------------------\n    /// -------- EVENTS --------\n    /// ------------------------\n\n    /// @notice An event emitted when a user updates their price\n    event PriceUpdate(address indexed user, uint price);\n\n    /// @notice An event emitted when an auction starts\n    event Start(address indexed buyer, uint price);\n\n    /// @notice An event emitted when a bid is made\n    event Bid(address indexed buyer, uint price);\n\n    /// @notice An event emitted when an auction is won\n    event Won(address indexed buyer, uint price);\n\n    /// @notice An event emitted when someone redeems all tokens for the NFT\n    event Redeem(address indexed redeemer);\n\n    /// @notice An event emitted when someone cashes in ERC20 tokens for ETH from an ERC721 token sale\n    event Cash(address indexed owner, uint256 shares);\n\n    event UpdateAuctionLength(uint256 length);\n\n    event UpdateCuratorFee(uint256 fee);\n\n    event FeeClaimed(uint256 fee);\n\n    constructor(address _settings) {\n        settings = _settings;\n    }\n\n    function initialize(address _curator, address _token, uint256 _id, uint256 _supply, uint256 _listPrice, uint256 _fee, string memory _name, string memory _symbol) external initializer {\n        // initialize inherited contracts\n        __ERC20_init(_name, _symbol);\n        __ERC721Holder_init();\n        // set storage variables\n        token = _token;\n        id = _id;\n        auctionLength = 3 days;\n        curator = _curator;\n        fee = _fee;\n        lastClaimed = block.timestamp;\n        auctionState = State.inactive;\n        userPrices[_curator] = _listPrice;\n\n        _mint(_curator, _supply);\n    }\n\n    /// --------------------------------\n    /// -------- VIEW FUNCTIONS --------\n    /// --------------------------------\n\n    function reservePrice() public view returns(uint256) {\n        return votingTokens == 0 ? 0 : reserveTotal / votingTokens;\n    }\n\n    /// -------------------------------\n    /// -------- GOV FUNCTIONS --------\n    /// -------------------------------\n\n    /// @notice allow governance to boot a bad actor curator\n    /// @param _curator the new curator\n    function kickCurator(address _curator) external {\n        require(msg.sender == Ownable(settings).owner(), \"kick:not gov\");\n\n        curator = _curator;\n    }\n\n    /// @notice allow governance to remove bad reserve prices\n    function removeReserve(address _user) external {\n        require(msg.sender == Ownable(settings).owner(), \"remove:not gov\");\n        require(auctionState == State.inactive, \"update:auction live cannot update price\");\n\n        uint256 old = userPrices[_user];\n        require(0 != old, \"update:not an update\");\n        uint256 weight = balanceOf(_user);\n\n        votingTokens -= weight;\n        reserveTotal -= weight * old;\n        \n        userPrices[_user] = 0;\n\n        emit PriceUpdate(_user, 0);\n    }\n\n    /// -----------------------------------\n    /// -------- CURATOR FUNCTIONS --------\n    /// -----------------------------------\n\n    /// @notice allow curator to update the curator address\n    /// @param _curator the new curator\n    function updateCurator(address _curator) external {\n        require(msg.sender == curator, \"update:not curator\");\n\n        curator = _curator;\n    }\n\n    /// @notice allow curator to update the auction length\n    /// @param _length the new base price\n    function updateAuctionLength(uint256 _length) external {\n        require(msg.sender == curator, \"update:not curator\");\n        require(_length >= ISettings(settings).minAuctionLength() && _length <= ISettings(settings).maxAuctionLength(), \"update:invalid auction length\");\n\n        auctionLength = _length;\n        emit UpdateAuctionLength(_length);\n    }\n\n    /// @notice allow the curator to change their fee\n    /// @param _fee the new fee\n    function updateFee(uint256 _fee) external {\n        require(msg.sender == curator, \"update:not curator\");\n        require(_fee < fee, \"update:can't raise\");\n        require(_fee <= ISettings(settings).maxCuratorFee(), \"update:cannot increase fee this high\");\n\n        _claimFees();\n\n        fee = _fee;\n        emit UpdateCuratorFee(fee);\n    }\n\n    /// @notice external function to claim fees for the curator and governance\n    function claimFees() external {\n        _claimFees();\n    }\n\n    /// @dev interal fuction to calculate and mint fees\n    function _claimFees() internal {\n        require(auctionState != State.ended, \"claim:cannot claim after auction ends\");\n\n        // get how much in fees the curator would make in a year\n        uint256 currentAnnualFee = fee * totalSupply() / 1000; \n        // get how much that is per second;\n        uint256 feePerSecond = currentAnnualFee / 31536000;\n        // get how many seconds they are eligible to claim\n        uint256 sinceLastClaim = block.timestamp - lastClaimed;\n        // get the amount of tokens to mint\n        uint256 curatorMint = sinceLastClaim * feePerSecond;\n\n        // now lets do the same for governance\n        address govAddress = ISettings(settings).feeReceiver();\n        uint256 govFee = ISettings(settings).governanceFee();\n        currentAnnualFee = govFee * totalSupply() / 1000; \n        feePerSecond = currentAnnualFee / 31536000;\n        uint256 govMint = sinceLastClaim * feePerSecond;\n\n        lastClaimed = block.timestamp;\n\n        if (curator != address(0)) {\n            _mint(curator, curatorMint);\n            emit FeeClaimed(curatorMint);\n        }\n        if (govAddress != address(0)) {\n            _mint(govAddress, govMint);\n            emit FeeClaimed(govMint);\n        }\n    }\n\n    /// --------------------------------\n    /// -------- CORE FUNCTIONS --------\n    /// --------------------------------\n\n    /// @notice a function for an end user to update their desired sale price\n    /// @param _new the desired price in ETH\n    function updateUserPrice(uint256 _new) external {\n        require(auctionState == State.inactive, \"update:auction live cannot update price\");\n        uint256 old = userPrices[msg.sender];\n        require(_new != old, \"update:not an update\");\n        uint256 weight = balanceOf(msg.sender);\n\n        if (votingTokens == 0) {\n            votingTokens = weight;\n            reserveTotal = weight * _new;\n        }\n        // they are the only one voting\n        else if (weight == votingTokens && old != 0) {\n            reserveTotal = weight * _new;\n        }\n        // previously they were not voting\n        else if (old == 0) {\n            uint256 averageReserve = reserveTotal / votingTokens;\n\n            uint256 reservePriceMin = averageReserve * ISettings(settings).minReserveFactor() / 1000;\n            require(_new >= reservePriceMin, \"update:reserve price too low\");\n            uint256 reservePriceMax = averageReserve * ISettings(settings).maxReserveFactor() / 1000;\n            require(_new <= reservePriceMax, \"update:reserve price too high\");\n\n            votingTokens += weight;\n            reserveTotal += weight * _new;\n        } \n        // they no longer want to vote\n        else if (_new == 0) {\n            votingTokens -= weight;\n            reserveTotal -= weight * old;\n        } \n        // they are updating their vote\n        else {\n            uint256 averageReserve = (reserveTotal - (old * weight)) / (votingTokens - weight);\n\n            uint256 reservePriceMin = averageReserve * ISettings(settings).minReserveFactor() / 1000;\n            require(_new >= reservePriceMin, \"update:reserve price too low\");\n            uint256 reservePriceMax = averageReserve * ISettings(settings).maxReserveFactor() / 1000;\n            require(_new <= reservePriceMax, \"update:reserve price too high\");\n\n            reserveTotal = reserveTotal + (weight * _new) - (weight * old);\n        }\n\n        userPrices[msg.sender] = _new;\n\n        emit PriceUpdate(msg.sender, _new);\n    }\n\n    /// @notice an internal function used to update sender and receivers price on token transfer\n    /// @param _from the ERC20 token sender\n    /// @param _to the ERC20 token receiver\n    /// @param _amount the ERC20 token amount\n    function _beforeTokenTransfer(address _from, address _to, uint256 _amount) internal virtual override {\n        if (auctionState == State.inactive) {\n            uint256 fromPrice = userPrices[_from];\n            uint256 toPrice = userPrices[_to];\n\n            // only do something if users have different reserve price\n            if (toPrice != fromPrice) {\n                // new holder is not a voter\n                if (toPrice == 0) {\n                    // get the average reserve price ignoring the senders amount\n                    votingTokens -= _amount;\n                    reserveTotal -= _amount * fromPrice;\n                }\n                // old holder is not a voter\n                else if (fromPrice == 0) {\n                    votingTokens += _amount;\n                    reserveTotal += _amount * toPrice;\n                }\n                // both holders are voters\n                else {\n                    reserveTotal = reserveTotal + (_amount * toPrice) - (_amount * fromPrice);\n                }\n            }\n        }\n    }\n\n    /// @notice kick off an auction. Must send reservePrice in ETH\n    function start() external payable {\n        require(auctionState == State.inactive, \"start:no auction starts\");\n        require(msg.value >= reservePrice(), \"start:too low bid\");\n        require(votingTokens * 1000 >= ISettings(settings).minVotePercentage() * totalSupply(), \"start:not enough voters\");\n        \n        auctionEnd = block.timestamp + auctionLength;\n        auctionState = State.live;\n\n        livePrice = msg.value;\n        winning = payable(msg.sender);\n\n        emit Start(msg.sender, msg.value);\n    }\n\n    /// @notice an external function to bid on purchasing the vaults NFT. The msg.value is the bid amount\n    function bid() external payable {\n        require(auctionState == State.live, \"bid:auction is not live\");\n        uint256 increase = ISettings(settings).minBidIncrease() + 1000;\n        require(msg.value * 1000 >= livePrice * increase, \"bid:too low bid\");\n        require(block.timestamp < auctionEnd, \"bid:auction ended\");\n\n        // If bid is within 15 minutes of auction end, extend auction\n        if (auctionEnd - block.timestamp <= 15 minutes) {\n            auctionEnd += 15 minutes;\n        }\n\n        _sendETHOrWETH(winning, livePrice);\n\n        livePrice = msg.value;\n        winning = payable(msg.sender);\n\n        emit Bid(msg.sender, msg.value);\n    }\n\n    /// @notice an external function to end an auction after the timer has run out\n    function end() external {\n        require(auctionState == State.live, \"end:vault has already closed\");\n        require(block.timestamp >= auctionEnd, \"end:auction live\");\n\n        _claimFees();\n\n        // transfer erc721 to winner\n        IERC721(token).transferFrom(address(this), winning, id);\n\n        auctionState = State.ended;\n\n        emit Won(winning, livePrice);\n    }\n\n    /// @notice an external function to burn all ERC20 tokens to receive the ERC721 token\n    function redeem() external {\n        require(auctionState == State.inactive, \"redeem:no redeeming\");\n        _burn(msg.sender, totalSupply());\n        \n        // transfer erc721 to redeemer\n        IERC721(token).transferFrom(address(this), msg.sender, id);\n        \n        auctionState = State.redeemed;\n\n        emit Redeem(msg.sender);\n    }\n\n    /// @notice an external function to burn ERC20 tokens to receive ETH from ERC721 token purchase\n    function cash() external {\n        require(auctionState == State.ended, \"cash:vault not closed yet\");\n        uint256 bal = balanceOf(msg.sender);\n        require(bal > 0, \"cash:no tokens to cash out\");\n        uint256 share = bal * address(this).balance / totalSupply();\n        _burn(msg.sender, bal);\n\n        _sendETHOrWETH(payable(msg.sender), share);\n\n        emit Cash(msg.sender, share);\n    }\n\n    // Will attempt to transfer ETH, but will transfer WETH instead if it fails.\n    function _sendETHOrWETH(address to, uint256 value) internal {\n        // Try to transfer ETH to the given recipient.\n        if (!_attemptETHTransfer(to, value)) {\n            // If the transfer fails, wrap and send as WETH, so that\n            // the auction is not impeded and the recipient still\n            // can claim ETH via the WETH contract (similar to escrow).\n            IWETH(weth).deposit{value: value}();\n            IWETH(weth).transfer(to, value);\n            // At this point, the recipient can unwrap WETH.\n        }\n    }\n\n    // Sending ETH is not guaranteed complete, and the method used here will return false if\n    // it fails. For example, a contract can block ETH transfer, or might use\n    // an excessive amount of gas, thereby griefing a new bidder.\n    // We should limit the gas used in transfers, and handle failure cases.\n    function _attemptETHTransfer(address to, uint256 value)\n        internal\n        returns (bool)\n    {\n        // Here increase the gas limit a reasonable amount above the default, and try\n        // to send ETH to the recipient.\n        // NOTE: This might allow the recipient to attempt a limited reentrancy attack.\n        (bool success, ) = to.call{value: value, gas: 30000}(\"\");\n        return success;\n    }\n\n}",
  "sourcePath": "contracts/ERC721TokenVault.sol",
  "type": "contract"
}